{
  "contractName": "DepositWallet",
  "abi": [
    {
      "inputs": [
        {
          "internalType": "contract PeceiptToken",
          "name": "_peceiptToken",
          "type": "address"
        },
        {
          "internalType": "contract TetherToken",
          "name": "_tetherToken",
          "type": "address"
        }
      ],
      "stateMutability": "nonpayable",
      "type": "constructor"
    },
    {
      "anonymous": false,
      "inputs": [
        {
          "indexed": false,
          "internalType": "uint256",
          "name": "_PFXincirculation",
          "type": "uint256"
        }
      ],
      "name": "PFXincirculationUpdated",
      "type": "event"
    },
    {
      "anonymous": false,
      "inputs": [
        {
          "indexed": false,
          "internalType": "uint256",
          "name": "_PFXtomUSDT",
          "type": "uint256"
        }
      ],
      "name": "PFXtomUSDTUpdated",
      "type": "event"
    },
    {
      "anonymous": false,
      "inputs": [
        {
          "indexed": false,
          "internalType": "address",
          "name": "account",
          "type": "address"
        },
        {
          "indexed": false,
          "internalType": "uint256",
          "name": "tetherDeposited",
          "type": "uint256"
        },
        {
          "indexed": false,
          "internalType": "uint256",
          "name": "lpReceived",
          "type": "uint256"
        },
        {
          "indexed": false,
          "internalType": "uint256",
          "name": "timeStamp",
          "type": "uint256"
        }
      ],
      "name": "Staked",
      "type": "event"
    },
    {
      "anonymous": false,
      "inputs": [
        {
          "indexed": false,
          "internalType": "address",
          "name": "account",
          "type": "address"
        },
        {
          "indexed": false,
          "internalType": "uint256",
          "name": "tetherAdded",
          "type": "uint256"
        },
        {
          "indexed": false,
          "internalType": "uint256",
          "name": "timeStamp",
          "type": "uint256"
        }
      ],
      "name": "add",
      "type": "event"
    },
    {
      "anonymous": false,
      "inputs": [
        {
          "indexed": false,
          "internalType": "uint256",
          "name": "_mUSDTfees",
          "type": "uint256"
        }
      ],
      "name": "mUSDTfeesUpdated",
      "type": "event"
    },
    {
      "anonymous": false,
      "inputs": [
        {
          "indexed": false,
          "internalType": "uint256",
          "name": "_mUSDTpool",
          "type": "uint256"
        }
      ],
      "name": "mUSDTpoolUpdated",
      "type": "event"
    },
    {
      "anonymous": false,
      "inputs": [
        {
          "indexed": false,
          "internalType": "uint256",
          "name": "_mUSDTtoPFX",
          "type": "uint256"
        }
      ],
      "name": "mUSDTtoPFXUpdated",
      "type": "event"
    },
    {
      "anonymous": false,
      "inputs": [
        {
          "indexed": false,
          "internalType": "address",
          "name": "account",
          "type": "address"
        },
        {
          "indexed": false,
          "internalType": "uint256",
          "name": "lpDeposited",
          "type": "uint256"
        },
        {
          "indexed": false,
          "internalType": "uint256",
          "name": "tetherReceived",
          "type": "uint256"
        },
        {
          "indexed": false,
          "internalType": "uint256",
          "name": "timeStamp",
          "type": "uint256"
        }
      ],
      "name": "unStaked",
      "type": "event"
    },
    {
      "anonymous": false,
      "inputs": [
        {
          "indexed": false,
          "internalType": "address",
          "name": "account",
          "type": "address"
        },
        {
          "indexed": false,
          "internalType": "uint256",
          "name": "lpDeposited",
          "type": "uint256"
        },
        {
          "indexed": false,
          "internalType": "uint256",
          "name": "tetherReceived",
          "type": "uint256"
        },
        {
          "indexed": false,
          "internalType": "uint256",
          "name": "timeStamp",
          "type": "uint256"
        },
        {
          "indexed": false,
          "internalType": "uint256",
          "name": "penalty",
          "type": "uint256"
        }
      ],
      "name": "unstakeWithPenalty",
      "type": "event"
    },
    {
      "anonymous": false,
      "inputs": [
        {
          "indexed": false,
          "internalType": "address",
          "name": "account",
          "type": "address"
        },
        {
          "indexed": false,
          "internalType": "uint256",
          "name": "tetherWithdrawn",
          "type": "uint256"
        },
        {
          "indexed": false,
          "internalType": "uint256",
          "name": "timeStamp",
          "type": "uint256"
        }
      ],
      "name": "withdraw",
      "type": "event"
    },
    {
      "inputs": [],
      "name": "PFXincirculation",
      "outputs": [
        {
          "internalType": "uint256",
          "name": "",
          "type": "uint256"
        }
      ],
      "stateMutability": "view",
      "type": "function"
    },
    {
      "inputs": [],
      "name": "PFXtomUSDT",
      "outputs": [
        {
          "internalType": "uint256",
          "name": "",
          "type": "uint256"
        }
      ],
      "stateMutability": "view",
      "type": "function"
    },
    {
      "inputs": [],
      "name": "mUSDTfees",
      "outputs": [
        {
          "internalType": "uint256",
          "name": "",
          "type": "uint256"
        }
      ],
      "stateMutability": "view",
      "type": "function"
    },
    {
      "inputs": [],
      "name": "mUSDTpool",
      "outputs": [
        {
          "internalType": "uint256",
          "name": "",
          "type": "uint256"
        }
      ],
      "stateMutability": "view",
      "type": "function"
    },
    {
      "inputs": [],
      "name": "mUSDTtoPFX",
      "outputs": [
        {
          "internalType": "uint256",
          "name": "",
          "type": "uint256"
        }
      ],
      "stateMutability": "view",
      "type": "function"
    },
    {
      "inputs": [],
      "name": "name",
      "outputs": [
        {
          "internalType": "string",
          "name": "",
          "type": "string"
        }
      ],
      "stateMutability": "view",
      "type": "function"
    },
    {
      "inputs": [],
      "name": "owner",
      "outputs": [
        {
          "internalType": "address",
          "name": "",
          "type": "address"
        }
      ],
      "stateMutability": "view",
      "type": "function"
    },
    {
      "inputs": [],
      "name": "peceiptToken",
      "outputs": [
        {
          "internalType": "contract PeceiptToken",
          "name": "",
          "type": "address"
        }
      ],
      "stateMutability": "view",
      "type": "function"
    },
    {
      "inputs": [
        {
          "internalType": "address",
          "name": "",
          "type": "address"
        }
      ],
      "name": "stakerInfo",
      "outputs": [
        {
          "internalType": "uint256",
          "name": "peceiptBalance",
          "type": "uint256"
        },
        {
          "internalType": "uint256",
          "name": "stakingTimestamp",
          "type": "uint256"
        },
        {
          "internalType": "bool",
          "name": "hasStaked",
          "type": "bool"
        },
        {
          "internalType": "bool",
          "name": "isStaking",
          "type": "bool"
        },
        {
          "internalType": "uint256",
          "name": "unStakingTimestamp",
          "type": "uint256"
        }
      ],
      "stateMutability": "view",
      "type": "function"
    },
    {
      "inputs": [
        {
          "internalType": "uint256",
          "name": "",
          "type": "uint256"
        }
      ],
      "name": "stakers",
      "outputs": [
        {
          "internalType": "address",
          "name": "",
          "type": "address"
        }
      ],
      "stateMutability": "view",
      "type": "function"
    },
    {
      "inputs": [],
      "name": "tetherToken",
      "outputs": [
        {
          "internalType": "contract TetherToken",
          "name": "",
          "type": "address"
        }
      ],
      "stateMutability": "view",
      "type": "function"
    },
    {
      "inputs": [],
      "name": "getUSDTpool",
      "outputs": [
        {
          "internalType": "uint256",
          "name": "",
          "type": "uint256"
        }
      ],
      "stateMutability": "view",
      "type": "function"
    },
    {
      "inputs": [],
      "name": "getPFXincirculation",
      "outputs": [
        {
          "internalType": "uint256",
          "name": "",
          "type": "uint256"
        }
      ],
      "stateMutability": "view",
      "type": "function"
    },
    {
      "inputs": [],
      "name": "getmUSDTtoPFX",
      "outputs": [
        {
          "internalType": "uint256",
          "name": "",
          "type": "uint256"
        }
      ],
      "stateMutability": "view",
      "type": "function"
    },
    {
      "inputs": [],
      "name": "getPFXtomUSDT",
      "outputs": [
        {
          "internalType": "uint256",
          "name": "",
          "type": "uint256"
        }
      ],
      "stateMutability": "view",
      "type": "function"
    },
    {
      "inputs": [],
      "name": "getUSDTfees",
      "outputs": [
        {
          "internalType": "uint256",
          "name": "",
          "type": "uint256"
        }
      ],
      "stateMutability": "view",
      "type": "function"
    },
    {
      "inputs": [
        {
          "internalType": "uint256",
          "name": "_amount",
          "type": "uint256"
        }
      ],
      "name": "stakeTokens",
      "outputs": [],
      "stateMutability": "nonpayable",
      "type": "function"
    },
    {
      "inputs": [],
      "name": "issueTokens",
      "outputs": [],
      "stateMutability": "nonpayable",
      "type": "function"
    },
    {
      "inputs": [
        {
          "internalType": "uint256",
          "name": "_amount",
          "type": "uint256"
        }
      ],
      "name": "unstakeTokens",
      "outputs": [],
      "stateMutability": "nonpayable",
      "type": "function"
    },
    {
      "inputs": [
        {
          "internalType": "uint256",
          "name": "_amount",
          "type": "uint256"
        }
      ],
      "name": "withdrawTether",
      "outputs": [],
      "stateMutability": "nonpayable",
      "type": "function"
    },
    {
      "inputs": [
        {
          "internalType": "uint256",
          "name": "_amount",
          "type": "uint256"
        }
      ],
      "name": "addTether",
      "outputs": [],
      "stateMutability": "nonpayable",
      "type": "function"
    }
  ],
  "bytecode": "0x60806040526040518060400160405280600e81526020017f4465706f7369742057616c6c657400000000000000000000000000000000000081525060009080519060200190620000519291906200016c565b506003600760006101000a81548160ff021916908360ff1602179055503480156200007b57600080fd5b5060405162002398380380620023988339818101604052810190620000a191906200024a565b81600760016101000a81548173ffffffffffffffffffffffffffffffffffffffff021916908373ffffffffffffffffffffffffffffffffffffffff16021790555080600860006101000a81548173ffffffffffffffffffffffffffffffffffffffff021916908373ffffffffffffffffffffffffffffffffffffffff16021790555033600160006101000a81548173ffffffffffffffffffffffffffffffffffffffff021916908373ffffffffffffffffffffffffffffffffffffffff160217905550505062000380565b8280546200017a90620002e7565b90600052602060002090601f0160209004810192826200019e5760008555620001ea565b82601f10620001b957805160ff1916838001178555620001ea565b82800160010185558215620001ea579182015b82811115620001e9578251825591602001919060010190620001cc565b5b509050620001f99190620001fd565b5090565b5b8082111562000218576000816000905550600101620001fe565b5090565b6000815190506200022d816200034c565b92915050565b600081519050620002448162000366565b92915050565b600080604083850312156200025e57600080fd5b60006200026e858286016200021c565b9250506020620002818582860162000233565b9150509250929050565b60006200029882620002c7565b9050919050565b6000620002ac826200028b565b9050919050565b6000620002c0826200028b565b9050919050565b600073ffffffffffffffffffffffffffffffffffffffff82169050919050565b600060028204905060018216806200030057607f821691505b602082108114156200031757620003166200031d565b5b50919050565b7f4e487b7100000000000000000000000000000000000000000000000000000000600052602260045260246000fd5b62000357816200029f565b81146200036357600080fd5b50565b6200037181620002b3565b81146200037d57600080fd5b50565b61200880620003906000396000f3fe608060405234801561001057600080fd5b50600436106101375760003560e01c80636f19dd18116100b8578063920455861161007c57806392045586146102f8578063990d743214610316578063a7b7450414610334578063bd076e6b14610352578063d85e62f714610370578063fd5e6dd11461038e57610137565b80636f19dd18146102645780636f368f95146102825780637547c7a3146102a057806378ea2c50146102bc5780638da5cb5b146102da57610137565b80635cad259b116100ff5780635cad259b146101e4578063608e4dd01461020257806360ab58521461021e57806362425d681461022857806365c4e65c1461024657610137565b806306fdde031461013c5780630ff32e351461015a57806332b1ed2d146101765780634e745f1f14610194578063508096f0146101c8575b600080fd5b6101446103be565b6040516101519190611b4f565b60405180910390f35b610174600480360381019061016f919061188f565b61044c565b005b61017e610626565b60405161018b9190611bd1565b60405180910390f35b6101ae60048036038101906101a9919061183d565b610630565b6040516101bf959493929190611bec565b60405180910390f35b6101e260048036038101906101dd919061188f565b610680565b005b6101ec61085c565b6040516101f99190611bd1565b60405180910390f35b61021c6004803603810190610217919061188f565b610866565b005b610226610cef565b005b610230610f11565b60405161023d9190611bd1565b60405180910390f35b61024e610f17565b60405161025b9190611bd1565b60405180910390f35b61026c610f1d565b6040516102799190611bd1565b60405180910390f35b61028a610f23565b6040516102979190611bd1565b60405180910390f35b6102ba60048036038101906102b5919061188f565b610f29565b005b6102c46114d1565b6040516102d19190611bd1565b60405180910390f35b6102e26114db565b6040516102ef9190611a22565b60405180910390f35b610300611501565b60405161030d9190611bd1565b60405180910390f35b61031e61150b565b60405161032b9190611bd1565b60405180910390f35b61033c611511565b6040516103499190611b19565b60405180910390f35b61035a611537565b6040516103679190611b34565b60405180910390f35b61037861155d565b6040516103859190611bd1565b60405180910390f35b6103a860048036038101906103a3919061188f565b611567565b6040516103b59190611a22565b60405180910390f35b600080546103cb90611e74565b80601f01602080910402602001604051908101604052809291908181526020018280546103f790611e74565b80156104445780601f1061041957610100808354040283529160200191610444565b820191906000526020600020905b81548152906001019060200180831161042757829003601f168201915b505050505081565b6000811161048f576040517f08c379a000000000000000000000000000000000000000000000000000000000815260040161048690611bb1565b60405180910390fd5b600160009054906101000a900473ffffffffffffffffffffffffffffffffffffffff1673ffffffffffffffffffffffffffffffffffffffff163373ffffffffffffffffffffffffffffffffffffffff161461051f576040517f08c379a000000000000000000000000000000000000000000000000000000000815260040161051690611b71565b60405180910390fd5b600860009054906101000a900473ffffffffffffffffffffffffffffffffffffffff1673ffffffffffffffffffffffffffffffffffffffff1663a9059cbb33836040518363ffffffff1660e01b815260040161057c929190611a74565b602060405180830381600087803b15801561059657600080fd5b505af11580156105aa573d6000803e3d6000fd5b505050506040513d601f19601f820116820180604052508101906105ce9190611866565b506105d8816115a6565b6105e06115f6565b6105e861165a565b7fb5c5f6724bdc9de2302196ac349f18e17fc199e7f3e9a1adbb788e22b98d429833824260405161061b93929190611a9d565b60405180910390a150565b6000600554905090565b600a6020528060005260406000206000915090508060000154908060010154908060020160009054906101000a900460ff16908060020160019054906101000a900460ff16908060030154905085565b600081116106c3576040517f08c379a00000000000000000000000000000000000000000000000000000000081526004016106ba90611bb1565b60405180910390fd5b600160009054906101000a900473ffffffffffffffffffffffffffffffffffffffff1673ffffffffffffffffffffffffffffffffffffffff163373ffffffffffffffffffffffffffffffffffffffff1614610753576040517f08c379a000000000000000000000000000000000000000000000000000000000815260040161074a90611b71565b60405180910390fd5b600860009054906101000a900473ffffffffffffffffffffffffffffffffffffffff1673ffffffffffffffffffffffffffffffffffffffff166323b872dd3330846040518463ffffffff1660e01b81526004016107b293929190611a3d565b602060405180830381600087803b1580156107cc57600080fd5b505af11580156107e0573d6000803e3d6000fd5b505050506040513d601f19601f820116820180604052508101906108049190611866565b5061080e816116be565b6108166115f6565b61081e61165a565b7f5101e1287b963692121385380f4da2bd2b616c773d869e01175892325b71724133824260405161085193929190611a9d565b60405180910390a150565b6000600654905090565b6000600a60003373ffffffffffffffffffffffffffffffffffffffff1673ffffffffffffffffffffffffffffffffffffffff16815260200190815260200160002060000154905042600a60003373ffffffffffffffffffffffffffffffffffffffff1673ffffffffffffffffffffffffffffffffffffffff1681526020019081526020016000206003018190555060008111610937576040517f08c379a000000000000000000000000000000000000000000000000000000000815260040161092e90611b91565b60405180910390fd5b6000670de0b6b3a7640000600554846109509190611ce2565b61095a9190611cb1565b9050600760019054906101000a900473ffffffffffffffffffffffffffffffffffffffff1673ffffffffffffffffffffffffffffffffffffffff166323b872dd3330866040518463ffffffff1660e01b81526004016109bb93929190611a3d565b602060405180830381600087803b1580156109d557600080fd5b505af11580156109e9573d6000803e3d6000fd5b505050506040513d601f19601f82011682018060405250810190610a0d9190611866565b50600860009054906101000a900473ffffffffffffffffffffffffffffffffffffffff1673ffffffffffffffffffffffffffffffffffffffff1663a9059cbb33836040518363ffffffff1660e01b8152600401610a6b929190611a74565b602060405180830381600087803b158015610a8557600080fd5b505af1158015610a99573d6000803e3d6000fd5b505050506040513d601f19601f82011682018060405250810190610abd9190611866565b5082600a60003373ffffffffffffffffffffffffffffffffffffffff1673ffffffffffffffffffffffffffffffffffffffff16815260200190815260200160002060000154610b0c9190611d3c565b600a60003373ffffffffffffffffffffffffffffffffffffffff1673ffffffffffffffffffffffffffffffffffffffff168152602001908152602001600020600001819055506000600a60003373ffffffffffffffffffffffffffffffffffffffff1673ffffffffffffffffffffffffffffffffffffffff168152602001908152602001600020600001541415610bfd576000600a60003373ffffffffffffffffffffffffffffffffffffffff1673ffffffffffffffffffffffffffffffffffffffff16815260200190815260200160002060020160016101000a81548160ff021916908315150217905550610c59565b6001600a60003373ffffffffffffffffffffffffffffffffffffffff1673ffffffffffffffffffffffffffffffffffffffff16815260200190815260200160002060020160016101000a81548160ff0219169083151502179055505b610c62816115a6565b610c6b8361170e565b7fbfb1c61a0c7ec3ab4b8757abf0d1e2b43f73a5e0e8e0892354bd7fb50ecbad15338483600a60003373ffffffffffffffffffffffffffffffffffffffff1673ffffffffffffffffffffffffffffffffffffffff16815260200190815260200160002060030154604051610ce29493929190611ad4565b60405180910390a1505050565b600160009054906101000a900473ffffffffffffffffffffffffffffffffffffffff1673ffffffffffffffffffffffffffffffffffffffff163373ffffffffffffffffffffffffffffffffffffffff1614610d7f576040517f08c379a0000000000000000000000000000000000000000000000000000000008152600401610d7690611b71565b60405180910390fd5b60005b600980549050811015610f0e57600060098281548110610dcb577f4e487b7100000000000000000000000000000000000000000000000000000000600052603260045260246000fd5b9060005260206000200160009054906101000a900473ffffffffffffffffffffffffffffffffffffffff1690506000600a60008373ffffffffffffffffffffffffffffffffffffffff1673ffffffffffffffffffffffffffffffffffffffff1681526020019081526020016000206000015490506000811115610ef957600760019054906101000a900473ffffffffffffffffffffffffffffffffffffffff1673ffffffffffffffffffffffffffffffffffffffff1663a9059cbb83836040518363ffffffff1660e01b8152600401610ea5929190611a74565b602060405180830381600087803b158015610ebf57600080fd5b505af1158015610ed3573d6000803e3d6000fd5b505050506040513d601f19601f82011682018060405250810190610ef79190611866565b505b50508080610f0690611ea6565b915050610d82565b50565b60025481565b60045481565b60055481565b60035481565b60008111610f6c576040517f08c379a0000000000000000000000000000000000000000000000000000000008152600401610f6390611bb1565b60405180910390fd5b600860009054906101000a900473ffffffffffffffffffffffffffffffffffffffff1673ffffffffffffffffffffffffffffffffffffffff166323b872dd3330846040518463ffffffff1660e01b8152600401610fcb93929190611a3d565b602060405180830381600087803b158015610fe557600080fd5b505af1158015610ff9573d6000803e3d6000fd5b505050506040513d601f19601f8201168201806040525081019061101d9190611866565b50600a60003373ffffffffffffffffffffffffffffffffffffffff1673ffffffffffffffffffffffffffffffffffffffff16815260200190815260200160002060020160009054906101000a900460ff166110d6576009339080600181540180825580915050600190039060005260206000200160009091909190916101000a81548173ffffffffffffffffffffffffffffffffffffffff021916908373ffffffffffffffffffffffffffffffffffffffff1602179055505b42600a60003373ffffffffffffffffffffffffffffffffffffffff1673ffffffffffffffffffffffffffffffffffffffff168152602001908152602001600020600101819055506001600a60003373ffffffffffffffffffffffffffffffffffffffff1673ffffffffffffffffffffffffffffffffffffffff16815260200190815260200160002060020160016101000a81548160ff0219169083151502179055506001600a60003373ffffffffffffffffffffffffffffffffffffffff1673ffffffffffffffffffffffffffffffffffffffff16815260200190815260200160002060020160006101000a81548160ff021916908315150217905550600080600454141561121c57606482600760009054906101000a900460ff1660646111fe9190611d70565b60ff1661120b9190611ce2565b6112159190611cb1565b9050611275565b670de0b6b3a76400006064600654846112359190611ce2565b600760009054906101000a900460ff1660646112519190611d70565b60ff1661125e9190611ce2565b6112689190611cb1565b6112729190611cb1565b90505b600760019054906101000a900473ffffffffffffffffffffffffffffffffffffffff1673ffffffffffffffffffffffffffffffffffffffff1663a9059cbb33836040518363ffffffff1660e01b81526004016112d2929190611a74565b602060405180830381600087803b1580156112ec57600080fd5b505af1158015611300573d6000803e3d6000fd5b505050506040513d601f19601f820116820180604052508101906113249190611866565b5061132e8161175e565b80600a60003373ffffffffffffffffffffffffffffffffffffffff1673ffffffffffffffffffffffffffffffffffffffff1681526020019081526020016000206000015461137c9190611c5b565b600a60003373ffffffffffffffffffffffffffffffffffffffff1673ffffffffffffffffffffffffffffffffffffffff168152602001908152602001600020600001819055507fb4caaf29adda3eefee3ad552a8e85058589bf834c7466cae4ee58787f70589ed338383600a60003373ffffffffffffffffffffffffffffffffffffffff1673ffffffffffffffffffffffffffffffffffffffff168152602001908152602001600020600101546040516114399493929190611ad4565b60405180910390a16000606483600760009054906101000a900460ff1660646114629190611d70565b60ff1661146f9190611ce2565b6114799190611cb1565b90506000606484600760009054906101000a900460ff1660ff1661149d9190611ce2565b6114a79190611cb1565b90506114b2826116be565b6114bb816117ae565b6114c36115f6565b6114cb61165a565b50505050565b6000600254905090565b600160009054906101000a900473ffffffffffffffffffffffffffffffffffffffff1681565b6000600354905090565b60065481565b600760019054906101000a900473ffffffffffffffffffffffffffffffffffffffff1681565b600860009054906101000a900473ffffffffffffffffffffffffffffffffffffffff1681565b6000600454905090565b6009818154811061157757600080fd5b906000526020600020016000915054906101000a900473ffffffffffffffffffffffffffffffffffffffff1681565b806002546115b49190611d3c565b6002819055507f5cccbbba04b79d809fde8dfe1abe8e7556605f9d9425ee6d6c1e9d423404af2f6002546040516115eb9190611bd1565b60405180910390a150565b600454670de0b6b3a764000060025461160f9190611ce2565b6116199190611cb1565b6005819055507f07d869f143e2815c2147cf7f0c9432e2f712ceb44d9318fbdbf369d7d163a49d6005546040516116509190611bd1565b60405180910390a1565b600254670de0b6b3a76400006004546116739190611ce2565b61167d9190611cb1565b6006819055507f07d869f143e2815c2147cf7f0c9432e2f712ceb44d9318fbdbf369d7d163a49d6006546040516116b49190611bd1565b60405180910390a1565b806002546116cc9190611c5b565b6002819055507f5cccbbba04b79d809fde8dfe1abe8e7556605f9d9425ee6d6c1e9d423404af2f6002546040516117039190611bd1565b60405180910390a150565b8060045461171c9190611d3c565b6004819055507f7f1f98d1972a97323efe9018258ff7cb340cc82e016e91f9a3afd50575b7a9406004546040516117539190611bd1565b60405180910390a150565b8060045461176c9190611c5b565b6004819055507f7f1f98d1972a97323efe9018258ff7cb340cc82e016e91f9a3afd50575b7a9406004546040516117a39190611bd1565b60405180910390a150565b806003546117bc9190611c5b565b6003819055507f96902ae94f43b66e9931047e47e228dc0324eaf25870b048850c28164498ad5e6003546040516117f39190611bd1565b60405180910390a150565b60008135905061180d81611f8d565b92915050565b60008151905061182281611fa4565b92915050565b60008135905061183781611fbb565b92915050565b60006020828403121561184f57600080fd5b600061185d848285016117fe565b91505092915050565b60006020828403121561187857600080fd5b600061188684828501611813565b91505092915050565b6000602082840312156118a157600080fd5b60006118af84828501611828565b91505092915050565b6118c181611da4565b82525050565b6118d081611db6565b82525050565b6118df81611df9565b82525050565b6118ee81611e1d565b82525050565b60006118ff82611c3f565b6119098185611c4a565b9350611919818560208601611e41565b61192281611f7c565b840191505092915050565b600061193a601883611c4a565b91507f63616c6c6572206d75737420626520746865206f776e657200000000000000006000830152602082019050919050565b600061197a602183611c4a565b91507f5265636569707420546f6b656e2062616c616e63652063616e6e6f742062652060008301527f30000000000000000000000000000000000000000000000000000000000000006020830152604082019050919050565b60006119e0601283611c4a565b91507f616d6f756e742063616e6e6f74206265203000000000000000000000000000006000830152602082019050919050565b611a1c81611de2565b82525050565b6000602082019050611a3760008301846118b8565b92915050565b6000606082019050611a5260008301866118b8565b611a5f60208301856118b8565b611a6c6040830184611a13565b949350505050565b6000604082019050611a8960008301856118b8565b611a966020830184611a13565b9392505050565b6000606082019050611ab260008301866118b8565b611abf6020830185611a13565b611acc6040830184611a13565b949350505050565b6000608082019050611ae960008301876118b8565b611af66020830186611a13565b611b036040830185611a13565b611b106060830184611a13565b95945050505050565b6000602082019050611b2e60008301846118d6565b92915050565b6000602082019050611b4960008301846118e5565b92915050565b60006020820190508181036000830152611b6981846118f4565b905092915050565b60006020820190508181036000830152611b8a8161192d565b9050919050565b60006020820190508181036000830152611baa8161196d565b9050919050565b60006020820190508181036000830152611bca816119d3565b9050919050565b6000602082019050611be66000830184611a13565b92915050565b600060a082019050611c016000830188611a13565b611c0e6020830187611a13565b611c1b60408301866118c7565b611c2860608301856118c7565b611c356080830184611a13565b9695505050505050565b600081519050919050565b600082825260208201905092915050565b6000611c6682611de2565b9150611c7183611de2565b9250827fffffffffffffffffffffffffffffffffffffffffffffffffffffffffffffffff03821115611ca657611ca5611eef565b5b828201905092915050565b6000611cbc82611de2565b9150611cc783611de2565b925082611cd757611cd6611f1e565b5b828204905092915050565b6000611ced82611de2565b9150611cf883611de2565b9250817fffffffffffffffffffffffffffffffffffffffffffffffffffffffffffffffff0483118215151615611d3157611d30611eef565b5b828202905092915050565b6000611d4782611de2565b9150611d5283611de2565b925082821015611d6557611d64611eef565b5b828203905092915050565b6000611d7b82611dec565b9150611d8683611dec565b925082821015611d9957611d98611eef565b5b828203905092915050565b6000611daf82611dc2565b9050919050565b60008115159050919050565b600073ffffffffffffffffffffffffffffffffffffffff82169050919050565b6000819050919050565b600060ff82169050919050565b6000611e0482611e0b565b9050919050565b6000611e1682611dc2565b9050919050565b6000611e2882611e2f565b9050919050565b6000611e3a82611dc2565b9050919050565b60005b83811015611e5f578082015181840152602081019050611e44565b83811115611e6e576000848401525b50505050565b60006002820490506001821680611e8c57607f821691505b60208210811415611ea057611e9f611f4d565b5b50919050565b6000611eb182611de2565b91507fffffffffffffffffffffffffffffffffffffffffffffffffffffffffffffffff821415611ee457611ee3611eef565b5b600182019050919050565b7f4e487b7100000000000000000000000000000000000000000000000000000000600052601160045260246000fd5b7f4e487b7100000000000000000000000000000000000000000000000000000000600052601260045260246000fd5b7f4e487b7100000000000000000000000000000000000000000000000000000000600052602260045260246000fd5b6000601f19601f8301169050919050565b611f9681611da4565b8114611fa157600080fd5b50565b611fad81611db6565b8114611fb857600080fd5b50565b611fc481611de2565b8114611fcf57600080fd5b5056fea2646970667358221220edc3cb0444c5098949e1840d65c147a0f3c659d40cc3f11c748512584833b55064736f6c63430008000033",
  "immutableReferences": {},
  "source": "pragma solidity ^0.8.0;\r\n\r\nimport \"./PeceiptToken.sol\";\r\nimport \"./TetherToken.sol\";\r\nimport \"./Ownable.sol\";\r\nimport \"./CheckContract.sol\";\r\n\r\ncontract DepositWallet is CheckContract{\r\n    // All code goes here...\r\n\r\n    string public name = \"Deposit Wallet\";\r\n    address public owner;\r\n    uint256 public mUSDTpool;\r\n    uint256 public mUSDTfees;\r\n    uint256 public PFXincirculation;\r\n    uint256 public mUSDTtoPFX;\r\n    uint256 public PFXtomUSDT;\r\n    uint8 stakingFee=3;\r\n\r\n\r\n\r\n    // saving smart contract types as state variables here\r\n    PeceiptToken public peceiptToken;\r\n    TetherToken public tetherToken;\r\n    address[] public stakers;\r\n\r\n    \r\n    mapping(address => StakerInfo) public stakerInfo;\r\n\r\n\r\n    // --- Pool Events ---\r\n    event mUSDTpoolUpdated(uint _mUSDTpool);\r\n    event mUSDTfeesUpdated(uint _mUSDTfees);\r\n    event PFXincirculationUpdated(uint _PFXincirculation);\r\n    event mUSDTtoPFXUpdated(uint _mUSDTtoPFX);\r\n    event PFXtomUSDTUpdated(uint _PFXtomUSDT);\r\n\r\n\r\n    event Staked(\r\n        address account,\r\n        uint tetherDeposited,\r\n        uint lpReceived,\r\n        uint timeStamp\r\n  );\r\n\r\n    event unStaked(\r\n        address account,\r\n        uint lpDeposited,\r\n        uint tetherReceived,\r\n        uint timeStamp\r\n  );\r\n    event withdraw(\r\n        address account,\r\n        uint tetherWithdrawn,\r\n        uint timeStamp\r\n  );\r\n    event add(\r\n        address account,\r\n        uint tetherAdded,\r\n        uint timeStamp\r\n  );\r\n    event unstakeWithPenalty(\r\n        address account,\r\n        uint lpDeposited,\r\n        uint tetherReceived,\r\n        uint timeStamp,\r\n        uint penalty\r\n  );\r\n\r\n\r\n    struct StakerInfo {\r\n        uint256 peceiptBalance;\r\n        uint256 stakingTimestamp;\r\n        bool hasStaked;\r\n        bool isStaking;\r\n        uint256 unStakingTimestamp;\r\n    }\r\n\r\n\r\n    \r\n\r\n    // constructor(PeceiptToken(type ie smart contract type ie PeceiptToken(sol)) _peceiptToken(address))\r\n    // can just change the contract add of tethertoken here\r\n    constructor(PeceiptToken _peceiptToken, TetherToken _tetherToken) public {\r\n        peceiptToken=_peceiptToken;\r\n        tetherToken=_tetherToken;\r\n        owner=msg.sender;\r\n    }\r\n\r\n    // This isnt equal to the the contract's raw mUSDT balance - upon staking, some of the mUSDT will be deposited into fees segment.\r\n    // --- External View functions for the pool ---\r\n    function getUSDTpool() external view returns (uint) {\r\n        return mUSDTpool;\r\n    }\r\n    function getPFXincirculation() external view returns (uint) {\r\n        return PFXincirculation;\r\n    }\r\n    function getmUSDTtoPFX() external view returns (uint) {\r\n        return mUSDTtoPFX;\r\n    }\r\n    function getPFXtomUSDT() external view returns (uint) {\r\n        return PFXtomUSDT;\r\n    }\r\n    // onlyOwner add in function below\r\n    function getUSDTfees() external view returns (uint) {\r\n        return mUSDTfees;\r\n    }\r\n\r\n\r\n    function stakeTokens(uint _amount) public{\r\n        require(_amount > 0, \"amount cannot be 0\");\r\n        \r\n        // Transfer TetherTokens to this contract for staking\r\n        tetherToken.transferFrom(msg.sender, address(this), _amount);\r\n\r\n        // Add user to stakers array *only if they haven't staked already\r\n        if(!stakerInfo[msg.sender].hasStaked){\r\n            stakers.push(msg.sender);\r\n        }\r\n\r\n        // update staking status\r\n        stakerInfo[msg.sender].stakingTimestamp = block.timestamp;\r\n        stakerInfo[msg.sender].isStaking = true;\r\n        stakerInfo[msg.sender].hasStaked = true;\r\n        \r\n        // starting the pool\r\n        uint shareofpool;\r\n        if (PFXincirculation==0){\r\n            shareofpool=((100-stakingFee)*_amount)/100;\r\n        }\r\n        else{\r\n            shareofpool=(((100-stakingFee)*(_amount*PFXtomUSDT))/100)/(10**18);\r\n        }\r\n\r\n        // transfer lp token to person and update PFXpool\r\n        peceiptToken.transfer(msg.sender, shareofpool);\r\n        addToPFXincirculation(shareofpool);\r\n\r\n        // update staking balance\r\n        // this is to increment the stakingBalance amount in the array\r\n        stakerInfo[msg.sender].peceiptBalance=stakerInfo[msg.sender].peceiptBalance+shareofpool;\r\n        emit Staked(msg.sender, _amount, shareofpool, stakerInfo[msg.sender].stakingTimestamp);\r\n\r\n        // update mUSDTpool and mUSDTfees\r\n        uint amountaddTomUSDTpool=((100-stakingFee)*_amount)/100;\r\n        uint amountaddTomUSDTfees=((stakingFee)*_amount)/100;\r\n        addTomUSDTpool(amountaddTomUSDTpool);\r\n        addTomUSDTfees(amountaddTomUSDTfees);\r\n\r\n        // update exchange rates TODO need this here?\r\n        updatemUSDTtoPFX();\r\n        updatePFXtomUSDT();\r\n\r\n    }\r\n    \r\n    // TODO have to burn LP tokens for the pool if they are 0\r\n    // have to change this issuetokens\r\n\r\n    // 2. issuing reward tokens right now logic is that u get 1 for every 1 you stake, no block time basis\r\n    function issueTokens()public{\r\n        // only owner can call this function\r\n        require(msg.sender==owner, \"caller must be the owner\");\r\n\r\n        // issue tokens to all stakers\r\n        for (uint i=0; i<stakers.length; i++){\r\n            address recipient = stakers[i];\r\n            uint balance = stakerInfo[recipient].peceiptBalance;\r\n            if(balance > 0){\r\n                peceiptToken.transfer(recipient, balance);\r\n            }\r\n        }\r\n    }\r\n    // 3. unstake tokens\r\n    function unstakeTokens(uint _amount) public{\r\n        // fetch staking balance\r\n        uint balance=stakerInfo[msg.sender].peceiptBalance;\r\n        stakerInfo[msg.sender].unStakingTimestamp=block.timestamp;\r\n        // require amount greater than 0\r\n        require(balance > 0, \"Receipt Token balance cannot be 0\");\r\n        uint256 shareofpool=(_amount*mUSDTtoPFX)/(10**18);\r\n\r\n        // transfer lp Tokens back to this contract for staking\r\n        peceiptToken.transferFrom(msg.sender, address(this), _amount);\r\n        tetherToken.transfer(msg.sender, shareofpool);\r\n        // reset staking balance\r\n        stakerInfo[msg.sender].peceiptBalance=stakerInfo[msg.sender].peceiptBalance-_amount;\r\n\r\n        // Update staking status\r\n        if (stakerInfo[msg.sender].peceiptBalance==0){\r\n            stakerInfo[msg.sender].isStaking=false;\r\n        } else {\r\n            stakerInfo[msg.sender].isStaking=true;\r\n        }\r\n\r\n        // update pool info\r\n        deductFrommUSDTpool(shareofpool);\r\n        deductFromPFXincirculation(_amount);\r\n        emit unStaked(msg.sender, _amount, shareofpool, stakerInfo[msg.sender].unStakingTimestamp);\r\n        \r\n    }\r\n    function withdrawTether (uint _amount) public{\r\n        require(_amount > 0, \"amount cannot be 0\");\r\n        require(msg.sender==owner, \"caller must be the owner\");\r\n        tetherToken.transfer(msg.sender, _amount);\r\n        deductFrommUSDTpool(_amount);\r\n        updatemUSDTtoPFX();\r\n        updatePFXtomUSDT();\r\n        emit withdraw(msg.sender, _amount, block.timestamp);\r\n    }\r\n\r\n    // TODO take this out\r\n    function addTether (uint _amount) public{\r\n        require(_amount > 0, \"amount cannot be 0\");\r\n        require(msg.sender==owner, \"caller must be the owner\");\r\n        tetherToken.transferFrom(msg.sender,address(this), _amount);\r\n        addTomUSDTpool(_amount);\r\n        updatemUSDTtoPFX();\r\n        updatePFXtomUSDT();\r\n        emit add(msg.sender, _amount, block.timestamp);\r\n    }\r\n\r\n\r\n    // function unstakeTokensWithPenalty(uint _amount) public {\r\n    //     stakerInfo[msg.sender].unStakingTimestamp=block.timestamp;\r\n    //     uint256 balance = stakerInfo[msg.sender].peceiptBalance;\r\n    //     require(balance > 0, \"Receipt Token cannot be 0\");\r\n    //     peceiptToken.transferFrom(msg.sender, address(this), _amount); //return lpx token\r\n        \r\n    //     // stopped here\r\n    //     uint256 timedifference=duration-(block.timestamp-stakerInfo[msg.sender].stakingTimestamp);\r\n    //     uint256 penalty=(timedifference*dailyPenaltyRate)/86400;\r\n\r\n    //     uint totalpeceipt=farmInfo.peceiptInCirculation;\r\n    //     uint totaltether=farmInfo.tetherSupply;\r\n    //     uint256 shareofpool=_amount*totaltether/totalpeceipt;\r\n    //     uint256 withdrawableAmt=shareofpool*(100-penalty)/100;\r\n    //     uint256 penaltyamount=shareofpool-withdrawableAmt;\r\n\r\n        \r\n\r\n    //     tetherToken.transfer(msg.sender, withdrawableAmt); // Unstake x token\r\n\r\n\r\n\r\n    //     // reset staking balance\r\n    //     stakerInfo[msg.sender].peceiptBalance=stakerInfo[msg.sender].peceiptBalance-_amount;\r\n\r\n    //     // Update staking status\r\n    //     if (stakerInfo[msg.sender].peceiptBalance==0){\r\n    //         stakerInfo[msg.sender].isStaking=false;\r\n    //     } else {\r\n    //         stakerInfo[msg.sender].isStaking=true;\r\n    //     }\r\n\r\n    //     // update pool info\r\n    //     farmInfo.tetherSupply -=withdrawableAmt;\r\n    //     farmInfo.peceiptInCirculation -=_amount;\r\n\r\n    //     emit unstakeWithPenalty(msg.sender, _amount, withdrawableAmt, stakerInfo[msg.sender].unStakingTimestamp, penaltyamount);\r\n    //     // getPoolShareRatio();\r\n    // }\r\n    \r\n    // function transferOwnership(address _to, uint256 _amount) public {\r\n    //     require(_amount > 0, \"amount cannot be 0\");\r\n    //     require(_to == address(_to), \"Invalid address\");\r\n    //     require(_amount <= stakerInfo[msg.sender].peceiptBalance, \"amount less than LP balance\");\r\n\r\n    //     peceiptToken.transferFrom(msg.sender, _to, _amount); //transfer lpXToken\r\n    //     // update staker fields\r\n    //     stakerInfo[msg.sender].peceiptBalance=stakerInfo[msg.sender].peceiptBalance-_amount;\r\n    //     stakerInfo[_to].peceiptBalance=stakerInfo[_to].peceiptBalance+_amount;\r\n    //     stakerInfo[_to].stakingTimestamp=stakerInfo[msg.sender].stakingTimestamp;\r\n\r\n\r\n    //     if (!stakerInfo[_to].hasStaked) {\r\n    //         stakers.push(_to);\r\n    //     }\r\n\r\n    //     //Update staking status\r\n    //     stakerInfo[_to].isStaking = true;\r\n    //     stakerInfo[_to].hasStaked = true;\r\n\r\n\r\n    // }\r\n\r\n    // --- Pool functionality ---\r\n    function addTomUSDTpool(uint _amount) private{\r\n        mUSDTpool=mUSDTpool+_amount;\r\n        emit mUSDTpoolUpdated(mUSDTpool);\r\n    }\r\n    function deductFrommUSDTpool(uint _amount) private{\r\n        mUSDTpool=mUSDTpool-_amount;\r\n        emit mUSDTpoolUpdated(mUSDTpool);\r\n    }\r\n    function addToPFXincirculation(uint _amount)private{\r\n        PFXincirculation=PFXincirculation+_amount;\r\n        emit PFXincirculationUpdated(PFXincirculation);\r\n    }\r\n    function deductFromPFXincirculation(uint _amount)private{\r\n        PFXincirculation=PFXincirculation-_amount;\r\n        emit PFXincirculationUpdated(PFXincirculation);\r\n    }\r\n    function addTomUSDTfees(uint _amount) private{\r\n        mUSDTfees=mUSDTfees+_amount;\r\n        emit mUSDTfeesUpdated(mUSDTfees);\r\n    }\r\n    function deductFrommUSDTfees(uint _amount) private{\r\n        mUSDTfees=mUSDTfees-_amount;\r\n        emit mUSDTfeesUpdated(mUSDTfees);\r\n    }\r\n    function updatemUSDTtoPFX() private {\r\n        mUSDTtoPFX=(mUSDTpool*10**18)/PFXincirculation;\r\n        emit mUSDTtoPFXUpdated(mUSDTtoPFX);\r\n    }\r\n    function updatePFXtomUSDT() private {\r\n        PFXtomUSDT=(PFXincirculation*10**18)/mUSDTpool;\r\n        emit mUSDTtoPFXUpdated(PFXtomUSDT);\r\n    }\r\n        \r\n}",
  "sourcePath": "C:\\Users\\richa\\Desktop\\FX_liquidity_Programme\\src\\contracts\\DepositWallet.sol",
  "compiler": {
    "name": "solc",
    "version": "0.8.0+commit.c7dfd78e.Emscripten.clang"
  },
  "schemaVersion": "3.4.3",
  "updatedAt": "2021-09-09T01:30:55.725Z",
  "devdoc": {
    "kind": "dev",
    "methods": {},
    "version": 1
  },
  "userdoc": {
    "kind": "user",
    "methods": {},
    "version": 1
  }
}