{
  "contractName": "DepositWallet",
  "abi": [
    {
      "inputs": [
        {
          "internalType": "contract PeceiptToken",
          "name": "_peceiptToken",
          "type": "address"
        },
        {
          "internalType": "contract TetherToken",
          "name": "_tetherToken",
          "type": "address"
        }
      ],
      "stateMutability": "nonpayable",
      "type": "constructor"
    },
    {
      "anonymous": false,
      "inputs": [
        {
          "indexed": false,
          "internalType": "address",
          "name": "account",
          "type": "address"
        },
        {
          "indexed": false,
          "internalType": "uint256",
          "name": "tetherDeposited",
          "type": "uint256"
        },
        {
          "indexed": false,
          "internalType": "uint256",
          "name": "lpReceived",
          "type": "uint256"
        },
        {
          "indexed": false,
          "internalType": "uint256",
          "name": "timeStamp",
          "type": "uint256"
        }
      ],
      "name": "Staked",
      "type": "event"
    },
    {
      "anonymous": false,
      "inputs": [
        {
          "indexed": false,
          "internalType": "address",
          "name": "account",
          "type": "address"
        },
        {
          "indexed": false,
          "internalType": "uint256",
          "name": "tetherAdded",
          "type": "uint256"
        },
        {
          "indexed": false,
          "internalType": "uint256",
          "name": "timeStamp",
          "type": "uint256"
        }
      ],
      "name": "add",
      "type": "event"
    },
    {
      "anonymous": false,
      "inputs": [
        {
          "indexed": false,
          "internalType": "address",
          "name": "account",
          "type": "address"
        },
        {
          "indexed": false,
          "internalType": "uint256",
          "name": "lpDeposited",
          "type": "uint256"
        },
        {
          "indexed": false,
          "internalType": "uint256",
          "name": "tetherReceived",
          "type": "uint256"
        },
        {
          "indexed": false,
          "internalType": "uint256",
          "name": "timeStamp",
          "type": "uint256"
        }
      ],
      "name": "unStaked",
      "type": "event"
    },
    {
      "anonymous": false,
      "inputs": [
        {
          "indexed": false,
          "internalType": "address",
          "name": "account",
          "type": "address"
        },
        {
          "indexed": false,
          "internalType": "uint256",
          "name": "lpDeposited",
          "type": "uint256"
        },
        {
          "indexed": false,
          "internalType": "uint256",
          "name": "tetherReceived",
          "type": "uint256"
        },
        {
          "indexed": false,
          "internalType": "uint256",
          "name": "timeStamp",
          "type": "uint256"
        },
        {
          "indexed": false,
          "internalType": "uint256",
          "name": "penalty",
          "type": "uint256"
        }
      ],
      "name": "unstakeWithPenalty",
      "type": "event"
    },
    {
      "anonymous": false,
      "inputs": [
        {
          "indexed": false,
          "internalType": "address",
          "name": "account",
          "type": "address"
        },
        {
          "indexed": false,
          "internalType": "uint256",
          "name": "tetherWithdrawn",
          "type": "uint256"
        },
        {
          "indexed": false,
          "internalType": "uint256",
          "name": "timeStamp",
          "type": "uint256"
        }
      ],
      "name": "withdraw",
      "type": "event"
    },
    {
      "inputs": [],
      "name": "dailyPenaltyRate",
      "outputs": [
        {
          "internalType": "uint256",
          "name": "",
          "type": "uint256"
        }
      ],
      "stateMutability": "view",
      "type": "function",
      "constant": true
    },
    {
      "inputs": [],
      "name": "duration",
      "outputs": [
        {
          "internalType": "uint256",
          "name": "",
          "type": "uint256"
        }
      ],
      "stateMutability": "view",
      "type": "function",
      "constant": true
    },
    {
      "inputs": [],
      "name": "farmInfo",
      "outputs": [
        {
          "internalType": "uint256",
          "name": "blockReward",
          "type": "uint256"
        },
        {
          "internalType": "uint256",
          "name": "lastRewardBlock",
          "type": "uint256"
        },
        {
          "internalType": "uint256",
          "name": "tetherSupply",
          "type": "uint256"
        },
        {
          "internalType": "uint256",
          "name": "peceiptInCirculation",
          "type": "uint256"
        }
      ],
      "stateMutability": "view",
      "type": "function",
      "constant": true
    },
    {
      "inputs": [],
      "name": "name",
      "outputs": [
        {
          "internalType": "string",
          "name": "",
          "type": "string"
        }
      ],
      "stateMutability": "view",
      "type": "function",
      "constant": true
    },
    {
      "inputs": [],
      "name": "owner",
      "outputs": [
        {
          "internalType": "address",
          "name": "",
          "type": "address"
        }
      ],
      "stateMutability": "view",
      "type": "function",
      "constant": true
    },
    {
      "inputs": [],
      "name": "peceiptToken",
      "outputs": [
        {
          "internalType": "contract PeceiptToken",
          "name": "",
          "type": "address"
        }
      ],
      "stateMutability": "view",
      "type": "function",
      "constant": true
    },
    {
      "inputs": [
        {
          "internalType": "address",
          "name": "",
          "type": "address"
        }
      ],
      "name": "stakerInfo",
      "outputs": [
        {
          "internalType": "uint256",
          "name": "peceiptBalance",
          "type": "uint256"
        },
        {
          "internalType": "uint256",
          "name": "stakingTimestamp",
          "type": "uint256"
        },
        {
          "internalType": "uint256",
          "name": "stakingBlock",
          "type": "uint256"
        },
        {
          "internalType": "bool",
          "name": "hasStaked",
          "type": "bool"
        },
        {
          "internalType": "bool",
          "name": "isStaking",
          "type": "bool"
        },
        {
          "internalType": "uint256",
          "name": "unStakingTimestamp",
          "type": "uint256"
        }
      ],
      "stateMutability": "view",
      "type": "function",
      "constant": true
    },
    {
      "inputs": [
        {
          "internalType": "uint256",
          "name": "",
          "type": "uint256"
        }
      ],
      "name": "stakers",
      "outputs": [
        {
          "internalType": "address",
          "name": "",
          "type": "address"
        }
      ],
      "stateMutability": "view",
      "type": "function",
      "constant": true
    },
    {
      "inputs": [],
      "name": "tetherToken",
      "outputs": [
        {
          "internalType": "contract TetherToken",
          "name": "",
          "type": "address"
        }
      ],
      "stateMutability": "view",
      "type": "function",
      "constant": true
    },
    {
      "inputs": [
        {
          "internalType": "uint256",
          "name": "_amount",
          "type": "uint256"
        }
      ],
      "name": "stakeTokens",
      "outputs": [],
      "stateMutability": "nonpayable",
      "type": "function"
    },
    {
      "inputs": [],
      "name": "issueTokens",
      "outputs": [],
      "stateMutability": "nonpayable",
      "type": "function"
    },
    {
      "inputs": [
        {
          "internalType": "uint256",
          "name": "_amount",
          "type": "uint256"
        }
      ],
      "name": "unstakeTokens",
      "outputs": [],
      "stateMutability": "nonpayable",
      "type": "function"
    },
    {
      "inputs": [
        {
          "internalType": "uint256",
          "name": "_amount",
          "type": "uint256"
        }
      ],
      "name": "withdrawTether",
      "outputs": [],
      "stateMutability": "nonpayable",
      "type": "function"
    },
    {
      "inputs": [
        {
          "internalType": "uint256",
          "name": "_amount",
          "type": "uint256"
        }
      ],
      "name": "addTether",
      "outputs": [],
      "stateMutability": "nonpayable",
      "type": "function"
    },
    {
      "inputs": [
        {
          "internalType": "uint256",
          "name": "_amount",
          "type": "uint256"
        }
      ],
      "name": "unstakeTokensWithPenalty",
      "outputs": [],
      "stateMutability": "nonpayable",
      "type": "function"
    },
    {
      "inputs": [
        {
          "internalType": "address",
          "name": "_to",
          "type": "address"
        },
        {
          "internalType": "uint256",
          "name": "_amount",
          "type": "uint256"
        }
      ],
      "name": "transferOwnership",
      "outputs": [],
      "stateMutability": "nonpayable",
      "type": "function"
    }
  ],
  "bytecode": "0x60806040526040518060400160405280600e81526020017f4465706f7369742057616c6c6574000000000000000000000000000000000000815250600090805190602001906200005192919062000150565b503480156200005f57600080fd5b5060405162002cf438038062002cf483398181016040528101906200008591906200022e565b81600260006101000a81548173ffffffffffffffffffffffffffffffffffffffff021916908373ffffffffffffffffffffffffffffffffffffffff16021790555080600360006101000a81548173ffffffffffffffffffffffffffffffffffffffff021916908373ffffffffffffffffffffffffffffffffffffffff16021790555033600160006101000a81548173ffffffffffffffffffffffffffffffffffffffff021916908373ffffffffffffffffffffffffffffffffffffffff160217905550505062000364565b8280546200015e90620002cb565b90600052602060002090601f016020900481019282620001825760008555620001ce565b82601f106200019d57805160ff1916838001178555620001ce565b82800160010185558215620001ce579182015b82811115620001cd578251825591602001919060010190620001b0565b5b509050620001dd9190620001e1565b5090565b5b80821115620001fc576000816000905550600101620001e2565b5090565b600081519050620002118162000330565b92915050565b60008151905062000228816200034a565b92915050565b600080604083850312156200024257600080fd5b6000620002528582860162000200565b9250506020620002658582860162000217565b9150509250929050565b60006200027c82620002ab565b9050919050565b600062000290826200026f565b9050919050565b6000620002a4826200026f565b9050919050565b600073ffffffffffffffffffffffffffffffffffffffff82169050919050565b60006002820490506001821680620002e457607f821691505b60208210811415620002fb57620002fa62000301565b5b50919050565b7f4e487b7100000000000000000000000000000000000000000000000000000000600052602260045260246000fd5b6200033b8162000283565b81146200034757600080fd5b50565b620003558162000297565b81146200036157600080fd5b50565b61298080620003746000396000f3fe608060405234801561001057600080fd5b50600436106101005760003560e01c8063608e4dd011610097578063a7b7450411610066578063a7b7450414610267578063abf96c5f14610285578063bd076e6b146102a3578063fd5e6dd1146102c157610100565b8063608e4dd01461020757806360ab5852146102235780637547c7a31461022d5780638da5cb5b1461024957610100565b80630ff32e35116100d35780630ff32e35146101795780631d49d66c146101955780634e745f1f146101b6578063508096f0146101eb57610100565b806306fdde03146101055780630a276680146101235780630bd9da431461013f5780630fb5a6b41461015b575b600080fd5b61010d6102f1565b60405161011a9190612435565b60405180910390f35b61013d60048036038101906101389190611fbd565b61037f565b005b61015960048036038101906101549190612022565b61088a565b005b610163610e02565b6040516101709190612537565b60405180910390f35b610193600480360381019061018e9190612022565b610e09565b005b61019d610fe6565b6040516101ad94939291906125b3565b60405180910390f35b6101d060048036038101906101cb9190611f94565b611004565b6040516101e296959493929190612552565b60405180910390f35b61020560048036038101906102009190612022565b61105a565b005b610221600480360381019061021c9190612022565b611239565b005b61022b61178d565b005b61024760048036038101906102429190612022565b6119af565b005b610251611e9f565b60405161025e91906122b5565b60405180910390f35b61026f611ec5565b60405161027c91906123ff565b60405180910390f35b61028d611eeb565b60405161029a9190612537565b60405180910390f35b6102ab611ef0565b6040516102b8919061241a565b60405180910390f35b6102db60048036038101906102d69190612022565b611f16565b6040516102e891906122b5565b60405180910390f35b600080546102fe906127ec565b80601f016020809104026020016040519081016040528092919081815260200182805461032a906127ec565b80156103775780601f1061034c57610100808354040283529160200191610377565b820191906000526020600020905b81548152906001019060200180831161035a57829003601f168201915b505050505081565b600081116103c2576040517f08c379a00000000000000000000000000000000000000000000000000000000081526004016103b990612517565b60405180910390fd5b8173ffffffffffffffffffffffffffffffffffffffff168273ffffffffffffffffffffffffffffffffffffffff1614610430576040517f08c379a000000000000000000000000000000000000000000000000000000000815260040161042790612477565b60405180910390fd5b600960003373ffffffffffffffffffffffffffffffffffffffff1673ffffffffffffffffffffffffffffffffffffffff168152602001908152602001600020600001548111156104b5576040517f08c379a00000000000000000000000000000000000000000000000000000000081526004016104ac906124f7565b60405180910390fd5b600260009054906101000a900473ffffffffffffffffffffffffffffffffffffffff1673ffffffffffffffffffffffffffffffffffffffff166323b872dd3384846040518463ffffffff1660e01b8152600401610514939291906122d0565b602060405180830381600087803b15801561052e57600080fd5b505af1158015610542573d6000803e3d6000fd5b505050506040513d601f19601f820116820180604052508101906105669190611ff9565b5080600960003373ffffffffffffffffffffffffffffffffffffffff1673ffffffffffffffffffffffffffffffffffffffff168152602001908152602001600020600001546105b591906126f5565b600960003373ffffffffffffffffffffffffffffffffffffffff1673ffffffffffffffffffffffffffffffffffffffff1681526020019081526020016000206000018190555080600960008473ffffffffffffffffffffffffffffffffffffffff1673ffffffffffffffffffffffffffffffffffffffff168152602001908152602001600020600001546106499190612614565b600960008473ffffffffffffffffffffffffffffffffffffffff1673ffffffffffffffffffffffffffffffffffffffff16815260200190815260200160002060000181905550600960003373ffffffffffffffffffffffffffffffffffffffff1673ffffffffffffffffffffffffffffffffffffffff16815260200190815260200160002060010154600960008473ffffffffffffffffffffffffffffffffffffffff1673ffffffffffffffffffffffffffffffffffffffff16815260200190815260200160002060010181905550600960008373ffffffffffffffffffffffffffffffffffffffff1673ffffffffffffffffffffffffffffffffffffffff16815260200190815260200160002060030160009054906101000a900460ff166107d0576004829080600181540180825580915050600190039060005260206000200160009091909190916101000a81548173ffffffffffffffffffffffffffffffffffffffff021916908373ffffffffffffffffffffffffffffffffffffffff1602179055505b6001600960008473ffffffffffffffffffffffffffffffffffffffff1673ffffffffffffffffffffffffffffffffffffffff16815260200190815260200160002060030160016101000a81548160ff0219169083151502179055506001600960008473ffffffffffffffffffffffffffffffffffffffff1673ffffffffffffffffffffffffffffffffffffffff16815260200190815260200160002060030160006101000a81548160ff0219169083151502179055505050565b42600960003373ffffffffffffffffffffffffffffffffffffffff1673ffffffffffffffffffffffffffffffffffffffff168152602001908152602001600020600401819055506000600960003373ffffffffffffffffffffffffffffffffffffffff1673ffffffffffffffffffffffffffffffffffffffff1681526020019081526020016000206000015490506000811161095b576040517f08c379a000000000000000000000000000000000000000000000000000000000815260040161095290612457565b60405180910390fd5b600260009054906101000a900473ffffffffffffffffffffffffffffffffffffffff1673ffffffffffffffffffffffffffffffffffffffff166323b872dd3330856040518463ffffffff1660e01b81526004016109ba939291906122d0565b602060405180830381600087803b1580156109d457600080fd5b505af11580156109e8573d6000803e3d6000fd5b505050506040513d601f19601f82011682018060405250810190610a0c9190611ff9565b506000600960003373ffffffffffffffffffffffffffffffffffffffff1673ffffffffffffffffffffffffffffffffffffffff1681526020019081526020016000206001015442610a5d91906126f5565b621a5e00610a6b91906126f5565b9050600062015180600183610a80919061269b565b610a8a919061266a565b905060006005600301549050600060056002015490506000828288610aaf919061269b565b610ab9919061266a565b905060006064856064610acc91906126f5565b83610ad7919061269b565b610ae1919061266a565b905060008183610af191906126f5565b9050600360009054906101000a900473ffffffffffffffffffffffffffffffffffffffff1673ffffffffffffffffffffffffffffffffffffffff1663a9059cbb33846040518363ffffffff1660e01b8152600401610b50929190612307565b602060405180830381600087803b158015610b6a57600080fd5b505af1158015610b7e573d6000803e3d6000fd5b505050506040513d601f19601f82011682018060405250810190610ba29190611ff9565b5088600960003373ffffffffffffffffffffffffffffffffffffffff1673ffffffffffffffffffffffffffffffffffffffff16815260200190815260200160002060000154610bf191906126f5565b600960003373ffffffffffffffffffffffffffffffffffffffff1673ffffffffffffffffffffffffffffffffffffffff168152602001908152602001600020600001819055506000600960003373ffffffffffffffffffffffffffffffffffffffff1673ffffffffffffffffffffffffffffffffffffffff168152602001908152602001600020600001541415610ce2576000600960003373ffffffffffffffffffffffffffffffffffffffff1673ffffffffffffffffffffffffffffffffffffffff16815260200190815260200160002060030160016101000a81548160ff021916908315150217905550610d3e565b6001600960003373ffffffffffffffffffffffffffffffffffffffff1673ffffffffffffffffffffffffffffffffffffffff16815260200190815260200160002060030160016101000a81548160ff0219169083151502179055505b8160056002016000828254610d5391906126f5565b925050819055508860056003016000828254610d6f91906126f5565b925050819055507fad83522e921db2d67a2e3792b0d9a89170122f2ae155e1cd843f5894ba45c2e0338a84600960003373ffffffffffffffffffffffffffffffffffffffff1673ffffffffffffffffffffffffffffffffffffffff1681526020019081526020016000206004015485604051610def9594939291906123ac565b60405180910390a1505050505050505050565b621a5e0081565b60008111610e4c576040517f08c379a0000000000000000000000000000000000000000000000000000000008152600401610e4390612517565b60405180910390fd5b600160009054906101000a900473ffffffffffffffffffffffffffffffffffffffff1673ffffffffffffffffffffffffffffffffffffffff163373ffffffffffffffffffffffffffffffffffffffff1614610edc576040517f08c379a0000000000000000000000000000000000000000000000000000000008152600401610ed390612497565b60405180910390fd5b600360009054906101000a900473ffffffffffffffffffffffffffffffffffffffff1673ffffffffffffffffffffffffffffffffffffffff1663a9059cbb33836040518363ffffffff1660e01b8152600401610f39929190612307565b602060405180830381600087803b158015610f5357600080fd5b505af1158015610f67573d6000803e3d6000fd5b505050506040513d601f19601f82011682018060405250810190610f8b9190611ff9565b508060056002016000828254610fa191906126f5565b925050819055507fb5c5f6724bdc9de2302196ac349f18e17fc199e7f3e9a1adbb788e22b98d4298338242604051610fdb93929190612330565b60405180910390a150565b60058060000154908060010154908060020154908060030154905084565b60096020528060005260406000206000915090508060000154908060010154908060020154908060030160009054906101000a900460ff16908060030160019054906101000a900460ff16908060040154905086565b6000811161109d576040517f08c379a000000000000000000000000000000000000000000000000000000000815260040161109490612517565b60405180910390fd5b600160009054906101000a900473ffffffffffffffffffffffffffffffffffffffff1673ffffffffffffffffffffffffffffffffffffffff163373ffffffffffffffffffffffffffffffffffffffff161461112d576040517f08c379a000000000000000000000000000000000000000000000000000000000815260040161112490612497565b60405180910390fd5b600360009054906101000a900473ffffffffffffffffffffffffffffffffffffffff1673ffffffffffffffffffffffffffffffffffffffff166323b872dd3330846040518463ffffffff1660e01b815260040161118c939291906122d0565b602060405180830381600087803b1580156111a657600080fd5b505af11580156111ba573d6000803e3d6000fd5b505050506040513d601f19601f820116820180604052508101906111de9190611ff9565b5080600560020160008282546111f49190612614565b925050819055507f5101e1287b963692121385380f4da2bd2b616c773d869e01175892325b71724133824260405161122e93929190612330565b60405180910390a150565b6000600960003373ffffffffffffffffffffffffffffffffffffffff1673ffffffffffffffffffffffffffffffffffffffff16815260200190815260200160002060000154905042600960003373ffffffffffffffffffffffffffffffffffffffff1673ffffffffffffffffffffffffffffffffffffffff168152602001908152602001600020600401819055506000811161130a576040517f08c379a0000000000000000000000000000000000000000000000000000000008152600401611301906124b7565b60405180910390fd5b6000621a5e00600960003373ffffffffffffffffffffffffffffffffffffffff1673ffffffffffffffffffffffffffffffffffffffff1681526020019081526020016000206001015461135d9190612614565b9050804210156113a2576040517f08c379a0000000000000000000000000000000000000000000000000000000008152600401611399906124d7565b60405180910390fd5b600060056003015490506000600560020154905060008282876113c5919061269b565b6113cf919061266a565b9050600260009054906101000a900473ffffffffffffffffffffffffffffffffffffffff1673ffffffffffffffffffffffffffffffffffffffff166323b872dd3330896040518463ffffffff1660e01b8152600401611430939291906122d0565b602060405180830381600087803b15801561144a57600080fd5b505af115801561145e573d6000803e3d6000fd5b505050506040513d601f19601f820116820180604052508101906114829190611ff9565b50600360009054906101000a900473ffffffffffffffffffffffffffffffffffffffff1673ffffffffffffffffffffffffffffffffffffffff1663a9059cbb33836040518363ffffffff1660e01b81526004016114e0929190612307565b602060405180830381600087803b1580156114fa57600080fd5b505af115801561150e573d6000803e3d6000fd5b505050506040513d601f19601f820116820180604052508101906115329190611ff9565b5085600960003373ffffffffffffffffffffffffffffffffffffffff1673ffffffffffffffffffffffffffffffffffffffff1681526020019081526020016000206000015461158191906126f5565b600960003373ffffffffffffffffffffffffffffffffffffffff1673ffffffffffffffffffffffffffffffffffffffff168152602001908152602001600020600001819055506000600960003373ffffffffffffffffffffffffffffffffffffffff1673ffffffffffffffffffffffffffffffffffffffff168152602001908152602001600020600001541415611672576000600960003373ffffffffffffffffffffffffffffffffffffffff1673ffffffffffffffffffffffffffffffffffffffff16815260200190815260200160002060030160016101000a81548160ff0219169083151502179055506116ce565b6001600960003373ffffffffffffffffffffffffffffffffffffffff1673ffffffffffffffffffffffffffffffffffffffff16815260200190815260200160002060030160016101000a81548160ff0219169083151502179055505b80600560020160008282546116e391906126f5565b9250508190555085600560030160008282546116ff91906126f5565b925050819055507fbfb1c61a0c7ec3ab4b8757abf0d1e2b43f73a5e0e8e0892354bd7fb50ecbad15338783600960003373ffffffffffffffffffffffffffffffffffffffff1673ffffffffffffffffffffffffffffffffffffffff1681526020019081526020016000206004015460405161177d9493929190612367565b60405180910390a1505050505050565b600160009054906101000a900473ffffffffffffffffffffffffffffffffffffffff1673ffffffffffffffffffffffffffffffffffffffff163373ffffffffffffffffffffffffffffffffffffffff161461181d576040517f08c379a000000000000000000000000000000000000000000000000000000000815260040161181490612497565b60405180910390fd5b60005b6004805490508110156119ac57600060048281548110611869577f4e487b7100000000000000000000000000000000000000000000000000000000600052603260045260246000fd5b9060005260206000200160009054906101000a900473ffffffffffffffffffffffffffffffffffffffff1690506000600960008373ffffffffffffffffffffffffffffffffffffffff1673ffffffffffffffffffffffffffffffffffffffff168152602001908152602001600020600001549050600081111561199757600260009054906101000a900473ffffffffffffffffffffffffffffffffffffffff1673ffffffffffffffffffffffffffffffffffffffff1663a9059cbb83836040518363ffffffff1660e01b8152600401611943929190612307565b602060405180830381600087803b15801561195d57600080fd5b505af1158015611971573d6000803e3d6000fd5b505050506040513d601f19601f820116820180604052508101906119959190611ff9565b505b505080806119a49061281e565b915050611820565b50565b600081116119f2576040517f08c379a00000000000000000000000000000000000000000000000000000000081526004016119e990612517565b60405180910390fd5b42600960003373ffffffffffffffffffffffffffffffffffffffff1673ffffffffffffffffffffffffffffffffffffffff16815260200190815260200160002060010181905550600360009054906101000a900473ffffffffffffffffffffffffffffffffffffffff1673ffffffffffffffffffffffffffffffffffffffff166323b872dd3330846040518463ffffffff1660e01b8152600401611a98939291906122d0565b602060405180830381600087803b158015611ab257600080fd5b505af1158015611ac6573d6000803e3d6000fd5b505050506040513d601f19601f82011682018060405250810190611aea9190611ff9565b50600960003373ffffffffffffffffffffffffffffffffffffffff1673ffffffffffffffffffffffffffffffffffffffff16815260200190815260200160002060030160009054906101000a900460ff16611ba3576004339080600181540180825580915050600190039060005260206000200160009091909190916101000a81548173ffffffffffffffffffffffffffffffffffffffff021916908373ffffffffffffffffffffffffffffffffffffffff1602179055505b6001600960003373ffffffffffffffffffffffffffffffffffffffff1673ffffffffffffffffffffffffffffffffffffffff16815260200190815260200160002060030160016101000a81548160ff0219169083151502179055506001600960003373ffffffffffffffffffffffffffffffffffffffff1673ffffffffffffffffffffffffffffffffffffffff16815260200190815260200160002060030160006101000a81548160ff0219169083151502179055506000806005600301541415611c7057819050611ca0565b6000600560030154905060006005600201549050808285611c91919061269b565b611c9b919061266a565b925050505b8160056002016000828254611cb59190612614565b925050819055508060056003016000828254611cd19190612614565b92505081905550600260009054906101000a900473ffffffffffffffffffffffffffffffffffffffff1673ffffffffffffffffffffffffffffffffffffffff1663a9059cbb33836040518363ffffffff1660e01b8152600401611d35929190612307565b602060405180830381600087803b158015611d4f57600080fd5b505af1158015611d63573d6000803e3d6000fd5b505050506040513d601f19601f82011682018060405250810190611d879190611ff9565b5080600960003373ffffffffffffffffffffffffffffffffffffffff1673ffffffffffffffffffffffffffffffffffffffff16815260200190815260200160002060000154611dd69190612614565b600960003373ffffffffffffffffffffffffffffffffffffffff1673ffffffffffffffffffffffffffffffffffffffff168152602001908152602001600020600001819055507fb4caaf29adda3eefee3ad552a8e85058589bf834c7466cae4ee58787f70589ed338383600960003373ffffffffffffffffffffffffffffffffffffffff1673ffffffffffffffffffffffffffffffffffffffff16815260200190815260200160002060010154604051611e939493929190612367565b60405180910390a15050565b600160009054906101000a900473ffffffffffffffffffffffffffffffffffffffff1681565b600260009054906101000a900473ffffffffffffffffffffffffffffffffffffffff1681565b600181565b600360009054906101000a900473ffffffffffffffffffffffffffffffffffffffff1681565b60048181548110611f2657600080fd5b906000526020600020016000915054906101000a900473ffffffffffffffffffffffffffffffffffffffff1681565b600081359050611f6481612905565b92915050565b600081519050611f798161291c565b92915050565b600081359050611f8e81612933565b92915050565b600060208284031215611fa657600080fd5b6000611fb484828501611f55565b91505092915050565b60008060408385031215611fd057600080fd5b6000611fde85828601611f55565b9250506020611fef85828601611f7f565b9150509250929050565b60006020828403121561200b57600080fd5b600061201984828501611f6a565b91505092915050565b60006020828403121561203457600080fd5b600061204284828501611f7f565b91505092915050565b61205481612729565b82525050565b6120638161273b565b82525050565b61207281612771565b82525050565b61208181612795565b82525050565b6000612092826125f8565b61209c8185612603565b93506120ac8185602086016127b9565b6120b5816128f4565b840191505092915050565b60006120cd601983612603565b91507f5265636569707420546f6b656e2063616e6e6f742062652030000000000000006000830152602082019050919050565b600061210d600f83612603565b91507f496e76616c6964206164647265737300000000000000000000000000000000006000830152602082019050919050565b600061214d601883612603565b91507f63616c6c6572206d75737420626520746865206f776e657200000000000000006000830152602082019050919050565b600061218d602183612603565b91507f5265636569707420546f6b656e2062616c616e63652063616e6e6f742062652060008301527f30000000000000000000000000000000000000000000000000000000000000006020830152604082019050919050565b60006121f3601c83612603565b91507f746f6f206561726c7920746f20776974686472617720546f6b656e73000000006000830152602082019050919050565b6000612233601b83612603565b91507f616d6f756e74206c657373207468616e204c502062616c616e636500000000006000830152602082019050919050565b6000612273601283612603565b91507f616d6f756e742063616e6e6f74206265203000000000000000000000000000006000830152602082019050919050565b6122af81612767565b82525050565b60006020820190506122ca600083018461204b565b92915050565b60006060820190506122e5600083018661204b565b6122f2602083018561204b565b6122ff60408301846122a6565b949350505050565b600060408201905061231c600083018561204b565b61232960208301846122a6565b9392505050565b6000606082019050612345600083018661204b565b61235260208301856122a6565b61235f60408301846122a6565b949350505050565b600060808201905061237c600083018761204b565b61238960208301866122a6565b61239660408301856122a6565b6123a360608301846122a6565b95945050505050565b600060a0820190506123c1600083018861204b565b6123ce60208301876122a6565b6123db60408301866122a6565b6123e860608301856122a6565b6123f560808301846122a6565b9695505050505050565b60006020820190506124146000830184612069565b92915050565b600060208201905061242f6000830184612078565b92915050565b6000602082019050818103600083015261244f8184612087565b905092915050565b60006020820190508181036000830152612470816120c0565b9050919050565b6000602082019050818103600083015261249081612100565b9050919050565b600060208201905081810360008301526124b081612140565b9050919050565b600060208201905081810360008301526124d081612180565b9050919050565b600060208201905081810360008301526124f0816121e6565b9050919050565b6000602082019050818103600083015261251081612226565b9050919050565b6000602082019050818103600083015261253081612266565b9050919050565b600060208201905061254c60008301846122a6565b92915050565b600060c08201905061256760008301896122a6565b61257460208301886122a6565b61258160408301876122a6565b61258e606083018661205a565b61259b608083018561205a565b6125a860a08301846122a6565b979650505050505050565b60006080820190506125c860008301876122a6565b6125d560208301866122a6565b6125e260408301856122a6565b6125ef60608301846122a6565b95945050505050565b600081519050919050565b600082825260208201905092915050565b600061261f82612767565b915061262a83612767565b9250827fffffffffffffffffffffffffffffffffffffffffffffffffffffffffffffffff0382111561265f5761265e612867565b5b828201905092915050565b600061267582612767565b915061268083612767565b9250826126905761268f612896565b5b828204905092915050565b60006126a682612767565b91506126b183612767565b9250817fffffffffffffffffffffffffffffffffffffffffffffffffffffffffffffffff04831182151516156126ea576126e9612867565b5b828202905092915050565b600061270082612767565b915061270b83612767565b92508282101561271e5761271d612867565b5b828203905092915050565b600061273482612747565b9050919050565b60008115159050919050565b600073ffffffffffffffffffffffffffffffffffffffff82169050919050565b6000819050919050565b600061277c82612783565b9050919050565b600061278e82612747565b9050919050565b60006127a0826127a7565b9050919050565b60006127b282612747565b9050919050565b60005b838110156127d75780820151818401526020810190506127bc565b838111156127e6576000848401525b50505050565b6000600282049050600182168061280457607f821691505b60208210811415612818576128176128c5565b5b50919050565b600061282982612767565b91507fffffffffffffffffffffffffffffffffffffffffffffffffffffffffffffffff82141561285c5761285b612867565b5b600182019050919050565b7f4e487b7100000000000000000000000000000000000000000000000000000000600052601160045260246000fd5b7f4e487b7100000000000000000000000000000000000000000000000000000000600052601260045260246000fd5b7f4e487b7100000000000000000000000000000000000000000000000000000000600052602260045260246000fd5b6000601f19601f8301169050919050565b61290e81612729565b811461291957600080fd5b50565b6129258161273b565b811461293057600080fd5b50565b61293c81612767565b811461294757600080fd5b5056fea26469706673582212207e3d8b34b36bbd4ee4aadd18435fa86d73dbba029dda8ee7c3e46c2134aeafb164736f6c63430008000033",
  "immutableReferences": {},
  "source": "pragma solidity ^0.8.0;\r\nimport \"./PeceiptToken.sol\";\r\nimport \"./TetherToken.sol\";\r\n\r\ncontract DepositWallet {\r\n    // All code goes here...\r\n\r\n    string public name = \"Deposit Wallet\";\r\n    address public owner;\r\n    // saving smart contract types as state variables here\r\n    PeceiptToken public peceiptToken;\r\n    TetherToken public tetherToken;\r\n    uint256 public constant duration = 20 days;\r\n    uint256 public constant dailyPenaltyRate = 1;\r\n\r\n    address[] public stakers;\r\n    // stakingBalance=[address:amount] (similar to)\r\n    // mapping(address=>uint) public stakingBalance;\r\n    // hasStaked=[address:True]\r\n    // mapping(address=>bool) public hasStaked;\r\n    // mapping(address=>bool) public isStaking;\r\n    FarmInfo public farmInfo;\r\n    mapping(address => StakerInfo) public stakerInfo;\r\n\r\n    event Staked(\r\n        address account,\r\n        uint tetherDeposited,\r\n        uint lpReceived,\r\n        uint timeStamp\r\n  );\r\n\r\n    event unStaked(\r\n        address account,\r\n        uint lpDeposited,\r\n        uint tetherReceived,\r\n        uint timeStamp\r\n  );\r\n    event withdraw(\r\n        address account,\r\n        uint tetherWithdrawn,\r\n        uint timeStamp\r\n  );\r\n    event add(\r\n        address account,\r\n        uint tetherAdded,\r\n        uint timeStamp\r\n  );\r\n    event unstakeWithPenalty(\r\n        address account,\r\n        uint lpDeposited,\r\n        uint tetherReceived,\r\n        uint timeStamp,\r\n        uint penalty\r\n  );\r\n\r\n    // event Unstaked(\r\n    //     address account,\r\n    //     address token,\r\n    //     uint amount,\r\n    //     uint buyrate,\r\n    //     uint penalty\r\n    // );\r\n\r\n    struct StakerInfo {\r\n        uint256 peceiptBalance;\r\n        uint256 stakingTimestamp;\r\n        uint256 stakingBlock;\r\n        bool hasStaked;\r\n        bool isStaking;\r\n        // uint256 poolShareRatio;\r\n        uint256 unStakingTimestamp;\r\n    }\r\n\r\n    struct FarmInfo {\r\n        uint256 blockReward;\r\n        uint256 lastRewardBlock; // Last block number that reward distribution occurs.\r\n        uint256 tetherSupply; // set in init, total amount of tether staked\r\n        uint256 peceiptInCirculation; // set in init, total amount of tether staked\r\n    }\r\n\r\n\r\n\r\n    // constructor(PeceiptToken(type ie smart contract type ie PeceiptToken(sol)) _peceiptToken(address))\r\n    // can just change the contract add of tethertoken here\r\n    constructor(PeceiptToken _peceiptToken, TetherToken _tetherToken) public {\r\n        peceiptToken=_peceiptToken;\r\n        tetherToken=_tetherToken;\r\n        owner=msg.sender;\r\n    }\r\n//  TODO this model is a one time stake. it should extend out to diff amounts and diff times staked\r\n    // 1. stakes tokens & issues lp tokens\r\n    function stakeTokens(uint _amount) public{\r\n        require(_amount > 0, \"amount cannot be 0\");\r\n        // code goes inside here...\r\n        \r\n        stakerInfo[msg.sender].stakingTimestamp = block.timestamp;\r\n        // Transfer TetherTokens to this contract for staking\r\n        tetherToken.transferFrom(msg.sender, address(this), _amount);\r\n\r\n        // Add user to stakers array *only if they haven't staked already\r\n        if(!stakerInfo[msg.sender].hasStaked){\r\n            stakers.push(msg.sender);\r\n        }\r\n\r\n        // update staking status\r\n        stakerInfo[msg.sender].isStaking = true;\r\n        stakerInfo[msg.sender].hasStaked = true;\r\n        \r\n        \r\n        uint shareofpool;\r\n        // starting the pool\r\n        if (farmInfo.peceiptInCirculation==0){\r\n            shareofpool=_amount;\r\n        }\r\n        else{\r\n            uint totalpeceipt=farmInfo.peceiptInCirculation;\r\n            uint totaltether=farmInfo.tetherSupply;\r\n            shareofpool=_amount*totalpeceipt/totaltether;\r\n        }\r\n            \r\n\r\n\r\n        // update perceiptincirculation and tethersupply\r\n        farmInfo.tetherSupply +=_amount;\r\n\r\n        // uint256 shareofpool=_amount*(_amount/(_amount+farmInfo.tetherSupply));\r\n        farmInfo.peceiptInCirculation +=shareofpool;\r\n        \r\n\r\n        peceiptToken.transfer(msg.sender, shareofpool);\r\n\r\n        // update staking balance\r\n        // this is to increment the stakingBalance amount in the array\r\n\r\n        stakerInfo[msg.sender].peceiptBalance=stakerInfo[msg.sender].peceiptBalance+shareofpool;\r\n        emit Staked(msg.sender, _amount, shareofpool, stakerInfo[msg.sender].stakingTimestamp);\r\n    }\r\n    // TODO have to burn LP tokens for the pool if they are 0\r\n    // have to change this issuetokens\r\n\r\n    // 2. issuing reward tokens right now logic is that u get 1 for every 1 you stake, no block time basis\r\n    function issueTokens()public{\r\n        // only owner can call this function\r\n        require(msg.sender==owner, \"caller must be the owner\");\r\n\r\n        // issue tokens to all stakers\r\n        for (uint i=0; i<stakers.length; i++){\r\n            address recipient = stakers[i];\r\n            uint balance = stakerInfo[recipient].peceiptBalance;\r\n            if(balance > 0){\r\n                peceiptToken.transfer(recipient, balance);\r\n            }\r\n        }\r\n    }\r\n    // 3. unstake tokens\r\n    function unstakeTokens(uint _amount) public{\r\n        // fetch staking balance\r\n        uint balance=stakerInfo[msg.sender].peceiptBalance;\r\n        stakerInfo[msg.sender].unStakingTimestamp=block.timestamp;\r\n        // require amount greater than 0\r\n        require(balance > 0, \"Receipt Token balance cannot be 0\");\r\n        uint256 end = stakerInfo[msg.sender].stakingTimestamp + duration;\r\n        require(block.timestamp >= end, \"too early to withdraw Tokens\");\r\n        uint totalpeceipt=farmInfo.peceiptInCirculation;\r\n        uint totaltether=farmInfo.tetherSupply;\r\n        uint256 shareofpool=_amount*totaltether/totalpeceipt;\r\n        // transfer Mock Tether Tokens  to this contract for staking\r\n        \r\n        peceiptToken.transferFrom(msg.sender, address(this), _amount);\r\n        tetherToken.transfer(msg.sender, shareofpool);\r\n        // reset staking balance\r\n        stakerInfo[msg.sender].peceiptBalance=stakerInfo[msg.sender].peceiptBalance-_amount;\r\n\r\n        // Update staking status\r\n        if (stakerInfo[msg.sender].peceiptBalance==0){\r\n            stakerInfo[msg.sender].isStaking=false;\r\n        } else {\r\n            stakerInfo[msg.sender].isStaking=true;\r\n        }\r\n\r\n        // update pool info\r\n        farmInfo.tetherSupply -=shareofpool;\r\n        farmInfo.peceiptInCirculation -=_amount;\r\n        emit unStaked(msg.sender, _amount, shareofpool, stakerInfo[msg.sender].unStakingTimestamp);\r\n        \r\n    }\r\n    function withdrawTether (uint _amount) public{\r\n        require(_amount > 0, \"amount cannot be 0\");\r\n        require(msg.sender==owner, \"caller must be the owner\");\r\n        tetherToken.transfer(msg.sender, _amount);\r\n        farmInfo.tetherSupply -=_amount;\r\n        emit withdraw(msg.sender, _amount, block.timestamp);\r\n    }\r\n\r\n    // TODO take this out\r\n    function addTether (uint _amount) public{\r\n        require(_amount > 0, \"amount cannot be 0\");\r\n        require(msg.sender==owner, \"caller must be the owner\");\r\n        tetherToken.transferFrom(msg.sender,address(this), _amount);\r\n        farmInfo.tetherSupply +=_amount;\r\n        emit add(msg.sender, _amount, block.timestamp);\r\n    }\r\n\r\n\r\n    function unstakeTokensWithPenalty(uint _amount) public {\r\n        stakerInfo[msg.sender].unStakingTimestamp=block.timestamp;\r\n        uint256 balance = stakerInfo[msg.sender].peceiptBalance;\r\n        require(balance > 0, \"Receipt Token cannot be 0\");\r\n        peceiptToken.transferFrom(msg.sender, address(this), _amount); //return lpx token\r\n        \r\n        // stopped here\r\n        uint256 timedifference=duration-(block.timestamp-stakerInfo[msg.sender].stakingTimestamp);\r\n        uint256 penalty=(timedifference*dailyPenaltyRate)/86400;\r\n\r\n        uint totalpeceipt=farmInfo.peceiptInCirculation;\r\n        uint totaltether=farmInfo.tetherSupply;\r\n        uint256 shareofpool=_amount*totaltether/totalpeceipt;\r\n        uint256 withdrawableAmt=shareofpool*(100-penalty)/100;\r\n        uint256 penaltyamount=shareofpool-withdrawableAmt;\r\n\r\n        \r\n\r\n        tetherToken.transfer(msg.sender, withdrawableAmt); // Unstake x token\r\n\r\n\r\n\r\n        // reset staking balance\r\n        stakerInfo[msg.sender].peceiptBalance=stakerInfo[msg.sender].peceiptBalance-_amount;\r\n\r\n        // Update staking status\r\n        if (stakerInfo[msg.sender].peceiptBalance==0){\r\n            stakerInfo[msg.sender].isStaking=false;\r\n        } else {\r\n            stakerInfo[msg.sender].isStaking=true;\r\n        }\r\n\r\n        // update pool info\r\n        farmInfo.tetherSupply -=withdrawableAmt;\r\n        farmInfo.peceiptInCirculation -=_amount;\r\n\r\n        emit unstakeWithPenalty(msg.sender, _amount, withdrawableAmt, stakerInfo[msg.sender].unStakingTimestamp, penaltyamount);\r\n        // getPoolShareRatio();\r\n    }\r\n    \r\n    function transferOwnership(address _to, uint256 _amount) public {\r\n        require(_amount > 0, \"amount cannot be 0\");\r\n        require(_to == address(_to), \"Invalid address\");\r\n        require(_amount <= stakerInfo[msg.sender].peceiptBalance, \"amount less than LP balance\");\r\n\r\n        peceiptToken.transferFrom(msg.sender, _to, _amount); //transfer lpXToken\r\n        // update staker fields\r\n        stakerInfo[msg.sender].peceiptBalance=stakerInfo[msg.sender].peceiptBalance-_amount;\r\n        stakerInfo[_to].peceiptBalance=stakerInfo[_to].peceiptBalance+_amount;\r\n        stakerInfo[_to].stakingTimestamp=stakerInfo[msg.sender].stakingTimestamp;\r\n\r\n\r\n        if (!stakerInfo[_to].hasStaked) {\r\n            stakers.push(_to);\r\n        }\r\n\r\n        //Update staking status\r\n        stakerInfo[_to].isStaking = true;\r\n        stakerInfo[_to].hasStaked = true;\r\n\r\n\r\n    }\r\n\r\n\r\n    // 4. issuing reward tokens\r\n\r\n    // function getPoolTotalBalance() public {\r\n    //     uint256 totalBalance;\r\n    //     for (uint256 i = 0; i < stakers.length; i++) {\r\n    //         address recipient = stakers[i];\r\n    //         uint256 balance = stakerInfo[recipient].stakingBalance;\r\n    //         totalBalance = balance + totalBalance;\r\n    //     }\r\n    //     farmInfo.farmableSupply = totalBalance;\r\n    // }\r\n}",
  "sourcePath": "C:\\Users\\richa\\Desktop\\defi_tutorial\\src\\contracts\\DepositWallet.sol",
  "compiler": {
    "name": "solc",
    "version": "0.8.0+commit.c7dfd78e.Emscripten.clang"
  },
  "schemaVersion": "3.4.3",
  "updatedAt": "2021-08-27T05:50:51.225Z",
  "networkType": "ethereum",
  "devdoc": {
    "kind": "dev",
    "methods": {},
    "version": 1
  },
  "userdoc": {
    "kind": "user",
    "methods": {},
    "version": 1
  }
}