{
  "contractName": "DepositWallet",
  "abi": [
    {
      "inputs": [
        {
          "internalType": "contract PeceiptToken",
          "name": "_peceiptToken",
          "type": "address"
        },
        {
          "internalType": "contract TetherToken",
          "name": "_tetherToken",
          "type": "address"
        }
      ],
      "stateMutability": "nonpayable",
      "type": "constructor"
    },
    {
      "inputs": [],
      "name": "dailyPenaltyRate",
      "outputs": [
        {
          "internalType": "uint256",
          "name": "",
          "type": "uint256"
        }
      ],
      "stateMutability": "view",
      "type": "function",
      "constant": true
    },
    {
      "inputs": [],
      "name": "duration",
      "outputs": [
        {
          "internalType": "uint256",
          "name": "",
          "type": "uint256"
        }
      ],
      "stateMutability": "view",
      "type": "function",
      "constant": true
    },
    {
      "inputs": [],
      "name": "farmInfo",
      "outputs": [
        {
          "internalType": "uint256",
          "name": "blockReward",
          "type": "uint256"
        },
        {
          "internalType": "uint256",
          "name": "lastRewardBlock",
          "type": "uint256"
        },
        {
          "internalType": "uint256",
          "name": "tetherSupply",
          "type": "uint256"
        },
        {
          "internalType": "uint256",
          "name": "peceiptInCirculation",
          "type": "uint256"
        }
      ],
      "stateMutability": "view",
      "type": "function",
      "constant": true
    },
    {
      "inputs": [],
      "name": "name",
      "outputs": [
        {
          "internalType": "string",
          "name": "",
          "type": "string"
        }
      ],
      "stateMutability": "view",
      "type": "function",
      "constant": true
    },
    {
      "inputs": [],
      "name": "owner",
      "outputs": [
        {
          "internalType": "address",
          "name": "",
          "type": "address"
        }
      ],
      "stateMutability": "view",
      "type": "function",
      "constant": true
    },
    {
      "inputs": [],
      "name": "peceiptToken",
      "outputs": [
        {
          "internalType": "contract PeceiptToken",
          "name": "",
          "type": "address"
        }
      ],
      "stateMutability": "view",
      "type": "function",
      "constant": true
    },
    {
      "inputs": [
        {
          "internalType": "address",
          "name": "",
          "type": "address"
        }
      ],
      "name": "stakerInfo",
      "outputs": [
        {
          "internalType": "uint256",
          "name": "peceiptBalance",
          "type": "uint256"
        },
        {
          "internalType": "uint256",
          "name": "stakingTimestamp",
          "type": "uint256"
        },
        {
          "internalType": "uint256",
          "name": "stakingBlock",
          "type": "uint256"
        },
        {
          "internalType": "bool",
          "name": "hasStaked",
          "type": "bool"
        },
        {
          "internalType": "bool",
          "name": "isStaking",
          "type": "bool"
        }
      ],
      "stateMutability": "view",
      "type": "function",
      "constant": true
    },
    {
      "inputs": [
        {
          "internalType": "uint256",
          "name": "",
          "type": "uint256"
        }
      ],
      "name": "stakers",
      "outputs": [
        {
          "internalType": "address",
          "name": "",
          "type": "address"
        }
      ],
      "stateMutability": "view",
      "type": "function",
      "constant": true
    },
    {
      "inputs": [],
      "name": "tetherToken",
      "outputs": [
        {
          "internalType": "contract TetherToken",
          "name": "",
          "type": "address"
        }
      ],
      "stateMutability": "view",
      "type": "function",
      "constant": true
    },
    {
      "inputs": [
        {
          "internalType": "uint256",
          "name": "_amount",
          "type": "uint256"
        }
      ],
      "name": "stakeTokens",
      "outputs": [],
      "stateMutability": "nonpayable",
      "type": "function"
    },
    {
      "inputs": [],
      "name": "issueTokens",
      "outputs": [],
      "stateMutability": "nonpayable",
      "type": "function"
    },
    {
      "inputs": [
        {
          "internalType": "uint256",
          "name": "_amount",
          "type": "uint256"
        }
      ],
      "name": "unstakeTokens",
      "outputs": [],
      "stateMutability": "nonpayable",
      "type": "function"
    },
    {
      "inputs": [
        {
          "internalType": "uint256",
          "name": "_amount",
          "type": "uint256"
        }
      ],
      "name": "withdrawTether",
      "outputs": [],
      "stateMutability": "nonpayable",
      "type": "function"
    },
    {
      "inputs": [
        {
          "internalType": "uint256",
          "name": "_amount",
          "type": "uint256"
        }
      ],
      "name": "addTether",
      "outputs": [],
      "stateMutability": "nonpayable",
      "type": "function"
    },
    {
      "inputs": [
        {
          "internalType": "uint256",
          "name": "_amount",
          "type": "uint256"
        }
      ],
      "name": "unstakeTokensWithPenalty",
      "outputs": [],
      "stateMutability": "nonpayable",
      "type": "function"
    }
  ],
  "bytecode": "0x60806040526040518060400160405280600e81526020017f4465706f7369742057616c6c6574000000000000000000000000000000000000815250600090805190602001906200005192919062000150565b503480156200005f57600080fd5b506040516200234e3803806200234e83398181016040528101906200008591906200022e565b81600260006101000a81548173ffffffffffffffffffffffffffffffffffffffff021916908373ffffffffffffffffffffffffffffffffffffffff16021790555080600360006101000a81548173ffffffffffffffffffffffffffffffffffffffff021916908373ffffffffffffffffffffffffffffffffffffffff16021790555033600160006101000a81548173ffffffffffffffffffffffffffffffffffffffff021916908373ffffffffffffffffffffffffffffffffffffffff160217905550505062000364565b8280546200015e90620002cb565b90600052602060002090601f016020900481019282620001825760008555620001ce565b82601f106200019d57805160ff1916838001178555620001ce565b82800160010185558215620001ce579182015b82811115620001cd578251825591602001919060010190620001b0565b5b509050620001dd9190620001e1565b5090565b5b80821115620001fc576000816000905550600101620001e2565b5090565b600081519050620002118162000330565b92915050565b60008151905062000228816200034a565b92915050565b600080604083850312156200024257600080fd5b6000620002528582860162000200565b9250506020620002658582860162000217565b9150509250929050565b60006200027c82620002ab565b9050919050565b600062000290826200026f565b9050919050565b6000620002a4826200026f565b9050919050565b600073ffffffffffffffffffffffffffffffffffffffff82169050919050565b60006002820490506001821680620002e457607f821691505b60208210811415620002fb57620002fa62000301565b5b50919050565b7f4e487b7100000000000000000000000000000000000000000000000000000000600052602260045260246000fd5b6200033b8162000283565b81146200034757600080fd5b50565b620003558162000297565b81146200036157600080fd5b50565b611fda80620003746000396000f3fe608060405234801561001057600080fd5b50600436106100f55760003560e01c8063608e4dd011610097578063a7b7450411610066578063a7b745041461023f578063abf96c5f1461025d578063bd076e6b1461027b578063fd5e6dd114610299576100f5565b8063608e4dd0146101df57806360ab5852146101fb5780637547c7a3146102055780638da5cb5b14610221576100f5565b80630ff32e35116100d35780630ff32e35146101525780631d49d66c1461016e5780634e745f1f1461018f578063508096f0146101c3576100f5565b806306fdde03146100fa5780630bd9da43146101185780630fb5a6b414610134575b600080fd5b6101026102c9565b60405161010f9190611add565b60405180910390f35b610132600480360381019061012d9190611819565b610357565b005b61013c6107f6565b6040516101499190611b9f565b60405180910390f35b61016c60048036038101906101679190611819565b6107fd565b005b61017661099f565b6040516101869493929190611c0d565b60405180910390f35b6101a960048036038101906101a491906117c7565b6109bd565b6040516101ba959493929190611bba565b60405180910390f35b6101dd60048036038101906101d89190611819565b610a0d565b005b6101f960048036038101906101f49190611819565b610bb1565b005b61020361103f565b005b61021f600480360381019061021a9190611819565b611261565b005b6102296116d2565b6040516102369190611a2c565b60405180910390f35b6102476116f8565b6040516102549190611aa7565b60405180910390f35b61026561171e565b6040516102729190611b9f565b60405180910390f35b610283611723565b6040516102909190611ac2565b60405180910390f35b6102b360048036038101906102ae9190611819565b611749565b6040516102c09190611a2c565b60405180910390f35b600080546102d690611e46565b80601f016020809104026020016040519081016040528092919081815260200182805461030290611e46565b801561034f5780601f106103245761010080835404028352916020019161034f565b820191906000526020600020905b81548152906001019060200180831161033257829003601f168201915b505050505081565b6000600960003373ffffffffffffffffffffffffffffffffffffffff1673ffffffffffffffffffffffffffffffffffffffff168152602001908152602001600020600001549050600081116103e1576040517f08c379a00000000000000000000000000000000000000000000000000000000081526004016103d890611aff565b60405180910390fd5b600260009054906101000a900473ffffffffffffffffffffffffffffffffffffffff1673ffffffffffffffffffffffffffffffffffffffff166323b872dd3330856040518463ffffffff1660e01b815260040161044093929190611a47565b602060405180830381600087803b15801561045a57600080fd5b505af115801561046e573d6000803e3d6000fd5b505050506040513d601f19601f8201168201806040525081019061049291906117f0565b506000600960003373ffffffffffffffffffffffffffffffffffffffff1673ffffffffffffffffffffffffffffffffffffffff16815260200190815260200160002060010154426104e39190611d4f565b621a5e006104f19190611d4f565b90506000620151806001836105069190611cf5565b6105109190611cc4565b9050600060056003015490506000600560020154905060008282886105359190611cf5565b61053f9190611cc4565b9050600060648560646105529190611d4f565b8361055d9190611cf5565b6105679190611cc4565b9050600360009054906101000a900473ffffffffffffffffffffffffffffffffffffffff1673ffffffffffffffffffffffffffffffffffffffff1663a9059cbb33836040518363ffffffff1660e01b81526004016105c6929190611a7e565b602060405180830381600087803b1580156105e057600080fd5b505af11580156105f4573d6000803e3d6000fd5b505050506040513d601f19601f8201168201806040525081019061061891906117f0565b5087600960003373ffffffffffffffffffffffffffffffffffffffff1673ffffffffffffffffffffffffffffffffffffffff168152602001908152602001600020600001546106679190611d4f565b600960003373ffffffffffffffffffffffffffffffffffffffff1673ffffffffffffffffffffffffffffffffffffffff168152602001908152602001600020600001819055506000600960003373ffffffffffffffffffffffffffffffffffffffff1673ffffffffffffffffffffffffffffffffffffffff168152602001908152602001600020600001541415610758576000600960003373ffffffffffffffffffffffffffffffffffffffff1673ffffffffffffffffffffffffffffffffffffffff16815260200190815260200160002060030160016101000a81548160ff0219169083151502179055506107b4565b6001600960003373ffffffffffffffffffffffffffffffffffffffff1673ffffffffffffffffffffffffffffffffffffffff16815260200190815260200160002060030160016101000a81548160ff0219169083151502179055505b80600560020160008282546107c99190611d4f565b9250508190555087600560030160008282546107e59190611d4f565b925050819055505050505050505050565b621a5e0081565b60008111610840576040517f08c379a000000000000000000000000000000000000000000000000000000000815260040161083790611b7f565b60405180910390fd5b600160009054906101000a900473ffffffffffffffffffffffffffffffffffffffff1673ffffffffffffffffffffffffffffffffffffffff163373ffffffffffffffffffffffffffffffffffffffff16146108d0576040517f08c379a00000000000000000000000000000000000000000000000000000000081526004016108c790611b1f565b60405180910390fd5b600360009054906101000a900473ffffffffffffffffffffffffffffffffffffffff1673ffffffffffffffffffffffffffffffffffffffff1663a9059cbb33836040518363ffffffff1660e01b815260040161092d929190611a7e565b602060405180830381600087803b15801561094757600080fd5b505af115801561095b573d6000803e3d6000fd5b505050506040513d601f19601f8201168201806040525081019061097f91906117f0565b5080600560020160008282546109959190611d4f565b9250508190555050565b60058060000154908060010154908060020154908060030154905084565b60096020528060005260406000206000915090508060000154908060010154908060020154908060030160009054906101000a900460ff16908060030160019054906101000a900460ff16905085565b60008111610a50576040517f08c379a0000000000000000000000000000000000000000000000000000000008152600401610a4790611b7f565b60405180910390fd5b600160009054906101000a900473ffffffffffffffffffffffffffffffffffffffff1673ffffffffffffffffffffffffffffffffffffffff163373ffffffffffffffffffffffffffffffffffffffff1614610ae0576040517f08c379a0000000000000000000000000000000000000000000000000000000008152600401610ad790611b1f565b60405180910390fd5b600360009054906101000a900473ffffffffffffffffffffffffffffffffffffffff1673ffffffffffffffffffffffffffffffffffffffff166323b872dd3330846040518463ffffffff1660e01b8152600401610b3f93929190611a47565b602060405180830381600087803b158015610b5957600080fd5b505af1158015610b6d573d6000803e3d6000fd5b505050506040513d601f19601f82011682018060405250810190610b9191906117f0565b508060056002016000828254610ba79190611c6e565b9250508190555050565b6000600960003373ffffffffffffffffffffffffffffffffffffffff1673ffffffffffffffffffffffffffffffffffffffff16815260200190815260200160002060000154905060008111610c3b576040517f08c379a0000000000000000000000000000000000000000000000000000000008152600401610c3290611b3f565b60405180910390fd5b6000621a5e00600960003373ffffffffffffffffffffffffffffffffffffffff1673ffffffffffffffffffffffffffffffffffffffff16815260200190815260200160002060010154610c8e9190611c6e565b905080421015610cd3576040517f08c379a0000000000000000000000000000000000000000000000000000000008152600401610cca90611b5f565b60405180910390fd5b60006005600301549050600060056002015490506000828287610cf69190611cf5565b610d009190611cc4565b9050600260009054906101000a900473ffffffffffffffffffffffffffffffffffffffff1673ffffffffffffffffffffffffffffffffffffffff166323b872dd3330896040518463ffffffff1660e01b8152600401610d6193929190611a47565b602060405180830381600087803b158015610d7b57600080fd5b505af1158015610d8f573d6000803e3d6000fd5b505050506040513d601f19601f82011682018060405250810190610db391906117f0565b50600360009054906101000a900473ffffffffffffffffffffffffffffffffffffffff1673ffffffffffffffffffffffffffffffffffffffff1663a9059cbb33836040518363ffffffff1660e01b8152600401610e11929190611a7e565b602060405180830381600087803b158015610e2b57600080fd5b505af1158015610e3f573d6000803e3d6000fd5b505050506040513d601f19601f82011682018060405250810190610e6391906117f0565b5085600960003373ffffffffffffffffffffffffffffffffffffffff1673ffffffffffffffffffffffffffffffffffffffff16815260200190815260200160002060000154610eb29190611d4f565b600960003373ffffffffffffffffffffffffffffffffffffffff1673ffffffffffffffffffffffffffffffffffffffff168152602001908152602001600020600001819055506000600960003373ffffffffffffffffffffffffffffffffffffffff1673ffffffffffffffffffffffffffffffffffffffff168152602001908152602001600020600001541415610fa3576000600960003373ffffffffffffffffffffffffffffffffffffffff1673ffffffffffffffffffffffffffffffffffffffff16815260200190815260200160002060030160016101000a81548160ff021916908315150217905550610fff565b6001600960003373ffffffffffffffffffffffffffffffffffffffff1673ffffffffffffffffffffffffffffffffffffffff16815260200190815260200160002060030160016101000a81548160ff0219169083151502179055505b80600560020160008282546110149190611d4f565b9250508190555085600560030160008282546110309190611d4f565b92505081905550505050505050565b600160009054906101000a900473ffffffffffffffffffffffffffffffffffffffff1673ffffffffffffffffffffffffffffffffffffffff163373ffffffffffffffffffffffffffffffffffffffff16146110cf576040517f08c379a00000000000000000000000000000000000000000000000000000000081526004016110c690611b1f565b60405180910390fd5b60005b60048054905081101561125e5760006004828154811061111b577f4e487b7100000000000000000000000000000000000000000000000000000000600052603260045260246000fd5b9060005260206000200160009054906101000a900473ffffffffffffffffffffffffffffffffffffffff1690506000600960008373ffffffffffffffffffffffffffffffffffffffff1673ffffffffffffffffffffffffffffffffffffffff168152602001908152602001600020600001549050600081111561124957600260009054906101000a900473ffffffffffffffffffffffffffffffffffffffff1673ffffffffffffffffffffffffffffffffffffffff1663a9059cbb83836040518363ffffffff1660e01b81526004016111f5929190611a7e565b602060405180830381600087803b15801561120f57600080fd5b505af1158015611223573d6000803e3d6000fd5b505050506040513d601f19601f8201168201806040525081019061124791906117f0565b505b5050808061125690611e78565b9150506110d2565b50565b600081116112a4576040517f08c379a000000000000000000000000000000000000000000000000000000000815260040161129b90611b7f565b60405180910390fd5b42600960003373ffffffffffffffffffffffffffffffffffffffff1673ffffffffffffffffffffffffffffffffffffffff16815260200190815260200160002060010181905550600360009054906101000a900473ffffffffffffffffffffffffffffffffffffffff1673ffffffffffffffffffffffffffffffffffffffff166323b872dd3330846040518463ffffffff1660e01b815260040161134a93929190611a47565b602060405180830381600087803b15801561136457600080fd5b505af1158015611378573d6000803e3d6000fd5b505050506040513d601f19601f8201168201806040525081019061139c91906117f0565b50600960003373ffffffffffffffffffffffffffffffffffffffff1673ffffffffffffffffffffffffffffffffffffffff16815260200190815260200160002060030160009054906101000a900460ff16611455576004339080600181540180825580915050600190039060005260206000200160009091909190916101000a81548173ffffffffffffffffffffffffffffffffffffffff021916908373ffffffffffffffffffffffffffffffffffffffff1602179055505b6001600960003373ffffffffffffffffffffffffffffffffffffffff1673ffffffffffffffffffffffffffffffffffffffff16815260200190815260200160002060030160016101000a81548160ff0219169083151502179055506001600960003373ffffffffffffffffffffffffffffffffffffffff1673ffffffffffffffffffffffffffffffffffffffff16815260200190815260200160002060030160006101000a81548160ff021916908315150217905550600080600560030154141561152257819050611552565b60006005600301549050600060056002015490508082856115439190611cf5565b61154d9190611cc4565b925050505b81600560020160008282546115679190611c6e565b9250508190555080600560030160008282546115839190611c6e565b92505081905550600260009054906101000a900473ffffffffffffffffffffffffffffffffffffffff1673ffffffffffffffffffffffffffffffffffffffff1663a9059cbb33836040518363ffffffff1660e01b81526004016115e7929190611a7e565b602060405180830381600087803b15801561160157600080fd5b505af1158015611615573d6000803e3d6000fd5b505050506040513d601f19601f8201168201806040525081019061163991906117f0565b5080600960003373ffffffffffffffffffffffffffffffffffffffff1673ffffffffffffffffffffffffffffffffffffffff168152602001908152602001600020600001546116889190611c6e565b600960003373ffffffffffffffffffffffffffffffffffffffff1673ffffffffffffffffffffffffffffffffffffffff168152602001908152602001600020600001819055505050565b600160009054906101000a900473ffffffffffffffffffffffffffffffffffffffff1681565b600260009054906101000a900473ffffffffffffffffffffffffffffffffffffffff1681565b600181565b600360009054906101000a900473ffffffffffffffffffffffffffffffffffffffff1681565b6004818154811061175957600080fd5b906000526020600020016000915054906101000a900473ffffffffffffffffffffffffffffffffffffffff1681565b60008135905061179781611f5f565b92915050565b6000815190506117ac81611f76565b92915050565b6000813590506117c181611f8d565b92915050565b6000602082840312156117d957600080fd5b60006117e784828501611788565b91505092915050565b60006020828403121561180257600080fd5b60006118108482850161179d565b91505092915050565b60006020828403121561182b57600080fd5b6000611839848285016117b2565b91505092915050565b61184b81611d83565b82525050565b61185a81611d95565b82525050565b61186981611dcb565b82525050565b61187881611def565b82525050565b600061188982611c52565b6118938185611c5d565b93506118a3818560208601611e13565b6118ac81611f4e565b840191505092915050565b60006118c4601983611c5d565b91507f5265636569707420546f6b656e2063616e6e6f742062652030000000000000006000830152602082019050919050565b6000611904601883611c5d565b91507f63616c6c6572206d75737420626520746865206f776e657200000000000000006000830152602082019050919050565b6000611944602183611c5d565b91507f5265636569707420546f6b656e2062616c616e63652063616e6e6f742062652060008301527f30000000000000000000000000000000000000000000000000000000000000006020830152604082019050919050565b60006119aa601c83611c5d565b91507f746f6f206561726c7920746f20776974686472617720546f6b656e73000000006000830152602082019050919050565b60006119ea601283611c5d565b91507f616d6f756e742063616e6e6f74206265203000000000000000000000000000006000830152602082019050919050565b611a2681611dc1565b82525050565b6000602082019050611a416000830184611842565b92915050565b6000606082019050611a5c6000830186611842565b611a696020830185611842565b611a766040830184611a1d565b949350505050565b6000604082019050611a936000830185611842565b611aa06020830184611a1d565b9392505050565b6000602082019050611abc6000830184611860565b92915050565b6000602082019050611ad7600083018461186f565b92915050565b60006020820190508181036000830152611af7818461187e565b905092915050565b60006020820190508181036000830152611b18816118b7565b9050919050565b60006020820190508181036000830152611b38816118f7565b9050919050565b60006020820190508181036000830152611b5881611937565b9050919050565b60006020820190508181036000830152611b788161199d565b9050919050565b60006020820190508181036000830152611b98816119dd565b9050919050565b6000602082019050611bb46000830184611a1d565b92915050565b600060a082019050611bcf6000830188611a1d565b611bdc6020830187611a1d565b611be96040830186611a1d565b611bf66060830185611851565b611c036080830184611851565b9695505050505050565b6000608082019050611c226000830187611a1d565b611c2f6020830186611a1d565b611c3c6040830185611a1d565b611c496060830184611a1d565b95945050505050565b600081519050919050565b600082825260208201905092915050565b6000611c7982611dc1565b9150611c8483611dc1565b9250827fffffffffffffffffffffffffffffffffffffffffffffffffffffffffffffffff03821115611cb957611cb8611ec1565b5b828201905092915050565b6000611ccf82611dc1565b9150611cda83611dc1565b925082611cea57611ce9611ef0565b5b828204905092915050565b6000611d0082611dc1565b9150611d0b83611dc1565b9250817fffffffffffffffffffffffffffffffffffffffffffffffffffffffffffffffff0483118215151615611d4457611d43611ec1565b5b828202905092915050565b6000611d5a82611dc1565b9150611d6583611dc1565b925082821015611d7857611d77611ec1565b5b828203905092915050565b6000611d8e82611da1565b9050919050565b60008115159050919050565b600073ffffffffffffffffffffffffffffffffffffffff82169050919050565b6000819050919050565b6000611dd682611ddd565b9050919050565b6000611de882611da1565b9050919050565b6000611dfa82611e01565b9050919050565b6000611e0c82611da1565b9050919050565b60005b83811015611e31578082015181840152602081019050611e16565b83811115611e40576000848401525b50505050565b60006002820490506001821680611e5e57607f821691505b60208210811415611e7257611e71611f1f565b5b50919050565b6000611e8382611dc1565b91507fffffffffffffffffffffffffffffffffffffffffffffffffffffffffffffffff821415611eb657611eb5611ec1565b5b600182019050919050565b7f4e487b7100000000000000000000000000000000000000000000000000000000600052601160045260246000fd5b7f4e487b7100000000000000000000000000000000000000000000000000000000600052601260045260246000fd5b7f4e487b7100000000000000000000000000000000000000000000000000000000600052602260045260246000fd5b6000601f19601f8301169050919050565b611f6881611d83565b8114611f7357600080fd5b50565b611f7f81611d95565b8114611f8a57600080fd5b50565b611f9681611dc1565b8114611fa157600080fd5b5056fea2646970667358221220c2aa2447d425c8ba13b33efc53efd3cfc25e73ba5fc400deb75290ef77435aa564736f6c63430008000033",
  "immutableReferences": {},
  "source": "pragma solidity ^0.8.0;\r\nimport \"./PeceiptToken.sol\";\r\nimport \"./TetherToken.sol\";\r\n\r\ncontract DepositWallet {\r\n    // All code goes here...\r\n\r\n    string public name = \"Deposit Wallet\";\r\n    address public owner;\r\n    // saving smart contract types as state variables here\r\n    PeceiptToken public peceiptToken;\r\n    TetherToken public tetherToken;\r\n    uint256 public constant duration = 20 days;\r\n    uint256 public constant dailyPenaltyRate = 1;\r\n\r\n    address[] public stakers;\r\n    // stakingBalance=[address:amount] (similar to)\r\n    // mapping(address=>uint) public stakingBalance;\r\n    // hasStaked=[address:True]\r\n    // mapping(address=>bool) public hasStaked;\r\n    // mapping(address=>bool) public isStaking;\r\n    FarmInfo public farmInfo;\r\n    mapping(address => StakerInfo) public stakerInfo;\r\n\r\n    struct StakerInfo {\r\n        uint256 peceiptBalance;\r\n        uint256 stakingTimestamp;\r\n        uint256 stakingBlock;\r\n        bool hasStaked;\r\n        bool isStaking;\r\n        // uint256 poolShareRatio;\r\n    }\r\n\r\n    struct FarmInfo {\r\n        uint256 blockReward;\r\n        uint256 lastRewardBlock; // Last block number that reward distribution occurs.\r\n        uint256 tetherSupply; // set in init, total amount of tether staked\r\n        uint256 peceiptInCirculation; // set in init, total amount of tether staked\r\n    }\r\n\r\n\r\n\r\n    // constructor(PeceiptToken(type ie smart contract type ie PeceiptToken(sol)) _peceiptToken(address))\r\n    // can just change the contract add of tethertoken here\r\n    constructor(PeceiptToken _peceiptToken, TetherToken _tetherToken) public {\r\n        peceiptToken=_peceiptToken;\r\n        tetherToken=_tetherToken;\r\n        owner=msg.sender;\r\n    }\r\n//  TODO this model is a one time stake. it should extend out to diff amounts and diff times staked\r\n    // 1. stakes tokens & issues lp tokens\r\n    function stakeTokens(uint _amount) public{\r\n        require(_amount > 0, \"amount cannot be 0\");\r\n        // code goes inside here...\r\n        \r\n        stakerInfo[msg.sender].stakingTimestamp = block.timestamp;\r\n        // Transfer TetherTokens to this contract for staking\r\n        tetherToken.transferFrom(msg.sender, address(this), _amount);\r\n\r\n        // Add user to stakers array *only if they haven't staked already\r\n        if(!stakerInfo[msg.sender].hasStaked){\r\n            stakers.push(msg.sender);\r\n        }\r\n\r\n        // update staking status\r\n        stakerInfo[msg.sender].isStaking = true;\r\n        stakerInfo[msg.sender].hasStaked = true;\r\n        \r\n        \r\n        uint shareofpool;\r\n        // starting the pool\r\n        if (farmInfo.peceiptInCirculation==0){\r\n            shareofpool=_amount;\r\n        }\r\n        else{\r\n            uint totalpeceipt=farmInfo.peceiptInCirculation;\r\n            uint totaltether=farmInfo.tetherSupply;\r\n            shareofpool=_amount*totalpeceipt/totaltether;\r\n        }\r\n            \r\n\r\n\r\n        // update perceiptincirculation and tethersupply\r\n        farmInfo.tetherSupply +=_amount;\r\n\r\n        // uint256 shareofpool=_amount*(_amount/(_amount+farmInfo.tetherSupply));\r\n        farmInfo.peceiptInCirculation +=shareofpool;\r\n        \r\n\r\n        peceiptToken.transfer(msg.sender, shareofpool);\r\n\r\n        // update staking balance\r\n        // this is to increment the stakingBalance amount in the array\r\n\r\n        stakerInfo[msg.sender].peceiptBalance=stakerInfo[msg.sender].peceiptBalance+shareofpool;\r\n\r\n    }\r\n    // TODO have to burn LP tokens for the pool if they are 0\r\n    // have to change this issuetokens\r\n\r\n    // 2. issuing reward tokens right now logic is that u get 1 for every 1 you stake, no block time basis\r\n    function issueTokens()public{\r\n        // only owner can call this function\r\n        require(msg.sender==owner, \"caller must be the owner\");\r\n\r\n        // issue tokens to all stakers\r\n        for (uint i=0; i<stakers.length; i++){\r\n            address recipient = stakers[i];\r\n            uint balance = stakerInfo[recipient].peceiptBalance;\r\n            if(balance > 0){\r\n                peceiptToken.transfer(recipient, balance);\r\n            }\r\n        }\r\n    }\r\n    // 3. unstake tokens\r\n    function unstakeTokens(uint _amount) public{\r\n        // fetch staking balance\r\n        uint balance=stakerInfo[msg.sender].peceiptBalance;\r\n    \r\n        // require amount greater than 0\r\n        require(balance > 0, \"Receipt Token balance cannot be 0\");\r\n        uint256 end = stakerInfo[msg.sender].stakingTimestamp + duration;\r\n        require(block.timestamp >= end, \"too early to withdraw Tokens\");\r\n        uint totalpeceipt=farmInfo.peceiptInCirculation;\r\n        uint totaltether=farmInfo.tetherSupply;\r\n        uint256 shareofpool=_amount*totaltether/totalpeceipt;\r\n        // transfer Mock Tether Tokens  to this contract for staking\r\n        \r\n        peceiptToken.transferFrom(msg.sender, address(this), _amount);\r\n        tetherToken.transfer(msg.sender, shareofpool);\r\n        // reset staking balance\r\n        stakerInfo[msg.sender].peceiptBalance=stakerInfo[msg.sender].peceiptBalance-_amount;\r\n\r\n        // Update staking status\r\n        if (stakerInfo[msg.sender].peceiptBalance==0){\r\n            stakerInfo[msg.sender].isStaking=false;\r\n        } else {\r\n            stakerInfo[msg.sender].isStaking=true;\r\n        }\r\n\r\n        // update pool info\r\n        farmInfo.tetherSupply -=shareofpool;\r\n        farmInfo.peceiptInCirculation -=_amount;\r\n        \r\n    }\r\n    function withdrawTether (uint _amount) public{\r\n        require(_amount > 0, \"amount cannot be 0\");\r\n        require(msg.sender==owner, \"caller must be the owner\");\r\n        tetherToken.transfer(msg.sender, _amount);\r\n        farmInfo.tetherSupply -=_amount;\r\n    }\r\n\r\n    // TODO take this out\r\n    function addTether (uint _amount) public{\r\n        require(_amount > 0, \"amount cannot be 0\");\r\n        require(msg.sender==owner, \"caller must be the owner\");\r\n        tetherToken.transferFrom(msg.sender,address(this), _amount);\r\n        farmInfo.tetherSupply +=_amount;\r\n    }\r\n\r\n\r\n    function unstakeTokensWithPenalty(uint _amount) public {\r\n        uint256 balance = stakerInfo[msg.sender].peceiptBalance;\r\n        require(balance > 0, \"Receipt Token cannot be 0\");\r\n        peceiptToken.transferFrom(msg.sender, address(this), _amount); //return lpx token\r\n        \r\n        // stopped here\r\n        uint256 timedifference=duration-(block.timestamp-stakerInfo[msg.sender].stakingTimestamp);\r\n        uint256 penalty=(timedifference*dailyPenaltyRate)/86400;\r\n\r\n        uint totalpeceipt=farmInfo.peceiptInCirculation;\r\n        uint totaltether=farmInfo.tetherSupply;\r\n        uint256 shareofpool=_amount*totaltether/totalpeceipt;\r\n        uint256 withdrawableAmt=shareofpool*(100-penalty)/100;\r\n\r\n        \r\n\r\n        tetherToken.transfer(msg.sender, withdrawableAmt); // Unstake x token\r\n\r\n\r\n\r\n        // reset staking balance\r\n        stakerInfo[msg.sender].peceiptBalance=stakerInfo[msg.sender].peceiptBalance-_amount;\r\n\r\n        // Update staking status\r\n        if (stakerInfo[msg.sender].peceiptBalance==0){\r\n            stakerInfo[msg.sender].isStaking=false;\r\n        } else {\r\n            stakerInfo[msg.sender].isStaking=true;\r\n        }\r\n\r\n        // update pool info\r\n        farmInfo.tetherSupply -=withdrawableAmt;\r\n        farmInfo.peceiptInCirculation -=_amount;\r\n\r\n        // getPoolShareRatio();\r\n    }\r\n\r\n\r\n\r\n    // 4. issuing reward tokens\r\n\r\n    // function getPoolTotalBalance() public {\r\n    //     uint256 totalBalance;\r\n    //     for (uint256 i = 0; i < stakers.length; i++) {\r\n    //         address recipient = stakers[i];\r\n    //         uint256 balance = stakerInfo[recipient].stakingBalance;\r\n    //         totalBalance = balance + totalBalance;\r\n    //     }\r\n    //     farmInfo.farmableSupply = totalBalance;\r\n    // }\r\n}",
  "sourcePath": "C:\\Users\\richa\\Desktop\\defi_tutorial\\src\\contracts\\DepositWallet.sol",
  "compiler": {
    "name": "solc",
    "version": "0.8.0+commit.c7dfd78e.Emscripten.clang"
  },
  "schemaVersion": "3.4.3",
  "updatedAt": "2021-08-26T03:32:20.947Z",
  "networkType": "ethereum",
  "devdoc": {
    "kind": "dev",
    "methods": {},
    "version": 1
  },
  "userdoc": {
    "kind": "user",
    "methods": {},
    "version": 1
  }
}