{
  "contractName": "DepositWallet",
  "abi": [
    {
      "inputs": [
        {
          "internalType": "contract PeceiptToken",
          "name": "_peceiptToken",
          "type": "address"
        },
        {
          "internalType": "contract TetherToken",
          "name": "_tetherToken",
          "type": "address"
        }
      ],
      "stateMutability": "nonpayable",
      "type": "constructor"
    },
    {
      "anonymous": false,
      "inputs": [
        {
          "indexed": false,
          "internalType": "uint256",
          "name": "_PFXincirculation",
          "type": "uint256"
        }
      ],
      "name": "PFXincirculationUpdated",
      "type": "event"
    },
    {
      "anonymous": false,
      "inputs": [
        {
          "indexed": false,
          "internalType": "uint256",
          "name": "_PFXtomUSDT",
          "type": "uint256"
        }
      ],
      "name": "PFXtomUSDTUpdated",
      "type": "event"
    },
    {
      "anonymous": false,
      "inputs": [
        {
          "indexed": false,
          "internalType": "address",
          "name": "account",
          "type": "address"
        },
        {
          "indexed": false,
          "internalType": "uint256",
          "name": "tetherDeposited",
          "type": "uint256"
        },
        {
          "indexed": false,
          "internalType": "uint256",
          "name": "lpReceived",
          "type": "uint256"
        },
        {
          "indexed": false,
          "internalType": "uint256",
          "name": "timeStamp",
          "type": "uint256"
        }
      ],
      "name": "Staked",
      "type": "event"
    },
    {
      "anonymous": false,
      "inputs": [
        {
          "indexed": false,
          "internalType": "address",
          "name": "account",
          "type": "address"
        },
        {
          "indexed": false,
          "internalType": "uint256",
          "name": "tetherAdded",
          "type": "uint256"
        },
        {
          "indexed": false,
          "internalType": "uint256",
          "name": "timeStamp",
          "type": "uint256"
        }
      ],
      "name": "addToPool",
      "type": "event"
    },
    {
      "anonymous": false,
      "inputs": [
        {
          "indexed": false,
          "internalType": "uint256",
          "name": "_mUSDTfees",
          "type": "uint256"
        }
      ],
      "name": "mUSDTfeesUpdated",
      "type": "event"
    },
    {
      "anonymous": false,
      "inputs": [
        {
          "indexed": false,
          "internalType": "uint256",
          "name": "_mUSDTpool",
          "type": "uint256"
        }
      ],
      "name": "mUSDTpoolUpdated",
      "type": "event"
    },
    {
      "anonymous": false,
      "inputs": [
        {
          "indexed": false,
          "internalType": "uint256",
          "name": "_mUSDTtoPFX",
          "type": "uint256"
        }
      ],
      "name": "mUSDTtoPFXUpdated",
      "type": "event"
    },
    {
      "anonymous": false,
      "inputs": [
        {
          "indexed": false,
          "internalType": "address",
          "name": "account",
          "type": "address"
        },
        {
          "indexed": false,
          "internalType": "uint256",
          "name": "tetherTransferred",
          "type": "uint256"
        },
        {
          "indexed": false,
          "internalType": "uint256",
          "name": "timeStamp",
          "type": "uint256"
        }
      ],
      "name": "transferFromFeesToPool",
      "type": "event"
    },
    {
      "anonymous": false,
      "inputs": [
        {
          "indexed": false,
          "internalType": "address",
          "name": "account",
          "type": "address"
        },
        {
          "indexed": false,
          "internalType": "uint256",
          "name": "lpDeposited",
          "type": "uint256"
        },
        {
          "indexed": false,
          "internalType": "uint256",
          "name": "tetherReceived",
          "type": "uint256"
        },
        {
          "indexed": false,
          "internalType": "uint256",
          "name": "timeStamp",
          "type": "uint256"
        }
      ],
      "name": "unStaked",
      "type": "event"
    },
    {
      "anonymous": false,
      "inputs": [
        {
          "indexed": false,
          "internalType": "address",
          "name": "account",
          "type": "address"
        },
        {
          "indexed": false,
          "internalType": "uint256",
          "name": "tetherWithdrawn",
          "type": "uint256"
        },
        {
          "indexed": false,
          "internalType": "uint256",
          "name": "timeStamp",
          "type": "uint256"
        }
      ],
      "name": "withdrawFromFees",
      "type": "event"
    },
    {
      "anonymous": false,
      "inputs": [
        {
          "indexed": false,
          "internalType": "address",
          "name": "account",
          "type": "address"
        },
        {
          "indexed": false,
          "internalType": "uint256",
          "name": "tetherWithdrawn",
          "type": "uint256"
        },
        {
          "indexed": false,
          "internalType": "uint256",
          "name": "timeStamp",
          "type": "uint256"
        }
      ],
      "name": "withdrawFromPool",
      "type": "event"
    },
    {
      "inputs": [],
      "name": "PFXincirculation",
      "outputs": [
        {
          "internalType": "uint256",
          "name": "",
          "type": "uint256"
        }
      ],
      "stateMutability": "view",
      "type": "function",
      "constant": true
    },
    {
      "inputs": [],
      "name": "PFXtomUSDT",
      "outputs": [
        {
          "internalType": "uint256",
          "name": "",
          "type": "uint256"
        }
      ],
      "stateMutability": "view",
      "type": "function",
      "constant": true
    },
    {
      "inputs": [],
      "name": "mUSDTfees",
      "outputs": [
        {
          "internalType": "uint256",
          "name": "",
          "type": "uint256"
        }
      ],
      "stateMutability": "view",
      "type": "function",
      "constant": true
    },
    {
      "inputs": [],
      "name": "mUSDTpool",
      "outputs": [
        {
          "internalType": "uint256",
          "name": "",
          "type": "uint256"
        }
      ],
      "stateMutability": "view",
      "type": "function",
      "constant": true
    },
    {
      "inputs": [],
      "name": "mUSDTtoPFX",
      "outputs": [
        {
          "internalType": "uint256",
          "name": "",
          "type": "uint256"
        }
      ],
      "stateMutability": "view",
      "type": "function",
      "constant": true
    },
    {
      "inputs": [],
      "name": "name",
      "outputs": [
        {
          "internalType": "string",
          "name": "",
          "type": "string"
        }
      ],
      "stateMutability": "view",
      "type": "function",
      "constant": true
    },
    {
      "inputs": [],
      "name": "owner",
      "outputs": [
        {
          "internalType": "address",
          "name": "",
          "type": "address"
        }
      ],
      "stateMutability": "view",
      "type": "function",
      "constant": true
    },
    {
      "inputs": [],
      "name": "peceiptToken",
      "outputs": [
        {
          "internalType": "contract PeceiptToken",
          "name": "",
          "type": "address"
        }
      ],
      "stateMutability": "view",
      "type": "function",
      "constant": true
    },
    {
      "inputs": [],
      "name": "stakingFee",
      "outputs": [
        {
          "internalType": "uint8",
          "name": "",
          "type": "uint8"
        }
      ],
      "stateMutability": "view",
      "type": "function",
      "constant": true
    },
    {
      "inputs": [],
      "name": "tetherToken",
      "outputs": [
        {
          "internalType": "contract TetherToken",
          "name": "",
          "type": "address"
        }
      ],
      "stateMutability": "view",
      "type": "function",
      "constant": true
    },
    {
      "inputs": [],
      "name": "getUSDTpool",
      "outputs": [
        {
          "internalType": "uint256",
          "name": "",
          "type": "uint256"
        }
      ],
      "stateMutability": "view",
      "type": "function",
      "constant": true
    },
    {
      "inputs": [],
      "name": "getPFXincirculation",
      "outputs": [
        {
          "internalType": "uint256",
          "name": "",
          "type": "uint256"
        }
      ],
      "stateMutability": "view",
      "type": "function",
      "constant": true
    },
    {
      "inputs": [],
      "name": "getmUSDTtoPFX",
      "outputs": [
        {
          "internalType": "uint256",
          "name": "",
          "type": "uint256"
        }
      ],
      "stateMutability": "view",
      "type": "function",
      "constant": true
    },
    {
      "inputs": [],
      "name": "getPFXtomUSDT",
      "outputs": [
        {
          "internalType": "uint256",
          "name": "",
          "type": "uint256"
        }
      ],
      "stateMutability": "view",
      "type": "function",
      "constant": true
    },
    {
      "inputs": [],
      "name": "getUSDTfees",
      "outputs": [
        {
          "internalType": "uint256",
          "name": "",
          "type": "uint256"
        }
      ],
      "stateMutability": "view",
      "type": "function",
      "constant": true
    },
    {
      "inputs": [
        {
          "internalType": "uint256",
          "name": "_amount",
          "type": "uint256"
        }
      ],
      "name": "stakeTokens",
      "outputs": [],
      "stateMutability": "nonpayable",
      "type": "function"
    },
    {
      "inputs": [
        {
          "internalType": "uint256",
          "name": "_amount",
          "type": "uint256"
        }
      ],
      "name": "unstakeTokens",
      "outputs": [],
      "stateMutability": "nonpayable",
      "type": "function"
    },
    {
      "inputs": [
        {
          "internalType": "uint256",
          "name": "_amount",
          "type": "uint256"
        }
      ],
      "name": "withdrawTetherFromPool",
      "outputs": [],
      "stateMutability": "nonpayable",
      "type": "function"
    },
    {
      "inputs": [
        {
          "internalType": "uint256",
          "name": "_amount",
          "type": "uint256"
        }
      ],
      "name": "addTetherToPool",
      "outputs": [],
      "stateMutability": "nonpayable",
      "type": "function"
    },
    {
      "inputs": [
        {
          "internalType": "uint256",
          "name": "_amount",
          "type": "uint256"
        }
      ],
      "name": "transferTetherFromFeesToPool",
      "outputs": [],
      "stateMutability": "nonpayable",
      "type": "function"
    },
    {
      "inputs": [
        {
          "internalType": "uint256",
          "name": "_amount",
          "type": "uint256"
        }
      ],
      "name": "withdrawTetherFromFees",
      "outputs": [],
      "stateMutability": "nonpayable",
      "type": "function"
    }
  ],
  "bytecode": "0x60806040526040518060400160405280600e81526020017f4465706f7369742057616c6c657400000000000000000000000000000000000081525060009080519060200190620000519291906200016c565b506003600760006101000a81548160ff021916908360ff1602179055503480156200007b57600080fd5b5060405162001dec38038062001dec8339818101604052810190620000a191906200024a565b81600760016101000a81548173ffffffffffffffffffffffffffffffffffffffff021916908373ffffffffffffffffffffffffffffffffffffffff16021790555080600860006101000a81548173ffffffffffffffffffffffffffffffffffffffff021916908373ffffffffffffffffffffffffffffffffffffffff16021790555033600160006101000a81548173ffffffffffffffffffffffffffffffffffffffff021916908373ffffffffffffffffffffffffffffffffffffffff160217905550505062000380565b8280546200017a90620002e7565b90600052602060002090601f0160209004810192826200019e5760008555620001ea565b82601f10620001b957805160ff1916838001178555620001ea565b82800160010185558215620001ea579182015b82811115620001e9578251825591602001919060010190620001cc565b5b509050620001f99190620001fd565b5090565b5b8082111562000218576000816000905550600101620001fe565b5090565b6000815190506200022d816200034c565b92915050565b600081519050620002448162000366565b92915050565b600080604083850312156200025e57600080fd5b60006200026e858286016200021c565b9250506020620002818582860162000233565b9150509250929050565b60006200029882620002c7565b9050919050565b6000620002ac826200028b565b9050919050565b6000620002c0826200028b565b9050919050565b600073ffffffffffffffffffffffffffffffffffffffff82169050919050565b600060028204905060018216806200030057607f821691505b602082108114156200031757620003166200031d565b5b50919050565b7f4e487b7100000000000000000000000000000000000000000000000000000000600052602260045260246000fd5b62000357816200029f565b81146200036357600080fd5b50565b6200037181620002b3565b81146200037d57600080fd5b50565b611a5c80620003906000396000f3fe608060405234801561001057600080fd5b50600436106101375760003560e01c80636f368f95116100b8578063920455861161007c57806392045586146102f2578063990d743214610310578063a7b745041461032e578063bd076e6b1461034c578063d85e62f71461036a578063eff988431461038857610137565b80636f368f95146102605780637547c7a31461027e57806378ea2c501461029a5780638be8ca3f146102b85780638da5cb5b146102d457610137565b80635cad259b116100ff5780635cad259b146101cc578063608e4dd0146101ea57806362425d681461020657806365c4e65c146102245780636f19dd181461024257610137565b806306fdde031461013c578063078b16551461015a5780630ce61b3b1461017657806332b1ed2d1461019257806344fa8b6a146101b0575b600080fd5b6101446103a6565b604051610151919061165b565b60405180910390f35b610174600480360381019061016f9190611401565b610434565b005b610190600480360381019061018b9190611401565b610610565b005b61019a6107ea565b6040516101a791906116bd565b60405180910390f35b6101ca60048036038101906101c59190611401565b6107f4565b005b6101d46109ce565b6040516101e191906116bd565b60405180910390f35b61020460048036038101906101ff9190611401565b6109d8565b005b61020e610bf5565b60405161021b91906116bd565b60405180910390f35b61022c610bfb565b60405161023991906116bd565b60405180910390f35b61024a610c01565b60405161025791906116bd565b60405180910390f35b610268610c07565b60405161027591906116bd565b60405180910390f35b61029860048036038101906102939190611401565b610c0d565b005b6102a2610f2a565b6040516102af91906116bd565b60405180910390f35b6102d260048036038101906102cd9190611401565b610f34565b005b6102dc611067565b6040516102e9919061152e565b60405180910390f35b6102fa61108d565b60405161030791906116bd565b60405180910390f35b610318611097565b60405161032591906116bd565b60405180910390f35b61033661109d565b6040516103439190611625565b60405180910390f35b6103546110c3565b6040516103619190611640565b60405180910390f35b6103726110e9565b60405161037f91906116bd565b60405180910390f35b6103906110f3565b60405161039d91906116d8565b60405180910390f35b600080546103b390611928565b80601f01602080910402602001604051908101604052809291908181526020018280546103df90611928565b801561042c5780601f106104015761010080835404028352916020019161042c565b820191906000526020600020905b81548152906001019060200180831161040f57829003601f168201915b505050505081565b60008111610477576040517f08c379a000000000000000000000000000000000000000000000000000000000815260040161046e9061169d565b60405180910390fd5b600160009054906101000a900473ffffffffffffffffffffffffffffffffffffffff1673ffffffffffffffffffffffffffffffffffffffff163373ffffffffffffffffffffffffffffffffffffffff1614610507576040517f08c379a00000000000000000000000000000000000000000000000000000000081526004016104fe9061167d565b60405180910390fd5b600860009054906101000a900473ffffffffffffffffffffffffffffffffffffffff1673ffffffffffffffffffffffffffffffffffffffff166323b872dd3330846040518463ffffffff1660e01b815260040161056693929190611549565b602060405180830381600087803b15801561058057600080fd5b505af1158015610594573d6000803e3d6000fd5b505050506040513d601f19601f820116820180604052508101906105b891906113d8565b506105c281611106565b6105ca611156565b6105d26111ba565b7f9a425b202ac5c38886c504f48344e1c072823399a48ff2602e6815b39055a0fc338242604051610605939291906115a9565b60405180910390a150565b60008111610653576040517f08c379a000000000000000000000000000000000000000000000000000000000815260040161064a9061169d565b60405180910390fd5b600160009054906101000a900473ffffffffffffffffffffffffffffffffffffffff1673ffffffffffffffffffffffffffffffffffffffff163373ffffffffffffffffffffffffffffffffffffffff16146106e3576040517f08c379a00000000000000000000000000000000000000000000000000000000081526004016106da9061167d565b60405180910390fd5b600860009054906101000a900473ffffffffffffffffffffffffffffffffffffffff1673ffffffffffffffffffffffffffffffffffffffff1663a9059cbb33836040518363ffffffff1660e01b8152600401610740929190611580565b602060405180830381600087803b15801561075a57600080fd5b505af115801561076e573d6000803e3d6000fd5b505050506040513d601f19601f8201168201806040525081019061079291906113d8565b5061079c8161121e565b6107a4611156565b6107ac6111ba565b7f9fec94cb34a8104ea9f3015951308dd268ca8e22d58dce7aefc54ca7ef00c7473382426040516107df939291906115a9565b60405180910390a150565b6000600554905090565b60008111610837576040517f08c379a000000000000000000000000000000000000000000000000000000000815260040161082e9061169d565b60405180910390fd5b600160009054906101000a900473ffffffffffffffffffffffffffffffffffffffff1673ffffffffffffffffffffffffffffffffffffffff163373ffffffffffffffffffffffffffffffffffffffff16146108c7576040517f08c379a00000000000000000000000000000000000000000000000000000000081526004016108be9061167d565b60405180910390fd5b600860009054906101000a900473ffffffffffffffffffffffffffffffffffffffff1673ffffffffffffffffffffffffffffffffffffffff1663a9059cbb33836040518363ffffffff1660e01b8152600401610924929190611580565b602060405180830381600087803b15801561093e57600080fd5b505af1158015610952573d6000803e3d6000fd5b505050506040513d601f19601f8201168201806040525081019061097691906113d8565b506109808161126e565b610988611156565b6109906111ba565b7ffad5605a762668ba454466cc795dabe16a3df1a93e004db53cc793964f531c653382426040516109c3939291906115a9565b60405180910390a150565b6000600654905090565b60008111610a1b576040517f08c379a0000000000000000000000000000000000000000000000000000000008152600401610a129061169d565b60405180910390fd5b6000670de0b6b3a764000060055483610a349190611796565b610a3e9190611765565b9050600760019054906101000a900473ffffffffffffffffffffffffffffffffffffffff1673ffffffffffffffffffffffffffffffffffffffff166323b872dd3330856040518463ffffffff1660e01b8152600401610a9f93929190611549565b602060405180830381600087803b158015610ab957600080fd5b505af1158015610acd573d6000803e3d6000fd5b505050506040513d601f19601f82011682018060405250810190610af191906113d8565b50600860009054906101000a900473ffffffffffffffffffffffffffffffffffffffff1673ffffffffffffffffffffffffffffffffffffffff1663a9059cbb33836040518363ffffffff1660e01b8152600401610b4f929190611580565b602060405180830381600087803b158015610b6957600080fd5b505af1158015610b7d573d6000803e3d6000fd5b505050506040513d601f19601f82011682018060405250810190610ba191906113d8565b50610bab8161121e565b610bb4826112be565b7fbfb1c61a0c7ec3ab4b8757abf0d1e2b43f73a5e0e8e0892354bd7fb50ecbad1533838342604051610be994939291906115e0565b60405180910390a15050565b60025481565b60045481565b60055481565b60035481565b60008111610c50576040517f08c379a0000000000000000000000000000000000000000000000000000000008152600401610c479061169d565b60405180910390fd5b600860009054906101000a900473ffffffffffffffffffffffffffffffffffffffff1673ffffffffffffffffffffffffffffffffffffffff166323b872dd3330846040518463ffffffff1660e01b8152600401610caf93929190611549565b602060405180830381600087803b158015610cc957600080fd5b505af1158015610cdd573d6000803e3d6000fd5b505050506040513d601f19601f82011682018060405250810190610d0191906113d8565b506000806004541415610d4b57606482600760009054906101000a900460ff166064610d2d9190611824565b60ff16610d3a9190611796565b610d449190611765565b9050610da4565b670de0b6b3a7640000606460065484610d649190611796565b600760009054906101000a900460ff166064610d809190611824565b60ff16610d8d9190611796565b610d979190611765565b610da19190611765565b90505b600760019054906101000a900473ffffffffffffffffffffffffffffffffffffffff1673ffffffffffffffffffffffffffffffffffffffff1663a9059cbb33836040518363ffffffff1660e01b8152600401610e01929190611580565b602060405180830381600087803b158015610e1b57600080fd5b505af1158015610e2f573d6000803e3d6000fd5b505050506040513d601f19601f82011682018060405250810190610e5391906113d8565b50610e5d8161130e565b7fb4caaf29adda3eefee3ad552a8e85058589bf834c7466cae4ee58787f70589ed33838342604051610e9294939291906115e0565b60405180910390a16000606483600760009054906101000a900460ff166064610ebb9190611824565b60ff16610ec89190611796565b610ed29190611765565b90506000606484600760009054906101000a900460ff1660ff16610ef69190611796565b610f009190611765565b9050610f0b82611106565b610f148161135e565b610f1c611156565b610f246111ba565b50505050565b6000600254905090565b60008111610f77576040517f08c379a0000000000000000000000000000000000000000000000000000000008152600401610f6e9061169d565b60405180910390fd5b600160009054906101000a900473ffffffffffffffffffffffffffffffffffffffff1673ffffffffffffffffffffffffffffffffffffffff163373ffffffffffffffffffffffffffffffffffffffff1614611007576040517f08c379a0000000000000000000000000000000000000000000000000000000008152600401610ffe9061167d565b60405180910390fd5b6110108161126e565b61101981611106565b611021611156565b6110296111ba565b7f636a30e8721929ccd3c1194ac13f4d532bbf8067e9125b58d16a8846f024889633824260405161105c939291906115a9565b60405180910390a150565b600160009054906101000a900473ffffffffffffffffffffffffffffffffffffffff1681565b6000600354905090565b60065481565b600760019054906101000a900473ffffffffffffffffffffffffffffffffffffffff1681565b600860009054906101000a900473ffffffffffffffffffffffffffffffffffffffff1681565b6000600454905090565b600760009054906101000a900460ff1681565b80600254611114919061170f565b6002819055507f5cccbbba04b79d809fde8dfe1abe8e7556605f9d9425ee6d6c1e9d423404af2f60025460405161114b91906116bd565b60405180910390a150565b600454670de0b6b3a764000060025461116f9190611796565b6111799190611765565b6005819055507f07d869f143e2815c2147cf7f0c9432e2f712ceb44d9318fbdbf369d7d163a49d6005546040516111b091906116bd565b60405180910390a1565b600254670de0b6b3a76400006004546111d39190611796565b6111dd9190611765565b6006819055507f07d869f143e2815c2147cf7f0c9432e2f712ceb44d9318fbdbf369d7d163a49d60065460405161121491906116bd565b60405180910390a1565b8060025461122c91906117f0565b6002819055507f5cccbbba04b79d809fde8dfe1abe8e7556605f9d9425ee6d6c1e9d423404af2f60025460405161126391906116bd565b60405180910390a150565b8060035461127c91906117f0565b6003819055507f96902ae94f43b66e9931047e47e228dc0324eaf25870b048850c28164498ad5e6003546040516112b391906116bd565b60405180910390a150565b806004546112cc91906117f0565b6004819055507f7f1f98d1972a97323efe9018258ff7cb340cc82e016e91f9a3afd50575b7a94060045460405161130391906116bd565b60405180910390a150565b8060045461131c919061170f565b6004819055507f7f1f98d1972a97323efe9018258ff7cb340cc82e016e91f9a3afd50575b7a94060045460405161135391906116bd565b60405180910390a150565b8060035461136c919061170f565b6003819055507f96902ae94f43b66e9931047e47e228dc0324eaf25870b048850c28164498ad5e6003546040516113a391906116bd565b60405180910390a150565b6000815190506113bd816119f8565b92915050565b6000813590506113d281611a0f565b92915050565b6000602082840312156113ea57600080fd5b60006113f8848285016113ae565b91505092915050565b60006020828403121561141357600080fd5b6000611421848285016113c3565b91505092915050565b61143381611858565b82525050565b611442816118ad565b82525050565b611451816118d1565b82525050565b6000611462826116f3565b61146c81856116fe565b935061147c8185602086016118f5565b611485816119e7565b840191505092915050565b600061149d6018836116fe565b91507f63616c6c6572206d75737420626520746865206f776e657200000000000000006000830152602082019050919050565b60006114dd6012836116fe565b91507f616d6f756e742063616e6e6f74206265203000000000000000000000000000006000830152602082019050919050565b61151981611896565b82525050565b611528816118a0565b82525050565b6000602082019050611543600083018461142a565b92915050565b600060608201905061155e600083018661142a565b61156b602083018561142a565b6115786040830184611510565b949350505050565b6000604082019050611595600083018561142a565b6115a26020830184611510565b9392505050565b60006060820190506115be600083018661142a565b6115cb6020830185611510565b6115d86040830184611510565b949350505050565b60006080820190506115f5600083018761142a565b6116026020830186611510565b61160f6040830185611510565b61161c6060830184611510565b95945050505050565b600060208201905061163a6000830184611439565b92915050565b60006020820190506116556000830184611448565b92915050565b600060208201905081810360008301526116758184611457565b905092915050565b6000602082019050818103600083015261169681611490565b9050919050565b600060208201905081810360008301526116b6816114d0565b9050919050565b60006020820190506116d26000830184611510565b92915050565b60006020820190506116ed600083018461151f565b92915050565b600081519050919050565b600082825260208201905092915050565b600061171a82611896565b915061172583611896565b9250827fffffffffffffffffffffffffffffffffffffffffffffffffffffffffffffffff0382111561175a5761175961195a565b5b828201905092915050565b600061177082611896565b915061177b83611896565b92508261178b5761178a611989565b5b828204905092915050565b60006117a182611896565b91506117ac83611896565b9250817fffffffffffffffffffffffffffffffffffffffffffffffffffffffffffffffff04831182151516156117e5576117e461195a565b5b828202905092915050565b60006117fb82611896565b915061180683611896565b9250828210156118195761181861195a565b5b828203905092915050565b600061182f826118a0565b915061183a836118a0565b92508282101561184d5761184c61195a565b5b828203905092915050565b600061186382611876565b9050919050565b60008115159050919050565b600073ffffffffffffffffffffffffffffffffffffffff82169050919050565b6000819050919050565b600060ff82169050919050565b60006118b8826118bf565b9050919050565b60006118ca82611876565b9050919050565b60006118dc826118e3565b9050919050565b60006118ee82611876565b9050919050565b60005b838110156119135780820151818401526020810190506118f8565b83811115611922576000848401525b50505050565b6000600282049050600182168061194057607f821691505b60208210811415611954576119536119b8565b5b50919050565b7f4e487b7100000000000000000000000000000000000000000000000000000000600052601160045260246000fd5b7f4e487b7100000000000000000000000000000000000000000000000000000000600052601260045260246000fd5b7f4e487b7100000000000000000000000000000000000000000000000000000000600052602260045260246000fd5b6000601f19601f8301169050919050565b611a018161186a565b8114611a0c57600080fd5b50565b611a1881611896565b8114611a2357600080fd5b5056fea26469706673582212200dd0d5283a7a3bc6bb81bfca5677c2d5cfdd93dbe086f40fb84a9bcc4cd439f964736f6c63430008000033",
  "immutableReferences": {},
  "source": "pragma solidity ^0.8.0;\r\n\r\nimport \"./PeceiptToken.sol\";\r\nimport \"./TetherToken.sol\";\r\nimport \"./Ownable.sol\";\r\nimport \"./CheckContract.sol\";\r\n\r\ncontract DepositWallet is CheckContract{\r\n\r\n    // ---Contract Variables---\r\n    string public name = \"Deposit Wallet\";\r\n    address public owner;\r\n    uint256 public mUSDTpool;\r\n    uint256 public mUSDTfees;\r\n    uint256 public PFXincirculation;\r\n    uint256 public mUSDTtoPFX;\r\n    uint256 public PFXtomUSDT;\r\n    uint8 public stakingFee=3;\r\n\r\n\r\n\r\n    // ---Smart Contracts---\r\n    PeceiptToken public peceiptToken;\r\n    TetherToken public tetherToken;\r\n\r\n\r\n\r\n    // --- Pool Events ---\r\n    event mUSDTpoolUpdated(uint _mUSDTpool);\r\n    event mUSDTfeesUpdated(uint _mUSDTfees);\r\n    event PFXincirculationUpdated(uint _PFXincirculation);\r\n    event mUSDTtoPFXUpdated(uint _mUSDTtoPFX);\r\n    event PFXtomUSDTUpdated(uint _PFXtomUSDT);\r\n\r\n    // ---User Events---\r\n    event Staked(\r\n        address account,\r\n        uint tetherDeposited,\r\n        uint lpReceived,\r\n        uint timeStamp\r\n  );\r\n\r\n    event unStaked(\r\n        address account,\r\n        uint lpDeposited,\r\n        uint tetherReceived,\r\n        uint timeStamp\r\n  );\r\n    \r\n    //--- Owner Events---   \r\n    event withdrawFromPool(\r\n        address account,\r\n        uint tetherWithdrawn,\r\n        uint timeStamp\r\n  );\r\n    event addToPool(\r\n        address account,\r\n        uint tetherAdded,\r\n        uint timeStamp\r\n  );\r\n    event transferFromFeesToPool(\r\n        address account,\r\n        uint tetherTransferred,\r\n        uint timeStamp\r\n  );\r\n    event withdrawFromFees(\r\n        address account,\r\n        uint tetherWithdrawn,\r\n        uint timeStamp\r\n  );\r\n\r\n    // TODO add in only owner modifier and contract inheritance\r\n    // constructor(PeceiptToken(type ie smart contract type ie PeceiptToken(sol)) _peceiptToken(address))\r\n    // can just change the contract add of tethertoken here\r\n    constructor(PeceiptToken _peceiptToken, TetherToken _tetherToken) public {\r\n        peceiptToken=_peceiptToken;\r\n        tetherToken=_tetherToken;\r\n        owner=msg.sender;\r\n    }\r\n\r\n    // This isnt equal to the the contract's raw mUSDT balance - upon staking, some of the mUSDT will be deposited into fees segment.\r\n    // --- External View functions for the pool ---\r\n    function getUSDTpool() external view returns (uint) {\r\n        return mUSDTpool;\r\n    }\r\n    function getPFXincirculation() external view returns (uint) {\r\n        return PFXincirculation;\r\n    }\r\n    function getmUSDTtoPFX() external view returns (uint) {\r\n        return mUSDTtoPFX;\r\n    }\r\n    function getPFXtomUSDT() external view returns (uint) {\r\n        return PFXtomUSDT;\r\n    }\r\n    function getUSDTfees() external view returns (uint) {\r\n        return mUSDTfees;\r\n    }\r\n\r\n    // ---User Functions---\r\n    function stakeTokens(uint _amount) public{\r\n        require(_amount > 0, \"amount cannot be 0\");\r\n        \r\n        // Transfer TetherTokens to this contract for staking\r\n        tetherToken.transferFrom(msg.sender, address(this), _amount);\r\n        \r\n        // starting the pool\r\n        uint shareofpool;\r\n        if (PFXincirculation==0){\r\n            shareofpool=((100-stakingFee)*_amount)/100;\r\n        }\r\n        else{\r\n            shareofpool=(((100-stakingFee)*(_amount*PFXtomUSDT))/100)/(10**18);\r\n        }\r\n\r\n        // transfer lp token to person and update PFXpool\r\n        peceiptToken.transfer(msg.sender, shareofpool);\r\n        addToPFXincirculation(shareofpool);\r\n        emit Staked(msg.sender, _amount, shareofpool, block.timestamp);\r\n\r\n        // update mUSDTpool and mUSDTfees\r\n        uint amountaddTomUSDTpool=((100-stakingFee)*_amount)/100;\r\n        uint amountaddTomUSDTfees=((stakingFee)*_amount)/100;\r\n        addTomUSDTpool(amountaddTomUSDTpool);\r\n        addTomUSDTfees(amountaddTomUSDTfees);\r\n\r\n        // update exchange rates TODO need this here?\r\n        updatemUSDTtoPFX();\r\n        updatePFXtomUSDT();\r\n\r\n    }\r\n\r\n    function unstakeTokens(uint _amount) public{\r\n        require(_amount > 0, \"amount cannot be 0\");\r\n        uint256 shareofpool=(_amount*mUSDTtoPFX)/(10**18);\r\n\r\n        // transfer lp Tokens back to this contract for staking\r\n        peceiptToken.transferFrom(msg.sender, address(this), _amount);\r\n        tetherToken.transfer(msg.sender, shareofpool);\r\n\r\n        // update pool info\r\n        deductFrommUSDTpool(shareofpool);\r\n        deductFromPFXincirculation(_amount);\r\n        emit unStaked(msg.sender, _amount, shareofpool, block.timestamp);\r\n        \r\n    }\r\n\r\n    // ---OnlyOwner Functions---\r\n    function withdrawTetherFromPool (uint _amount) public{\r\n        require(_amount > 0, \"amount cannot be 0\");\r\n        require(msg.sender==owner, \"caller must be the owner\");\r\n        tetherToken.transfer(msg.sender, _amount);\r\n        deductFrommUSDTpool(_amount);\r\n        updatemUSDTtoPFX();\r\n        updatePFXtomUSDT();\r\n        emit withdrawFromPool(msg.sender, _amount, block.timestamp);\r\n    }\r\n\r\n    function addTetherToPool (uint _amount) public{\r\n        require(_amount > 0, \"amount cannot be 0\");\r\n        require(msg.sender==owner, \"caller must be the owner\");\r\n        tetherToken.transferFrom(msg.sender,address(this), _amount);\r\n        addTomUSDTpool(_amount);\r\n        updatemUSDTtoPFX();\r\n        updatePFXtomUSDT();\r\n        emit addToPool(msg.sender, _amount, block.timestamp);\r\n    }\r\n\r\n    function transferTetherFromFeesToPool (uint _amount) public{\r\n        require(_amount > 0, \"amount cannot be 0\");\r\n        require(msg.sender==owner, \"caller must be the owner\");\r\n        deductFrommUSDTfees(_amount);\r\n        addTomUSDTpool(_amount);\r\n        updatemUSDTtoPFX();\r\n        updatePFXtomUSDT();\r\n        emit transferFromFeesToPool(msg.sender, _amount, block.timestamp);\r\n    }\r\n    function withdrawTetherFromFees (uint _amount) public{\r\n        require(_amount > 0, \"amount cannot be 0\");\r\n        require(msg.sender==owner, \"caller must be the owner\");\r\n        tetherToken.transfer(msg.sender, _amount);\r\n        deductFrommUSDTfees(_amount);\r\n        updatemUSDTtoPFX();\r\n        updatePFXtomUSDT();\r\n        emit withdrawFromFees(msg.sender, _amount, block.timestamp);\r\n    }\r\n\r\n\r\n    // --- Pool functionality ---\r\n    function addTomUSDTpool(uint _amount) private{\r\n        mUSDTpool=mUSDTpool+_amount;\r\n        emit mUSDTpoolUpdated(mUSDTpool);\r\n    }\r\n    function deductFrommUSDTpool(uint _amount) private{\r\n        mUSDTpool=mUSDTpool-_amount;\r\n        emit mUSDTpoolUpdated(mUSDTpool);\r\n    }\r\n    function addToPFXincirculation(uint _amount)private{\r\n        PFXincirculation=PFXincirculation+_amount;\r\n        emit PFXincirculationUpdated(PFXincirculation);\r\n    }\r\n    function deductFromPFXincirculation(uint _amount)private{\r\n        PFXincirculation=PFXincirculation-_amount;\r\n        emit PFXincirculationUpdated(PFXincirculation);\r\n    }\r\n    function addTomUSDTfees(uint _amount) private{\r\n        mUSDTfees=mUSDTfees+_amount;\r\n        emit mUSDTfeesUpdated(mUSDTfees);\r\n    }\r\n    function deductFrommUSDTfees(uint _amount) private{\r\n        mUSDTfees=mUSDTfees-_amount;\r\n        emit mUSDTfeesUpdated(mUSDTfees);\r\n    }\r\n    function updatemUSDTtoPFX() private {\r\n        mUSDTtoPFX=(mUSDTpool*10**18)/PFXincirculation;\r\n        emit mUSDTtoPFXUpdated(mUSDTtoPFX);\r\n    }\r\n    function updatePFXtomUSDT() private {\r\n        PFXtomUSDT=(PFXincirculation*10**18)/mUSDTpool;\r\n        emit mUSDTtoPFXUpdated(PFXtomUSDT);\r\n    }\r\n        \r\n}",
  "sourcePath": "C:\\Users\\richa\\Desktop\\FX_liquidity_Programme\\src\\contracts\\DepositWallet.sol",
  "compiler": {
    "name": "solc",
    "version": "0.8.0+commit.c7dfd78e.Emscripten.clang"
  },
  "schemaVersion": "3.4.3",
  "updatedAt": "2021-09-10T04:34:06.131Z",
  "networkType": "ethereum",
  "devdoc": {
    "kind": "dev",
    "methods": {},
    "version": 1
  },
  "userdoc": {
    "kind": "user",
    "methods": {},
    "version": 1
  }
}