{
  "contractName": "DepositWallet",
  "abi": [
    {
      "inputs": [
        {
          "internalType": "contract PeceiptToken",
          "name": "_peceiptToken",
          "type": "address"
        },
        {
          "internalType": "contract TetherToken",
          "name": "_tetherToken",
          "type": "address"
        }
      ],
      "stateMutability": "nonpayable",
      "type": "constructor"
    },
    {
      "anonymous": false,
      "inputs": [
        {
          "indexed": false,
          "internalType": "uint256",
          "name": "_PFXincirculation",
          "type": "uint256"
        }
      ],
      "name": "PFXincirculationUpdated",
      "type": "event"
    },
    {
      "anonymous": false,
      "inputs": [
        {
          "indexed": false,
          "internalType": "uint256",
          "name": "_PFXtomUSDT",
          "type": "uint256"
        }
      ],
      "name": "PFXtomUSDTUpdated",
      "type": "event"
    },
    {
      "anonymous": false,
      "inputs": [
        {
          "indexed": false,
          "internalType": "address",
          "name": "account",
          "type": "address"
        },
        {
          "indexed": false,
          "internalType": "uint256",
          "name": "tetherDeposited",
          "type": "uint256"
        },
        {
          "indexed": false,
          "internalType": "uint256",
          "name": "lpReceived",
          "type": "uint256"
        },
        {
          "indexed": false,
          "internalType": "uint256",
          "name": "timeStamp",
          "type": "uint256"
        }
      ],
      "name": "Staked",
      "type": "event"
    },
    {
      "anonymous": false,
      "inputs": [
        {
          "indexed": false,
          "internalType": "address",
          "name": "account",
          "type": "address"
        },
        {
          "indexed": false,
          "internalType": "uint256",
          "name": "tetherAdded",
          "type": "uint256"
        },
        {
          "indexed": false,
          "internalType": "uint256",
          "name": "timeStamp",
          "type": "uint256"
        }
      ],
      "name": "add",
      "type": "event"
    },
    {
      "anonymous": false,
      "inputs": [
        {
          "indexed": false,
          "internalType": "uint256",
          "name": "_mUSDTfees",
          "type": "uint256"
        }
      ],
      "name": "mUSDTfeesUpdated",
      "type": "event"
    },
    {
      "anonymous": false,
      "inputs": [
        {
          "indexed": false,
          "internalType": "uint256",
          "name": "_mUSDTpool",
          "type": "uint256"
        }
      ],
      "name": "mUSDTpoolUpdated",
      "type": "event"
    },
    {
      "anonymous": false,
      "inputs": [
        {
          "indexed": false,
          "internalType": "uint256",
          "name": "_mUSDTtoPFX",
          "type": "uint256"
        }
      ],
      "name": "mUSDTtoPFXUpdated",
      "type": "event"
    },
    {
      "anonymous": false,
      "inputs": [
        {
          "indexed": false,
          "internalType": "address",
          "name": "account",
          "type": "address"
        },
        {
          "indexed": false,
          "internalType": "uint256",
          "name": "lpDeposited",
          "type": "uint256"
        },
        {
          "indexed": false,
          "internalType": "uint256",
          "name": "tetherReceived",
          "type": "uint256"
        },
        {
          "indexed": false,
          "internalType": "uint256",
          "name": "timeStamp",
          "type": "uint256"
        }
      ],
      "name": "unStaked",
      "type": "event"
    },
    {
      "anonymous": false,
      "inputs": [
        {
          "indexed": false,
          "internalType": "address",
          "name": "account",
          "type": "address"
        },
        {
          "indexed": false,
          "internalType": "uint256",
          "name": "tetherWithdrawn",
          "type": "uint256"
        },
        {
          "indexed": false,
          "internalType": "uint256",
          "name": "timeStamp",
          "type": "uint256"
        }
      ],
      "name": "withdraw",
      "type": "event"
    },
    {
      "inputs": [],
      "name": "PFXincirculation",
      "outputs": [
        {
          "internalType": "uint256",
          "name": "",
          "type": "uint256"
        }
      ],
      "stateMutability": "view",
      "type": "function",
      "constant": true
    },
    {
      "inputs": [],
      "name": "PFXtomUSDT",
      "outputs": [
        {
          "internalType": "uint256",
          "name": "",
          "type": "uint256"
        }
      ],
      "stateMutability": "view",
      "type": "function",
      "constant": true
    },
    {
      "inputs": [],
      "name": "mUSDTfees",
      "outputs": [
        {
          "internalType": "uint256",
          "name": "",
          "type": "uint256"
        }
      ],
      "stateMutability": "view",
      "type": "function",
      "constant": true
    },
    {
      "inputs": [],
      "name": "mUSDTpool",
      "outputs": [
        {
          "internalType": "uint256",
          "name": "",
          "type": "uint256"
        }
      ],
      "stateMutability": "view",
      "type": "function",
      "constant": true
    },
    {
      "inputs": [],
      "name": "mUSDTtoPFX",
      "outputs": [
        {
          "internalType": "uint256",
          "name": "",
          "type": "uint256"
        }
      ],
      "stateMutability": "view",
      "type": "function",
      "constant": true
    },
    {
      "inputs": [],
      "name": "name",
      "outputs": [
        {
          "internalType": "string",
          "name": "",
          "type": "string"
        }
      ],
      "stateMutability": "view",
      "type": "function",
      "constant": true
    },
    {
      "inputs": [],
      "name": "owner",
      "outputs": [
        {
          "internalType": "address",
          "name": "",
          "type": "address"
        }
      ],
      "stateMutability": "view",
      "type": "function",
      "constant": true
    },
    {
      "inputs": [],
      "name": "peceiptToken",
      "outputs": [
        {
          "internalType": "contract PeceiptToken",
          "name": "",
          "type": "address"
        }
      ],
      "stateMutability": "view",
      "type": "function",
      "constant": true
    },
    {
      "inputs": [],
      "name": "stakingFee",
      "outputs": [
        {
          "internalType": "uint8",
          "name": "",
          "type": "uint8"
        }
      ],
      "stateMutability": "view",
      "type": "function",
      "constant": true
    },
    {
      "inputs": [],
      "name": "tetherToken",
      "outputs": [
        {
          "internalType": "contract TetherToken",
          "name": "",
          "type": "address"
        }
      ],
      "stateMutability": "view",
      "type": "function",
      "constant": true
    },
    {
      "inputs": [],
      "name": "getUSDTpool",
      "outputs": [
        {
          "internalType": "uint256",
          "name": "",
          "type": "uint256"
        }
      ],
      "stateMutability": "view",
      "type": "function",
      "constant": true
    },
    {
      "inputs": [],
      "name": "getPFXincirculation",
      "outputs": [
        {
          "internalType": "uint256",
          "name": "",
          "type": "uint256"
        }
      ],
      "stateMutability": "view",
      "type": "function",
      "constant": true
    },
    {
      "inputs": [],
      "name": "getmUSDTtoPFX",
      "outputs": [
        {
          "internalType": "uint256",
          "name": "",
          "type": "uint256"
        }
      ],
      "stateMutability": "view",
      "type": "function",
      "constant": true
    },
    {
      "inputs": [],
      "name": "getPFXtomUSDT",
      "outputs": [
        {
          "internalType": "uint256",
          "name": "",
          "type": "uint256"
        }
      ],
      "stateMutability": "view",
      "type": "function",
      "constant": true
    },
    {
      "inputs": [],
      "name": "getUSDTfees",
      "outputs": [
        {
          "internalType": "uint256",
          "name": "",
          "type": "uint256"
        }
      ],
      "stateMutability": "view",
      "type": "function",
      "constant": true
    },
    {
      "inputs": [
        {
          "internalType": "uint256",
          "name": "_amount",
          "type": "uint256"
        }
      ],
      "name": "stakeTokens",
      "outputs": [],
      "stateMutability": "nonpayable",
      "type": "function"
    },
    {
      "inputs": [
        {
          "internalType": "uint256",
          "name": "_amount",
          "type": "uint256"
        }
      ],
      "name": "unstakeTokens",
      "outputs": [],
      "stateMutability": "nonpayable",
      "type": "function"
    },
    {
      "inputs": [
        {
          "internalType": "uint256",
          "name": "_amount",
          "type": "uint256"
        }
      ],
      "name": "withdrawTetherFromPool",
      "outputs": [],
      "stateMutability": "nonpayable",
      "type": "function"
    },
    {
      "inputs": [
        {
          "internalType": "uint256",
          "name": "_amount",
          "type": "uint256"
        }
      ],
      "name": "addTetherToPool",
      "outputs": [],
      "stateMutability": "nonpayable",
      "type": "function"
    },
    {
      "inputs": [
        {
          "internalType": "uint256",
          "name": "_amount",
          "type": "uint256"
        }
      ],
      "name": "transferTetherFromFeesToPool",
      "outputs": [],
      "stateMutability": "nonpayable",
      "type": "function"
    },
    {
      "inputs": [
        {
          "internalType": "uint256",
          "name": "_amount",
          "type": "uint256"
        }
      ],
      "name": "withdrawTetherFromFees",
      "outputs": [],
      "stateMutability": "nonpayable",
      "type": "function"
    }
  ],
  "bytecode": "0x60806040526040518060400160405280600e81526020017f4465706f7369742057616c6c657400000000000000000000000000000000000081525060009080519060200190620000519291906200016c565b506003600760006101000a81548160ff021916908360ff1602179055503480156200007b57600080fd5b5060405162001d7638038062001d768339818101604052810190620000a191906200024a565b81600760016101000a81548173ffffffffffffffffffffffffffffffffffffffff021916908373ffffffffffffffffffffffffffffffffffffffff16021790555080600860006101000a81548173ffffffffffffffffffffffffffffffffffffffff021916908373ffffffffffffffffffffffffffffffffffffffff16021790555033600160006101000a81548173ffffffffffffffffffffffffffffffffffffffff021916908373ffffffffffffffffffffffffffffffffffffffff160217905550505062000380565b8280546200017a90620002e7565b90600052602060002090601f0160209004810192826200019e5760008555620001ea565b82601f10620001b957805160ff1916838001178555620001ea565b82800160010185558215620001ea579182015b82811115620001e9578251825591602001919060010190620001cc565b5b509050620001f99190620001fd565b5090565b5b8082111562000218576000816000905550600101620001fe565b5090565b6000815190506200022d816200034c565b92915050565b600081519050620002448162000366565b92915050565b600080604083850312156200025e57600080fd5b60006200026e858286016200021c565b9250506020620002818582860162000233565b9150509250929050565b60006200029882620002c7565b9050919050565b6000620002ac826200028b565b9050919050565b6000620002c0826200028b565b9050919050565b600073ffffffffffffffffffffffffffffffffffffffff82169050919050565b600060028204905060018216806200030057607f821691505b602082108114156200031757620003166200031d565b5b50919050565b7f4e487b7100000000000000000000000000000000000000000000000000000000600052602260045260246000fd5b62000357816200029f565b81146200036357600080fd5b50565b6200037181620002b3565b81146200037d57600080fd5b50565b6119e680620003906000396000f3fe608060405234801561001057600080fd5b50600436106101375760003560e01c80636f368f95116100b8578063920455861161007c57806392045586146102f2578063990d743214610310578063a7b745041461032e578063bd076e6b1461034c578063d85e62f71461036a578063eff988431461038857610137565b80636f368f95146102605780637547c7a31461027e57806378ea2c501461029a5780638be8ca3f146102b85780638da5cb5b146102d457610137565b80635cad259b116100ff5780635cad259b146101cc578063608e4dd0146101ea57806362425d681461020657806365c4e65c146102245780636f19dd181461024257610137565b806306fdde031461013c578063078b16551461015a5780630ce61b3b1461017657806332b1ed2d1461019257806344fa8b6a146101b0575b600080fd5b6101446103a6565b60405161015191906115e5565b60405180910390f35b610174600480360381019061016f919061138b565b610434565b005b610190600480360381019061018b919061138b565b610610565b005b61019a6107ea565b6040516101a79190611647565b60405180910390f35b6101ca60048036038101906101c5919061138b565b6107f4565b005b6101d4610993565b6040516101e19190611647565b60405180910390f35b61020460048036038101906101ff919061138b565b61099d565b005b61020e610bba565b60405161021b9190611647565b60405180910390f35b61022c610bc0565b6040516102399190611647565b60405180910390f35b61024a610bc6565b6040516102579190611647565b60405180910390f35b610268610bcc565b6040516102759190611647565b60405180910390f35b6102986004803603810190610293919061138b565b610bd2565b005b6102a2610eef565b6040516102af9190611647565b60405180910390f35b6102d260048036038101906102cd919061138b565b610ef9565b005b6102dc610ff1565b6040516102e991906114b8565b60405180910390f35b6102fa611017565b6040516103079190611647565b60405180910390f35b610318611021565b6040516103259190611647565b60405180910390f35b610336611027565b60405161034391906115af565b60405180910390f35b61035461104d565b60405161036191906115ca565b60405180910390f35b610372611073565b60405161037f9190611647565b60405180910390f35b61039061107d565b60405161039d9190611662565b60405180910390f35b600080546103b3906118b2565b80601f01602080910402602001604051908101604052809291908181526020018280546103df906118b2565b801561042c5780601f106104015761010080835404028352916020019161042c565b820191906000526020600020905b81548152906001019060200180831161040f57829003601f168201915b505050505081565b60008111610477576040517f08c379a000000000000000000000000000000000000000000000000000000000815260040161046e90611627565b60405180910390fd5b600160009054906101000a900473ffffffffffffffffffffffffffffffffffffffff1673ffffffffffffffffffffffffffffffffffffffff163373ffffffffffffffffffffffffffffffffffffffff1614610507576040517f08c379a00000000000000000000000000000000000000000000000000000000081526004016104fe90611607565b60405180910390fd5b600860009054906101000a900473ffffffffffffffffffffffffffffffffffffffff1673ffffffffffffffffffffffffffffffffffffffff166323b872dd3330846040518463ffffffff1660e01b8152600401610566939291906114d3565b602060405180830381600087803b15801561058057600080fd5b505af1158015610594573d6000803e3d6000fd5b505050506040513d601f19601f820116820180604052508101906105b89190611362565b506105c281611090565b6105ca6110e0565b6105d2611144565b7f5101e1287b963692121385380f4da2bd2b616c773d869e01175892325b71724133824260405161060593929190611533565b60405180910390a150565b60008111610653576040517f08c379a000000000000000000000000000000000000000000000000000000000815260040161064a90611627565b60405180910390fd5b600160009054906101000a900473ffffffffffffffffffffffffffffffffffffffff1673ffffffffffffffffffffffffffffffffffffffff163373ffffffffffffffffffffffffffffffffffffffff16146106e3576040517f08c379a00000000000000000000000000000000000000000000000000000000081526004016106da90611607565b60405180910390fd5b600860009054906101000a900473ffffffffffffffffffffffffffffffffffffffff1673ffffffffffffffffffffffffffffffffffffffff1663a9059cbb33836040518363ffffffff1660e01b815260040161074092919061150a565b602060405180830381600087803b15801561075a57600080fd5b505af115801561076e573d6000803e3d6000fd5b505050506040513d601f19601f820116820180604052508101906107929190611362565b5061079c816111a8565b6107a46110e0565b6107ac611144565b7fb5c5f6724bdc9de2302196ac349f18e17fc199e7f3e9a1adbb788e22b98d42983382426040516107df93929190611533565b60405180910390a150565b6000600554905090565b60008111610837576040517f08c379a000000000000000000000000000000000000000000000000000000000815260040161082e90611627565b60405180910390fd5b600160009054906101000a900473ffffffffffffffffffffffffffffffffffffffff1673ffffffffffffffffffffffffffffffffffffffff163373ffffffffffffffffffffffffffffffffffffffff16146108c7576040517f08c379a00000000000000000000000000000000000000000000000000000000081526004016108be90611607565b60405180910390fd5b600860009054906101000a900473ffffffffffffffffffffffffffffffffffffffff1673ffffffffffffffffffffffffffffffffffffffff1663a9059cbb33836040518363ffffffff1660e01b815260040161092492919061150a565b602060405180830381600087803b15801561093e57600080fd5b505af1158015610952573d6000803e3d6000fd5b505050506040513d601f19601f820116820180604052508101906109769190611362565b50610980816111f8565b6109886110e0565b610990611144565b50565b6000600654905090565b600081116109e0576040517f08c379a00000000000000000000000000000000000000000000000000000000081526004016109d790611627565b60405180910390fd5b6000670de0b6b3a7640000600554836109f99190611720565b610a0391906116ef565b9050600760019054906101000a900473ffffffffffffffffffffffffffffffffffffffff1673ffffffffffffffffffffffffffffffffffffffff166323b872dd3330856040518463ffffffff1660e01b8152600401610a64939291906114d3565b602060405180830381600087803b158015610a7e57600080fd5b505af1158015610a92573d6000803e3d6000fd5b505050506040513d601f19601f82011682018060405250810190610ab69190611362565b50600860009054906101000a900473ffffffffffffffffffffffffffffffffffffffff1673ffffffffffffffffffffffffffffffffffffffff1663a9059cbb33836040518363ffffffff1660e01b8152600401610b1492919061150a565b602060405180830381600087803b158015610b2e57600080fd5b505af1158015610b42573d6000803e3d6000fd5b505050506040513d601f19601f82011682018060405250810190610b669190611362565b50610b70816111a8565b610b7982611248565b7fbfb1c61a0c7ec3ab4b8757abf0d1e2b43f73a5e0e8e0892354bd7fb50ecbad1533838342604051610bae949392919061156a565b60405180910390a15050565b60025481565b60045481565b60055481565b60035481565b60008111610c15576040517f08c379a0000000000000000000000000000000000000000000000000000000008152600401610c0c90611627565b60405180910390fd5b600860009054906101000a900473ffffffffffffffffffffffffffffffffffffffff1673ffffffffffffffffffffffffffffffffffffffff166323b872dd3330846040518463ffffffff1660e01b8152600401610c74939291906114d3565b602060405180830381600087803b158015610c8e57600080fd5b505af1158015610ca2573d6000803e3d6000fd5b505050506040513d601f19601f82011682018060405250810190610cc69190611362565b506000806004541415610d1057606482600760009054906101000a900460ff166064610cf291906117ae565b60ff16610cff9190611720565b610d0991906116ef565b9050610d69565b670de0b6b3a7640000606460065484610d299190611720565b600760009054906101000a900460ff166064610d4591906117ae565b60ff16610d529190611720565b610d5c91906116ef565b610d6691906116ef565b90505b600760019054906101000a900473ffffffffffffffffffffffffffffffffffffffff1673ffffffffffffffffffffffffffffffffffffffff1663a9059cbb33836040518363ffffffff1660e01b8152600401610dc692919061150a565b602060405180830381600087803b158015610de057600080fd5b505af1158015610df4573d6000803e3d6000fd5b505050506040513d601f19601f82011682018060405250810190610e189190611362565b50610e2281611298565b7fb4caaf29adda3eefee3ad552a8e85058589bf834c7466cae4ee58787f70589ed33838342604051610e57949392919061156a565b60405180910390a16000606483600760009054906101000a900460ff166064610e8091906117ae565b60ff16610e8d9190611720565b610e9791906116ef565b90506000606484600760009054906101000a900460ff1660ff16610ebb9190611720565b610ec591906116ef565b9050610ed082611090565b610ed9816112e8565b610ee16110e0565b610ee9611144565b50505050565b6000600254905090565b60008111610f3c576040517f08c379a0000000000000000000000000000000000000000000000000000000008152600401610f3390611627565b60405180910390fd5b600160009054906101000a900473ffffffffffffffffffffffffffffffffffffffff1673ffffffffffffffffffffffffffffffffffffffff163373ffffffffffffffffffffffffffffffffffffffff1614610fcc576040517f08c379a0000000000000000000000000000000000000000000000000000000008152600401610fc390611607565b60405180910390fd5b610fd5816111f8565b610fde81611090565b610fe66110e0565b610fee611144565b50565b600160009054906101000a900473ffffffffffffffffffffffffffffffffffffffff1681565b6000600354905090565b60065481565b600760019054906101000a900473ffffffffffffffffffffffffffffffffffffffff1681565b600860009054906101000a900473ffffffffffffffffffffffffffffffffffffffff1681565b6000600454905090565b600760009054906101000a900460ff1681565b8060025461109e9190611699565b6002819055507f5cccbbba04b79d809fde8dfe1abe8e7556605f9d9425ee6d6c1e9d423404af2f6002546040516110d59190611647565b60405180910390a150565b600454670de0b6b3a76400006002546110f99190611720565b61110391906116ef565b6005819055507f07d869f143e2815c2147cf7f0c9432e2f712ceb44d9318fbdbf369d7d163a49d60055460405161113a9190611647565b60405180910390a1565b600254670de0b6b3a764000060045461115d9190611720565b61116791906116ef565b6006819055507f07d869f143e2815c2147cf7f0c9432e2f712ceb44d9318fbdbf369d7d163a49d60065460405161119e9190611647565b60405180910390a1565b806002546111b6919061177a565b6002819055507f5cccbbba04b79d809fde8dfe1abe8e7556605f9d9425ee6d6c1e9d423404af2f6002546040516111ed9190611647565b60405180910390a150565b80600354611206919061177a565b6003819055507f96902ae94f43b66e9931047e47e228dc0324eaf25870b048850c28164498ad5e60035460405161123d9190611647565b60405180910390a150565b80600454611256919061177a565b6004819055507f7f1f98d1972a97323efe9018258ff7cb340cc82e016e91f9a3afd50575b7a94060045460405161128d9190611647565b60405180910390a150565b806004546112a69190611699565b6004819055507f7f1f98d1972a97323efe9018258ff7cb340cc82e016e91f9a3afd50575b7a9406004546040516112dd9190611647565b60405180910390a150565b806003546112f69190611699565b6003819055507f96902ae94f43b66e9931047e47e228dc0324eaf25870b048850c28164498ad5e60035460405161132d9190611647565b60405180910390a150565b60008151905061134781611982565b92915050565b60008135905061135c81611999565b92915050565b60006020828403121561137457600080fd5b600061138284828501611338565b91505092915050565b60006020828403121561139d57600080fd5b60006113ab8482850161134d565b91505092915050565b6113bd816117e2565b82525050565b6113cc81611837565b82525050565b6113db8161185b565b82525050565b60006113ec8261167d565b6113f68185611688565b935061140681856020860161187f565b61140f81611971565b840191505092915050565b6000611427601883611688565b91507f63616c6c6572206d75737420626520746865206f776e657200000000000000006000830152602082019050919050565b6000611467601283611688565b91507f616d6f756e742063616e6e6f74206265203000000000000000000000000000006000830152602082019050919050565b6114a381611820565b82525050565b6114b28161182a565b82525050565b60006020820190506114cd60008301846113b4565b92915050565b60006060820190506114e860008301866113b4565b6114f560208301856113b4565b611502604083018461149a565b949350505050565b600060408201905061151f60008301856113b4565b61152c602083018461149a565b9392505050565b600060608201905061154860008301866113b4565b611555602083018561149a565b611562604083018461149a565b949350505050565b600060808201905061157f60008301876113b4565b61158c602083018661149a565b611599604083018561149a565b6115a6606083018461149a565b95945050505050565b60006020820190506115c460008301846113c3565b92915050565b60006020820190506115df60008301846113d2565b92915050565b600060208201905081810360008301526115ff81846113e1565b905092915050565b600060208201905081810360008301526116208161141a565b9050919050565b600060208201905081810360008301526116408161145a565b9050919050565b600060208201905061165c600083018461149a565b92915050565b600060208201905061167760008301846114a9565b92915050565b600081519050919050565b600082825260208201905092915050565b60006116a482611820565b91506116af83611820565b9250827fffffffffffffffffffffffffffffffffffffffffffffffffffffffffffffffff038211156116e4576116e36118e4565b5b828201905092915050565b60006116fa82611820565b915061170583611820565b92508261171557611714611913565b5b828204905092915050565b600061172b82611820565b915061173683611820565b9250817fffffffffffffffffffffffffffffffffffffffffffffffffffffffffffffffff048311821515161561176f5761176e6118e4565b5b828202905092915050565b600061178582611820565b915061179083611820565b9250828210156117a3576117a26118e4565b5b828203905092915050565b60006117b98261182a565b91506117c48361182a565b9250828210156117d7576117d66118e4565b5b828203905092915050565b60006117ed82611800565b9050919050565b60008115159050919050565b600073ffffffffffffffffffffffffffffffffffffffff82169050919050565b6000819050919050565b600060ff82169050919050565b600061184282611849565b9050919050565b600061185482611800565b9050919050565b60006118668261186d565b9050919050565b600061187882611800565b9050919050565b60005b8381101561189d578082015181840152602081019050611882565b838111156118ac576000848401525b50505050565b600060028204905060018216806118ca57607f821691505b602082108114156118de576118dd611942565b5b50919050565b7f4e487b7100000000000000000000000000000000000000000000000000000000600052601160045260246000fd5b7f4e487b7100000000000000000000000000000000000000000000000000000000600052601260045260246000fd5b7f4e487b7100000000000000000000000000000000000000000000000000000000600052602260045260246000fd5b6000601f19601f8301169050919050565b61198b816117f4565b811461199657600080fd5b50565b6119a281611820565b81146119ad57600080fd5b5056fea26469706673582212208ab3ad0b971a36677027071e27a8202a8fbc939c23b7044805a4920b1af8091264736f6c63430008000033",
  "immutableReferences": {},
  "source": "pragma solidity ^0.8.0;\r\n\r\nimport \"./PeceiptToken.sol\";\r\nimport \"./TetherToken.sol\";\r\nimport \"./Ownable.sol\";\r\nimport \"./CheckContract.sol\";\r\n\r\ncontract DepositWallet is CheckContract{\r\n    // All code goes here...\r\n\r\n    string public name = \"Deposit Wallet\";\r\n    address public owner;\r\n    uint256 public mUSDTpool;\r\n    uint256 public mUSDTfees;\r\n    uint256 public PFXincirculation;\r\n    uint256 public mUSDTtoPFX;\r\n    uint256 public PFXtomUSDT;\r\n    uint8 public stakingFee=3;\r\n\r\n\r\n\r\n    // saving smart contract types as state variables here\r\n    PeceiptToken public peceiptToken;\r\n    TetherToken public tetherToken;\r\n\r\n\r\n\r\n    // --- Pool Events ---\r\n    event mUSDTpoolUpdated(uint _mUSDTpool);\r\n    event mUSDTfeesUpdated(uint _mUSDTfees);\r\n    event PFXincirculationUpdated(uint _PFXincirculation);\r\n    event mUSDTtoPFXUpdated(uint _mUSDTtoPFX);\r\n    event PFXtomUSDTUpdated(uint _PFXtomUSDT);\r\n\r\n\r\n    event Staked(\r\n        address account,\r\n        uint tetherDeposited,\r\n        uint lpReceived,\r\n        uint timeStamp\r\n  );\r\n\r\n    event unStaked(\r\n        address account,\r\n        uint lpDeposited,\r\n        uint tetherReceived,\r\n        uint timeStamp\r\n  );\r\n    event withdraw(\r\n        address account,\r\n        uint tetherWithdrawn,\r\n        uint timeStamp\r\n  );\r\n    event add(\r\n        address account,\r\n        uint tetherAdded,\r\n        uint timeStamp\r\n  );\r\n\r\n    // TODO add in only owner modifier and contract inheritance\r\n    // constructor(PeceiptToken(type ie smart contract type ie PeceiptToken(sol)) _peceiptToken(address))\r\n    // can just change the contract add of tethertoken here\r\n    constructor(PeceiptToken _peceiptToken, TetherToken _tetherToken) public {\r\n        peceiptToken=_peceiptToken;\r\n        tetherToken=_tetherToken;\r\n        owner=msg.sender;\r\n    }\r\n\r\n    // This isnt equal to the the contract's raw mUSDT balance - upon staking, some of the mUSDT will be deposited into fees segment.\r\n    // --- External View functions for the pool ---\r\n    function getUSDTpool() external view returns (uint) {\r\n        return mUSDTpool;\r\n    }\r\n    function getPFXincirculation() external view returns (uint) {\r\n        return PFXincirculation;\r\n    }\r\n    function getmUSDTtoPFX() external view returns (uint) {\r\n        return mUSDTtoPFX;\r\n    }\r\n    function getPFXtomUSDT() external view returns (uint) {\r\n        return PFXtomUSDT;\r\n    }\r\n    // onlyOwner add in function below\r\n    function getUSDTfees() external view returns (uint) {\r\n        return mUSDTfees;\r\n    }\r\n\r\n\r\n    function stakeTokens(uint _amount) public{\r\n        require(_amount > 0, \"amount cannot be 0\");\r\n        \r\n        // Transfer TetherTokens to this contract for staking\r\n        tetherToken.transferFrom(msg.sender, address(this), _amount);\r\n\r\n        \r\n        // starting the pool\r\n        uint shareofpool;\r\n        if (PFXincirculation==0){\r\n            shareofpool=((100-stakingFee)*_amount)/100;\r\n        }\r\n        else{\r\n            shareofpool=(((100-stakingFee)*(_amount*PFXtomUSDT))/100)/(10**18);\r\n        }\r\n\r\n        // transfer lp token to person and update PFXpool\r\n        peceiptToken.transfer(msg.sender, shareofpool);\r\n        addToPFXincirculation(shareofpool);\r\n        emit Staked(msg.sender, _amount, shareofpool, block.timestamp);\r\n\r\n        // update mUSDTpool and mUSDTfees\r\n        uint amountaddTomUSDTpool=((100-stakingFee)*_amount)/100;\r\n        uint amountaddTomUSDTfees=((stakingFee)*_amount)/100;\r\n        addTomUSDTpool(amountaddTomUSDTpool);\r\n        addTomUSDTfees(amountaddTomUSDTfees);\r\n\r\n        // update exchange rates TODO need this here?\r\n        updatemUSDTtoPFX();\r\n        updatePFXtomUSDT();\r\n\r\n    }\r\n\r\n    function unstakeTokens(uint _amount) public{\r\n        require(_amount > 0, \"amount cannot be 0\");\r\n        uint256 shareofpool=(_amount*mUSDTtoPFX)/(10**18);\r\n\r\n        // transfer lp Tokens back to this contract for staking\r\n        peceiptToken.transferFrom(msg.sender, address(this), _amount);\r\n        tetherToken.transfer(msg.sender, shareofpool);\r\n\r\n        // update pool info\r\n        deductFrommUSDTpool(shareofpool);\r\n        deductFromPFXincirculation(_amount);\r\n        emit unStaked(msg.sender, _amount, shareofpool, block.timestamp);\r\n        \r\n    }\r\n\r\n    // ---OnlyOwner Functions---\r\n    function withdrawTetherFromPool (uint _amount) public{\r\n        require(_amount > 0, \"amount cannot be 0\");\r\n        require(msg.sender==owner, \"caller must be the owner\");\r\n        tetherToken.transfer(msg.sender, _amount);\r\n        deductFrommUSDTpool(_amount);\r\n        updatemUSDTtoPFX();\r\n        updatePFXtomUSDT();\r\n        emit withdraw(msg.sender, _amount, block.timestamp);\r\n    }\r\n\r\n    function addTetherToPool (uint _amount) public{\r\n        require(_amount > 0, \"amount cannot be 0\");\r\n        require(msg.sender==owner, \"caller must be the owner\");\r\n        tetherToken.transferFrom(msg.sender,address(this), _amount);\r\n        addTomUSDTpool(_amount);\r\n        updatemUSDTtoPFX();\r\n        updatePFXtomUSDT();\r\n        emit add(msg.sender, _amount, block.timestamp);\r\n    }\r\n\r\n    function transferTetherFromFeesToPool (uint _amount) public{\r\n        require(_amount > 0, \"amount cannot be 0\");\r\n        require(msg.sender==owner, \"caller must be the owner\");\r\n        deductFrommUSDTfees(_amount);\r\n        addTomUSDTpool(_amount);\r\n        updatemUSDTtoPFX();\r\n        updatePFXtomUSDT();\r\n    }\r\n    function withdrawTetherFromFees (uint _amount) public{\r\n        require(_amount > 0, \"amount cannot be 0\");\r\n        require(msg.sender==owner, \"caller must be the owner\");\r\n        tetherToken.transfer(msg.sender, _amount);\r\n        deductFrommUSDTfees(_amount);\r\n        updatemUSDTtoPFX();\r\n        updatePFXtomUSDT();\r\n    }\r\n\r\n\r\n    // --- Pool functionality ---\r\n    function addTomUSDTpool(uint _amount) private{\r\n        mUSDTpool=mUSDTpool+_amount;\r\n        emit mUSDTpoolUpdated(mUSDTpool);\r\n    }\r\n    function deductFrommUSDTpool(uint _amount) private{\r\n        mUSDTpool=mUSDTpool-_amount;\r\n        emit mUSDTpoolUpdated(mUSDTpool);\r\n    }\r\n    function addToPFXincirculation(uint _amount)private{\r\n        PFXincirculation=PFXincirculation+_amount;\r\n        emit PFXincirculationUpdated(PFXincirculation);\r\n    }\r\n    function deductFromPFXincirculation(uint _amount)private{\r\n        PFXincirculation=PFXincirculation-_amount;\r\n        emit PFXincirculationUpdated(PFXincirculation);\r\n    }\r\n    function addTomUSDTfees(uint _amount) private{\r\n        mUSDTfees=mUSDTfees+_amount;\r\n        emit mUSDTfeesUpdated(mUSDTfees);\r\n    }\r\n    function deductFrommUSDTfees(uint _amount) private{\r\n        mUSDTfees=mUSDTfees-_amount;\r\n        emit mUSDTfeesUpdated(mUSDTfees);\r\n    }\r\n    function updatemUSDTtoPFX() private {\r\n        mUSDTtoPFX=(mUSDTpool*10**18)/PFXincirculation;\r\n        emit mUSDTtoPFXUpdated(mUSDTtoPFX);\r\n    }\r\n    function updatePFXtomUSDT() private {\r\n        PFXtomUSDT=(PFXincirculation*10**18)/mUSDTpool;\r\n        emit mUSDTtoPFXUpdated(PFXtomUSDT);\r\n    }\r\n        \r\n}",
  "sourcePath": "C:\\Users\\richa\\Desktop\\FX_liquidity_Programme\\src\\contracts\\DepositWallet.sol",
  "compiler": {
    "name": "solc",
    "version": "0.8.0+commit.c7dfd78e.Emscripten.clang"
  },
  "schemaVersion": "3.4.3",
  "updatedAt": "2021-09-10T02:22:03.087Z",
  "networkType": "ethereum",
  "devdoc": {
    "kind": "dev",
    "methods": {},
    "version": 1
  },
  "userdoc": {
    "kind": "user",
    "methods": {},
    "version": 1
  }
}