{
  "contractName": "DepositWallet",
  "abi": [
    {
      "inputs": [
        {
          "internalType": "contract PeceiptToken",
          "name": "_peceiptToken",
          "type": "address"
        },
        {
          "internalType": "contract TetherToken",
          "name": "_tetherToken",
          "type": "address"
        }
      ],
      "stateMutability": "nonpayable",
      "type": "constructor"
    },
    {
      "inputs": [],
      "name": "farmInfo",
      "outputs": [
        {
          "internalType": "uint256",
          "name": "blockReward",
          "type": "uint256"
        },
        {
          "internalType": "uint256",
          "name": "lastRewardBlock",
          "type": "uint256"
        },
        {
          "internalType": "uint256",
          "name": "tetherSupply",
          "type": "uint256"
        },
        {
          "internalType": "uint256",
          "name": "peceiptInCirculation",
          "type": "uint256"
        }
      ],
      "stateMutability": "view",
      "type": "function",
      "constant": true
    },
    {
      "inputs": [
        {
          "internalType": "address",
          "name": "",
          "type": "address"
        }
      ],
      "name": "hasStaked",
      "outputs": [
        {
          "internalType": "bool",
          "name": "",
          "type": "bool"
        }
      ],
      "stateMutability": "view",
      "type": "function",
      "constant": true
    },
    {
      "inputs": [
        {
          "internalType": "address",
          "name": "",
          "type": "address"
        }
      ],
      "name": "isStaking",
      "outputs": [
        {
          "internalType": "bool",
          "name": "",
          "type": "bool"
        }
      ],
      "stateMutability": "view",
      "type": "function",
      "constant": true
    },
    {
      "inputs": [],
      "name": "name",
      "outputs": [
        {
          "internalType": "string",
          "name": "",
          "type": "string"
        }
      ],
      "stateMutability": "view",
      "type": "function",
      "constant": true
    },
    {
      "inputs": [],
      "name": "owner",
      "outputs": [
        {
          "internalType": "address",
          "name": "",
          "type": "address"
        }
      ],
      "stateMutability": "view",
      "type": "function",
      "constant": true
    },
    {
      "inputs": [],
      "name": "peceiptToken",
      "outputs": [
        {
          "internalType": "contract PeceiptToken",
          "name": "",
          "type": "address"
        }
      ],
      "stateMutability": "view",
      "type": "function",
      "constant": true
    },
    {
      "inputs": [
        {
          "internalType": "uint256",
          "name": "",
          "type": "uint256"
        }
      ],
      "name": "stakers",
      "outputs": [
        {
          "internalType": "address",
          "name": "",
          "type": "address"
        }
      ],
      "stateMutability": "view",
      "type": "function",
      "constant": true
    },
    {
      "inputs": [
        {
          "internalType": "address",
          "name": "",
          "type": "address"
        }
      ],
      "name": "stakingBalance",
      "outputs": [
        {
          "internalType": "uint256",
          "name": "",
          "type": "uint256"
        }
      ],
      "stateMutability": "view",
      "type": "function",
      "constant": true
    },
    {
      "inputs": [],
      "name": "tetherToken",
      "outputs": [
        {
          "internalType": "contract TetherToken",
          "name": "",
          "type": "address"
        }
      ],
      "stateMutability": "view",
      "type": "function",
      "constant": true
    },
    {
      "inputs": [
        {
          "internalType": "uint256",
          "name": "_amount",
          "type": "uint256"
        }
      ],
      "name": "stakeTokens",
      "outputs": [],
      "stateMutability": "nonpayable",
      "type": "function"
    },
    {
      "inputs": [],
      "name": "issueTokens",
      "outputs": [],
      "stateMutability": "nonpayable",
      "type": "function"
    },
    {
      "inputs": [
        {
          "internalType": "uint256",
          "name": "_amount",
          "type": "uint256"
        }
      ],
      "name": "unstakeTokens",
      "outputs": [],
      "stateMutability": "nonpayable",
      "type": "function"
    },
    {
      "inputs": [
        {
          "internalType": "uint256",
          "name": "_amount",
          "type": "uint256"
        }
      ],
      "name": "withdrawTether",
      "outputs": [],
      "stateMutability": "nonpayable",
      "type": "function"
    }
  ],
  "bytecode": "0x60806040526040518060400160405280600e81526020017f4465706f7369742057616c6c6574000000000000000000000000000000000000815250600090805190602001906200005192919062000150565b503480156200005f57600080fd5b5060405162001ab838038062001ab883398181016040528101906200008591906200022e565b81600260006101000a81548173ffffffffffffffffffffffffffffffffffffffff021916908373ffffffffffffffffffffffffffffffffffffffff16021790555080600360006101000a81548173ffffffffffffffffffffffffffffffffffffffff021916908373ffffffffffffffffffffffffffffffffffffffff16021790555033600160006101000a81548173ffffffffffffffffffffffffffffffffffffffff021916908373ffffffffffffffffffffffffffffffffffffffff160217905550505062000364565b8280546200015e90620002cb565b90600052602060002090601f016020900481019282620001825760008555620001ce565b82601f106200019d57805160ff1916838001178555620001ce565b82800160010185558215620001ce579182015b82811115620001cd578251825591602001919060010190620001b0565b5b509050620001dd9190620001e1565b5090565b5b80821115620001fc576000816000905550600101620001e2565b5090565b600081519050620002118162000330565b92915050565b60008151905062000228816200034a565b92915050565b600080604083850312156200024257600080fd5b6000620002528582860162000200565b9250506020620002658582860162000217565b9150509250929050565b60006200027c82620002ab565b9050919050565b600062000290826200026f565b9050919050565b6000620002a4826200026f565b9050919050565b600073ffffffffffffffffffffffffffffffffffffffff82169050919050565b60006002820490506001821680620002e457607f821691505b60208210811415620002fb57620002fa62000301565b5b50919050565b7f4e487b7100000000000000000000000000000000000000000000000000000000600052602260045260246000fd5b6200033b8162000283565b81146200034757600080fd5b50565b620003558162000297565b81146200036157600080fd5b50565b61174480620003746000396000f3fe608060405234801561001057600080fd5b50600436106100cf5760003560e01c80636f49712b1161008c578063a7b7450411610066578063a7b74504146101ef578063bd076e6b1461020d578063c93c8f341461022b578063fd5e6dd11461025b576100cf565b80636f49712b146101855780637547c7a3146101b55780638da5cb5b146101d1576100cf565b806306fdde03146100d45780630ff32e35146100f25780631d49d66c1461010e57806345bc78ab1461012f578063608e4dd01461015f57806360ab58521461017b575b600080fd5b6100dc61028b565b6040516100e991906112da565b60405180910390f35b61010c600480360381019061010791906110a1565b610319565b005b6101166104bb565b6040516101269493929190611377565b60405180910390f35b6101496004803603810190610144919061104f565b6104d9565b604051610156919061135c565b60405180910390f35b610179600480360381019061017491906110a1565b6104f1565b005b6101836108d4565b005b61019f600480360381019061019a919061104f565b610af3565b6040516101ac9190611289565b60405180910390f35b6101cf60048036038101906101ca91906110a1565b610b13565b005b6101d9610f3f565b6040516101e6919061120e565b60405180910390f35b6101f7610f65565b60405161020491906112a4565b60405180910390f35b610215610f8b565b60405161022291906112bf565b60405180910390f35b6102456004803603810190610240919061104f565b610fb1565b6040516102529190611289565b60405180910390f35b610275600480360381019061027091906110a1565b610fd1565b604051610282919061120e565b60405180910390f35b60008054610298906115b0565b80601f01602080910402602001604051908101604052809291908181526020018280546102c4906115b0565b80156103115780601f106102e657610100808354040283529160200191610311565b820191906000526020600020905b8154815290600101906020018083116102f457829003601f168201915b505050505081565b6000811161035c576040517f08c379a00000000000000000000000000000000000000000000000000000000081526004016103539061133c565b60405180910390fd5b600160009054906101000a900473ffffffffffffffffffffffffffffffffffffffff1673ffffffffffffffffffffffffffffffffffffffff163373ffffffffffffffffffffffffffffffffffffffff16146103ec576040517f08c379a00000000000000000000000000000000000000000000000000000000081526004016103e3906112fc565b60405180910390fd5b600360009054906101000a900473ffffffffffffffffffffffffffffffffffffffff1673ffffffffffffffffffffffffffffffffffffffff1663a9059cbb33836040518363ffffffff1660e01b8152600401610449929190611260565b602060405180830381600087803b15801561046357600080fd5b505af1158015610477573d6000803e3d6000fd5b505050506040513d601f19601f8201168201806040525081019061049b9190611078565b5080600860020160008282546104b191906114b9565b9250508190555050565b60088060000154908060010154908060020154908060030154905084565b60056020528060005260406000206000915090505481565b6000600560003373ffffffffffffffffffffffffffffffffffffffff1673ffffffffffffffffffffffffffffffffffffffff16815260200190815260200160002054905060008111610578576040517f08c379a000000000000000000000000000000000000000000000000000000000815260040161056f9061131c565b60405180910390fd5b6000600860030154905060006008600201549050600082828661059b919061145f565b6105a5919061142e565b9050600360009054906101000a900473ffffffffffffffffffffffffffffffffffffffff1673ffffffffffffffffffffffffffffffffffffffff1663a9059cbb33836040518363ffffffff1660e01b8152600401610604929190611260565b602060405180830381600087803b15801561061e57600080fd5b505af1158015610632573d6000803e3d6000fd5b505050506040513d601f19601f820116820180604052508101906106569190611078565b50600260009054906101000a900473ffffffffffffffffffffffffffffffffffffffff1673ffffffffffffffffffffffffffffffffffffffff166323b872dd3330886040518463ffffffff1660e01b81526004016106b693929190611229565b602060405180830381600087803b1580156106d057600080fd5b505af11580156106e4573d6000803e3d6000fd5b505050506040513d601f19601f820116820180604052508101906107089190611078565b5084600560003373ffffffffffffffffffffffffffffffffffffffff1673ffffffffffffffffffffffffffffffffffffffff1681526020019081526020016000205461075491906114b9565b600560003373ffffffffffffffffffffffffffffffffffffffff1673ffffffffffffffffffffffffffffffffffffffff168152602001908152602001600020819055506000600560003373ffffffffffffffffffffffffffffffffffffffff1673ffffffffffffffffffffffffffffffffffffffff16815260200190815260200160002054141561083c576000600760003373ffffffffffffffffffffffffffffffffffffffff1673ffffffffffffffffffffffffffffffffffffffff16815260200190815260200160002060006101000a81548160ff021916908315150217905550610895565b6001600760003373ffffffffffffffffffffffffffffffffffffffff1673ffffffffffffffffffffffffffffffffffffffff16815260200190815260200160002060006101000a81548160ff0219169083151502179055505b80600860020160008282546108aa91906114b9565b9250508190555084600860030160008282546108c691906114b9565b925050819055505050505050565b600160009054906101000a900473ffffffffffffffffffffffffffffffffffffffff1673ffffffffffffffffffffffffffffffffffffffff163373ffffffffffffffffffffffffffffffffffffffff1614610964576040517f08c379a000000000000000000000000000000000000000000000000000000000815260040161095b906112fc565b60405180910390fd5b60005b600480549050811015610af0576000600482815481106109b0577f4e487b7100000000000000000000000000000000000000000000000000000000600052603260045260246000fd5b9060005260206000200160009054906101000a900473ffffffffffffffffffffffffffffffffffffffff1690506000600560008373ffffffffffffffffffffffffffffffffffffffff1673ffffffffffffffffffffffffffffffffffffffff1681526020019081526020016000205490506000811115610adb57600260009054906101000a900473ffffffffffffffffffffffffffffffffffffffff1673ffffffffffffffffffffffffffffffffffffffff1663a9059cbb83836040518363ffffffff1660e01b8152600401610a87929190611260565b602060405180830381600087803b158015610aa157600080fd5b505af1158015610ab5573d6000803e3d6000fd5b505050506040513d601f19601f82011682018060405250810190610ad99190611078565b505b50508080610ae8906115e2565b915050610967565b50565b60076020528060005260406000206000915054906101000a900460ff1681565b60008111610b56576040517f08c379a0000000000000000000000000000000000000000000000000000000008152600401610b4d9061133c565b60405180910390fd5b600360009054906101000a900473ffffffffffffffffffffffffffffffffffffffff1673ffffffffffffffffffffffffffffffffffffffff166323b872dd3330846040518463ffffffff1660e01b8152600401610bb593929190611229565b602060405180830381600087803b158015610bcf57600080fd5b505af1158015610be3573d6000803e3d6000fd5b505050506040513d601f19601f82011682018060405250810190610c079190611078565b5080600560003373ffffffffffffffffffffffffffffffffffffffff1673ffffffffffffffffffffffffffffffffffffffff16815260200190815260200160002054610c5391906113d8565b600560003373ffffffffffffffffffffffffffffffffffffffff1673ffffffffffffffffffffffffffffffffffffffff16815260200190815260200160002081905550600660003373ffffffffffffffffffffffffffffffffffffffff1673ffffffffffffffffffffffffffffffffffffffff16815260200190815260200160002060009054906101000a900460ff16610d4b576004339080600181540180825580915050600190039060005260206000200160009091909190916101000a81548173ffffffffffffffffffffffffffffffffffffffff021916908373ffffffffffffffffffffffffffffffffffffffff1602179055505b6001600760003373ffffffffffffffffffffffffffffffffffffffff1673ffffffffffffffffffffffffffffffffffffffff16815260200190815260200160002060006101000a81548160ff0219169083151502179055506001600660003373ffffffffffffffffffffffffffffffffffffffff1673ffffffffffffffffffffffffffffffffffffffff16815260200190815260200160002060006101000a81548160ff021916908315150217905550600080600860030154148015610e1657506000600860020154145b15610e2357819050610e53565b6000600860030154905060006008600201549050808285610e44919061145f565b610e4e919061142e565b925050505b8160086002016000828254610e6891906113d8565b925050819055508160086003016000828254610e8491906113d8565b92505081905550600260009054906101000a900473ffffffffffffffffffffffffffffffffffffffff1673ffffffffffffffffffffffffffffffffffffffff1663a9059cbb33836040518363ffffffff1660e01b8152600401610ee8929190611260565b602060405180830381600087803b158015610f0257600080fd5b505af1158015610f16573d6000803e3d6000fd5b505050506040513d601f19601f82011682018060405250810190610f3a9190611078565b505050565b600160009054906101000a900473ffffffffffffffffffffffffffffffffffffffff1681565b600260009054906101000a900473ffffffffffffffffffffffffffffffffffffffff1681565b600360009054906101000a900473ffffffffffffffffffffffffffffffffffffffff1681565b60066020528060005260406000206000915054906101000a900460ff1681565b60048181548110610fe157600080fd5b906000526020600020016000915054906101000a900473ffffffffffffffffffffffffffffffffffffffff1681565b60008135905061101f816116c9565b92915050565b600081519050611034816116e0565b92915050565b600081359050611049816116f7565b92915050565b60006020828403121561106157600080fd5b600061106f84828501611010565b91505092915050565b60006020828403121561108a57600080fd5b600061109884828501611025565b91505092915050565b6000602082840312156110b357600080fd5b60006110c18482850161103a565b91505092915050565b6110d3816114ed565b82525050565b6110e2816114ff565b82525050565b6110f181611535565b82525050565b61110081611559565b82525050565b6000611111826113bc565b61111b81856113c7565b935061112b81856020860161157d565b611134816116b8565b840191505092915050565b600061114c6018836113c7565b91507f63616c6c6572206d75737420626520746865206f776e657200000000000000006000830152602082019050919050565b600061118c601b836113c7565b91507f7374616b696e672062616c616e63652063616e6e6f74206265203000000000006000830152602082019050919050565b60006111cc6012836113c7565b91507f616d6f756e742063616e6e6f74206265203000000000000000000000000000006000830152602082019050919050565b6112088161152b565b82525050565b600060208201905061122360008301846110ca565b92915050565b600060608201905061123e60008301866110ca565b61124b60208301856110ca565b61125860408301846111ff565b949350505050565b600060408201905061127560008301856110ca565b61128260208301846111ff565b9392505050565b600060208201905061129e60008301846110d9565b92915050565b60006020820190506112b960008301846110e8565b92915050565b60006020820190506112d460008301846110f7565b92915050565b600060208201905081810360008301526112f48184611106565b905092915050565b600060208201905081810360008301526113158161113f565b9050919050565b600060208201905081810360008301526113358161117f565b9050919050565b60006020820190508181036000830152611355816111bf565b9050919050565b600060208201905061137160008301846111ff565b92915050565b600060808201905061138c60008301876111ff565b61139960208301866111ff565b6113a660408301856111ff565b6113b360608301846111ff565b95945050505050565b600081519050919050565b600082825260208201905092915050565b60006113e38261152b565b91506113ee8361152b565b9250827fffffffffffffffffffffffffffffffffffffffffffffffffffffffffffffffff038211156114235761142261162b565b5b828201905092915050565b60006114398261152b565b91506114448361152b565b9250826114545761145361165a565b5b828204905092915050565b600061146a8261152b565b91506114758361152b565b9250817fffffffffffffffffffffffffffffffffffffffffffffffffffffffffffffffff04831182151516156114ae576114ad61162b565b5b828202905092915050565b60006114c48261152b565b91506114cf8361152b565b9250828210156114e2576114e161162b565b5b828203905092915050565b60006114f88261150b565b9050919050565b60008115159050919050565b600073ffffffffffffffffffffffffffffffffffffffff82169050919050565b6000819050919050565b600061154082611547565b9050919050565b60006115528261150b565b9050919050565b60006115648261156b565b9050919050565b60006115768261150b565b9050919050565b60005b8381101561159b578082015181840152602081019050611580565b838111156115aa576000848401525b50505050565b600060028204905060018216806115c857607f821691505b602082108114156115dc576115db611689565b5b50919050565b60006115ed8261152b565b91507fffffffffffffffffffffffffffffffffffffffffffffffffffffffffffffffff8214156116205761161f61162b565b5b600182019050919050565b7f4e487b7100000000000000000000000000000000000000000000000000000000600052601160045260246000fd5b7f4e487b7100000000000000000000000000000000000000000000000000000000600052601260045260246000fd5b7f4e487b7100000000000000000000000000000000000000000000000000000000600052602260045260246000fd5b6000601f19601f8301169050919050565b6116d2816114ed565b81146116dd57600080fd5b50565b6116e9816114ff565b81146116f457600080fd5b50565b6117008161152b565b811461170b57600080fd5b5056fea2646970667358221220997bcc1f497fb83a9d9ba60a8f6e394f96a483c7f96ef27da0f3fcabb5bf33c964736f6c63430008000033",
  "immutableReferences": {},
  "source": "pragma solidity ^0.8.0;\r\nimport \"./PeceiptToken.sol\";\r\nimport \"./TetherToken.sol\";\r\n\r\ncontract DepositWallet {\r\n    // All code goes here...\r\n\r\n    string public name = \"Deposit Wallet\";\r\n    address public owner;\r\n    // saving smart contract types as state variables here\r\n    PeceiptToken public peceiptToken;\r\n    TetherToken public tetherToken;\r\n    \r\n\r\n    address[] public stakers;\r\n    // stakingBalance=[address:amount] (similar to)\r\n    mapping(address=>uint) public stakingBalance;\r\n    // hasStaked=[address:True]\r\n    mapping(address=>bool) public hasStaked;\r\n    mapping(address=>bool) public isStaking;\r\n    FarmInfo public farmInfo;\r\n\r\n    struct StakerInfo {\r\n        uint256 stakingBalance;\r\n        uint256 stakingTimestamp;\r\n        uint256 stakingBlock;\r\n        bool hasStaked;\r\n        bool isStaking;\r\n        uint256 poolShareRatio;\r\n    }\r\n\r\n    struct FarmInfo {\r\n        uint256 blockReward;\r\n        uint256 lastRewardBlock; // Last block number that reward distribution occurs.\r\n        uint256 tetherSupply; // set in init, total amount of tether staked\r\n        uint256 peceiptInCirculation; // set in init, total amount of tether staked\r\n    }\r\n\r\n\r\n\r\n    // constructor(PeceiptToken(type ie smart contract type ie PeceiptToken(sol)) _peceiptToken(address))\r\n    // can just change the contract add of tethertoken here\r\n    constructor(PeceiptToken _peceiptToken, TetherToken _tetherToken) public {\r\n        peceiptToken=_peceiptToken;\r\n        tetherToken=_tetherToken;\r\n        owner=msg.sender;\r\n    }\r\n\r\n    // 1. stakes tokens & issues lp tokens\r\n    function stakeTokens(uint _amount) public{\r\n        require(_amount > 0, \"amount cannot be 0\");\r\n        // code goes inside here...\r\n\r\n        // Transfer TetherTokens to this contract for staking\r\n        tetherToken.transferFrom(msg.sender, address(this), _amount);\r\n\r\n        // update staking balance\r\n        // this is to increment the stakingBalance amount in the array\r\n\r\n        stakingBalance[msg.sender]=stakingBalance[msg.sender]+_amount;\r\n\r\n        // Add user to stakers array *only if they haven't staked already\r\n        if(!hasStaked[msg.sender]){\r\n            stakers.push(msg.sender);\r\n        }\r\n\r\n        // update staking status\r\n        isStaking[msg.sender]=true;\r\n        hasStaked[msg.sender]=true;\r\n        uint shareofpool;\r\n        if (farmInfo.peceiptInCirculation==0 && farmInfo.tetherSupply==0){\r\n            shareofpool=_amount;\r\n        } else{\r\n            uint totalpeceipt=farmInfo.peceiptInCirculation;\r\n            uint totaltether=farmInfo.tetherSupply;\r\n            shareofpool=_amount*totalpeceipt/totaltether;\r\n        }\r\n            \r\n\r\n\r\n        // update perceiptincirculation and tethersupply\r\n        farmInfo.tetherSupply +=_amount;\r\n\r\n        // uint256 shareofpool=_amount*(_amount/(_amount+farmInfo.tetherSupply));\r\n        farmInfo.peceiptInCirculation +=_amount;\r\n        \r\n\r\n        peceiptToken.transfer(msg.sender, shareofpool);\r\n\r\n\r\n    }\r\n    // TODO have to burn LP tokens for the pool if they are 0\r\n\r\n    // 2. issuing reward tokens right now logic is that u get 1 for every 1 you stake, no block time basis\r\n    function issueTokens()public{\r\n        // only owner can call this function\r\n        require(msg.sender==owner, \"caller must be the owner\");\r\n\r\n        // issue tokens to all stakers\r\n        for (uint i=0; i<stakers.length; i++){\r\n            address recipient = stakers[i];\r\n            uint balance = stakingBalance[recipient];\r\n            if(balance > 0){\r\n                peceiptToken.transfer(recipient, balance);\r\n            }\r\n        }\r\n    }\r\n    // 3. unstake tokens\r\n    function unstakeTokens(uint _amount) public{\r\n        // fetch staking balance\r\n        uint balance=stakingBalance[msg.sender];\r\n    \r\n        // require amount greater than 0\r\n        require(balance > 0, \"staking balance cannot be 0\");\r\n        uint totalpeceipt=farmInfo.peceiptInCirculation;\r\n        uint totaltether=farmInfo.tetherSupply;\r\n        uint256 shareofpool=_amount*totaltether/totalpeceipt;\r\n        // transfer Mock Tether Tokens  to this contract for staking\r\n        tetherToken.transfer(msg.sender, shareofpool);\r\n        peceiptToken.transferFrom(msg.sender, address(this), _amount);\r\n\r\n        // reset staking balance\r\n        stakingBalance[msg.sender]=stakingBalance[msg.sender]-_amount;\r\n\r\n        // Update staking status\r\n        if (stakingBalance[msg.sender]==0){\r\n            isStaking[msg.sender]=false;\r\n        } else {\r\n            isStaking[msg.sender]=true;\r\n        }\r\n\r\n        \r\n        farmInfo.tetherSupply -=shareofpool;\r\n        farmInfo.peceiptInCirculation -=_amount;\r\n        \r\n    }\r\n    function withdrawTether (uint _amount) public{\r\n        require(_amount > 0, \"amount cannot be 0\");\r\n        require(msg.sender==owner, \"caller must be the owner\");\r\n        tetherToken.transfer(msg.sender, _amount);\r\n        farmInfo.tetherSupply -=_amount;\r\n    }\r\n\r\n\r\n\r\n    // 4. issuing reward tokens\r\n\r\n    // function getPoolTotalBalance() public {\r\n    //     uint256 totalBalance;\r\n    //     for (uint256 i = 0; i < stakers.length; i++) {\r\n    //         address recipient = stakers[i];\r\n    //         uint256 balance = stakerInfo[recipient].stakingBalance;\r\n    //         totalBalance = balance + totalBalance;\r\n    //     }\r\n    //     farmInfo.farmableSupply = totalBalance;\r\n    // }\r\n}",
  "sourcePath": "C:\\Users\\richa\\Desktop\\defi_tutorial\\src\\contracts\\DepositWallet.sol",
  "compiler": {
    "name": "solc",
    "version": "0.8.0+commit.c7dfd78e.Emscripten.clang"
  },
  "schemaVersion": "3.4.3",
  "updatedAt": "2021-08-24T03:15:56.592Z",
  "networkType": "ethereum",
  "devdoc": {
    "kind": "dev",
    "methods": {},
    "version": 1
  },
  "userdoc": {
    "kind": "user",
    "methods": {},
    "version": 1
  }
}